:100000000C942A000C9447000C9447000C94470071
:100010000C9447000C9447000C9447000C9458181B
:100020000C9447000C9447000C9447000C94470034
:100030000C9447000C9447000C9447000C94470024
:100040000C9447000C9447000C9447000C94470014
:100050000C94470011241FBECFE5D8E0DEBFCDBF12
:1000600010E0A0E6B0E0EAECF9E602C005900D92DF
:10007000AC39B107D9F716E0ACE9B0E001C01D9288
:10008000A43EB107E1F70E94DE140C94E3340C9413
:100090000000EF92FF920F931F937B018C0120E0F1
:1000A00030E040E05FE40E94490388238CF0C801FF
:1000B000B70120E030E040E05FE40E94C1010E940F
:1000C000A9039B01AC01205030404040504806C07D
:1000D000C801B7010E94A9039B01AC01B901CA0183
:1000E0001F910F91FF90EF900895A0E0B0E0EBE733
:1000F000F0E00C949C34DC012B01FA019C919230CD
:1001000008F439C1EB018881823008F433C194309E
:1001100069F4843009F02FC111969C91119789815F
:10012000981709F428C1A3E9B0E025C1843009F487
:1001300021C18230A9F4923009F01DC19A01AD01AC
:1001400088E0EA010990AE01E90109929E0181501F
:10015000C1F7E201898111969C918923818308C1AD
:10016000923009F407C112962D903C901397EB0141
:100170008A819B811496AD90BD90CD90DC901797AD
:10018000EC80FD800E811F819101281B390BB90184
:1001900037FF04C066277727621B730B6032710537
:1001A0000CF061C0121613066CF537014801062EDB
:1001B00004C096948794779467940A94D2F721E0C8
:1001C00030E040E050E004C0220F331F441F551FB1
:1001D0006A95D2F721503040404050402E213F21B7
:1001E00040235123211531054105510521F021E01E
:1001F00030E040E050E079018A01E628F72808293C
:1002000019293CC0232BD1F1260E371E350146019A
:10021000062E04C096948794779467940A94D2F734
:1002200021E030E040E050E004C0220F331F441FC3
:10023000551F6A95D2F721503040404050402A2146
:100240003B214C215D21211531054105510521F04E
:1002500021E030E040E050E059016A01A628B728CB
:10026000C828D9280BC0821593052CF01C01AA249C
:10027000BB24650103C0EE24FF24870111969C91E5
:10028000D20111968C91981709F445C0992339F041
:10029000A80197012A193B094C095D0906C0A6016E
:1002A00095012E193F09400B510B57FD08C01182D3
:1002B0003382228224833583468357831DC081E0A5
:1002C00081833382228288279927DC01821B930B4A
:1002D000A40BB50B84839583A683B7830DC0220F2F
:1002E000331F441F551F24833583468357838281E0
:1002F000938101979383828324813581468157813D
:10030000DA01C9010197A109B1098F5F9F4FAF4F72
:10031000BF4328F30BC0918333822282EA0CFB1C7B
:100320000C1D1D1DE482F5820683178383E0808304
:10033000248135814681578157FF1AC0C901AA27F8
:1003400097FDA095BA2F81709070A070B0705695EF
:10035000479537952795822B932BA42BB52B848318
:100360009583A683B7838281938101969383828349
:10037000DF0101C0D201CD01CDB7DEB7E2E10C94BF
:10038000B834A0E2B0E0E7ECF1E00C94A834698363
:100390007A838B839C832D833E834F835887E9E048
:1003A000EE2EF12CEC0EFD1ECE010196B7010E943F
:1003B000D2048E010F5E1F4FCE010596B8010E9438
:1003C000D2048A8991E089278A8BC701B801AE01DE
:1003D000475E5F4F0E9475000E94FD03A096E6E015
:1003E0000C94C434A0E2B0E0E8EFF1E00C94A8343F
:1003F00069837A838B839C832D833E834F835887C5
:10040000F9E0EF2EF12CEC0EFD1ECE010196B701A6
:100410000E94D2048E010F5E1F4FCE010596B801D7
:100420000E94D204C701B801AE01475E5F4F0E942F
:1004300075000E94FD03A096E6E00C94C434A0E28F
:10044000B0E0E5E2F2E00C949C3469837A838B831C
:100450009C832D833E834F835887CE010196BE0136
:10046000675F7F4F0E94D204CE010596BE016F5E8A
:100470007F4F0E94D2049985923088F0898982301A
:10048000C8F0943019F4823051F404C0843029F457
:10049000923081F483E990E0C6C0923049F420E0C4
:1004A0009A858A89981321E02A87CE010996BBC0D4
:1004B000823049F420E09A858A89981321E02A8BBA
:1004C000CE014196B0C02D843E844F8458886D88FB
:1004D0007E888F88988CEE24FF248701AA24BB2471
:1004E000650140E050E060E070E0E0E0F0E0C10174
:1004F00081709070892BE9F0E60CF71C081D191D1E
:100500009A01AB012A0D3B1D4C1D5D1D80E090E062
:10051000A0E0B0E0E614F7040805190520F481E036
:1005200090E0A0E0B0E0BA01A901480F591F6A1F8E
:100530007B1FAA0CBB1CCC1CDD1C97FE08C081E0F5
:1005400090E0A0E0B0E0A82AB92ACA2ADB2A3196B6
:10055000E032F10549F0660C771C881C991C569412
:10056000479437942794C3CFFA85EA892B893C892D
:100570008B859C85280F391F2E5F3F4F17C0CA01FE
:1005800081709070892B61F016950795F794E79428
:1005900080E090E0A0E0B0E8E82AF92A0A2B1B2BC3
:1005A00076956795579547952F5F3F4F77FDE7CF36
:1005B0000CC0440F551F661F771F17FD4160EE0CDE
:1005C000FF1C001F111F21503040403090E05907A0
:1005D00090E0690790E4790760F32B8F3C8FDB0193
:1005E000CA018F779070A070B07080349105A1051A
:1005F000B10561F447FD0AC0E114F10401051105DC
:1006000029F0405C5F4F6F4F7F4F40781A8EFE1786
:1006100011F081E08A8F4D8F5E8F6F8F78A383E01A
:10062000898FCE0149960E94FD03A096E2E10C94C9
:10063000B834A8E1B0E0EFE1F3E00C94A8346983AA
:100640007A838B839C832D833E834F83588789E0F5
:10065000E82EF12CEC0EFD1ECE010196B7010E9492
:10066000D2048E010F5E1F4FCE010596B8010E9485
:10067000D2048985823040F08989823028F0C70110
:10068000B8010E944A0501C08FEF6896E6E00C941D
:10069000C434A8E1B0E0EFE4F3E00C94A83469833B
:1006A0007A838B839C832D833E834F83588789E095
:1006B000E82EF12CEC0EFD1ECE010196B7010E9432
:1006C000D2048E010F5E1F4FCE010596B8010E9425
:1006D000D2048985823040F08989823028F0C701B0
:1006E000B8010E944A0501C08FEF6896E6E00C94BD
:1006F000C434A8E1B0E0EFE7F3E00C94A8346983D8
:100700007A838B839C832D833E834F83588789E034
:10071000E82EF12CEC0EFD1ECE010196B7010E94D1
:10072000D2048E010F5E1F4FCE010596B8010E94C4
:10073000D2048985823040F08989823028F0C7014F
:10074000B8010E944A0501C081E06896E6E00C9479
:10075000C434ACE0B0E0EFEAF3E00C94AC3469836D
:100760007A838B839C83CE010196BE016B5F7F4FA2
:100770000E94D2048D81823061F1823050F1843048
:1007800021F48E81882351F12EC02F81388537FDC9
:1007900020C06E812F3131051CF06623F9F023C093
:1007A0008EE190E0821B930B29853A854B855C8511
:1007B00004C056954795379527958A95D2F76623B5
:1007C000B1F050954095309521953F4F4F4F5F4F79
:1007D0000EC020E030E040E050E009C02FEF3FEFD6
:1007E0004FEF5FE704C020E030E040E050E8B9019F
:1007F000CA012C96E2E00C94C834DF92EF92FF928B
:100800000F931F93FC01E480F58006811781D1804E
:100810008081823048F480E090E0A0E1B0E0E82AF6
:10082000F92A0A2B1B2BA5C0843009F49FC0823003
:1008300021F4EE24FF24870105C0E114F104010531
:10084000110519F4E0E0F0E096C0628173819FEF3A
:10085000623879070CF05BC022E83FEF261B370BAC
:100860002A3131052CF020E030E040E050E02AC091
:10087000B801A701022E04C0769567955795479554
:100880000A94D2F781E090E0A0E0B0E004C0880FC5
:10089000991FAA1FBB1F2A95D2F70197A109B10979
:1008A0008E219F21A023B1230097A105B10521F03E
:1008B00081E090E0A0E0B0E09A01AB01282B392B59
:1008C0004A2B5B2BDA01C9018F779070A070B07052
:1008D00080349105A105B10539F427FF09C0205CDA
:1008E0003F4F4F4F5F4F04C0215C3F4F4F4F5F4F13
:1008F000E0E0F0E02030A0E03A07A0E04A07A0E402
:100900005A0710F0E1E0F0E079018A0127C0603871
:10091000710564F5FB01E158FF4FD801C7018F77DE
:100920009070A070B07080349105A105B10539F4C4
:10093000E7FE0DC080E490E0A0E0B0E004C08FE3EB
:1009400090E0A0E0B0E0E80EF91E0A1F1B1F17FFA1
:1009500005C016950795F794E794319687E01695AC
:100960000795F794E7948A95D1F705C0EE24FF2404
:100970008701EFEFF0E06E2F679566276795902F60
:100980009F77D794DD24D7948E2F8695492F462BB9
:10099000582F5D29B701CA011F910F91FF90EF9069
:1009A000DF900895FC01DB01408151812281622F9B
:1009B0006F7770E0221F2227221F9381892F880FD3
:1009C000822B282F30E0991F9927991F11969C930D
:1009D000119721153105A9F54115510561057105DD
:1009E00011F482E037C082E89FEF13969C938E93B8
:1009F00012979A01AB0167E0220F331F441F551F66
:100A00006A95D1F783E08C930DC0220F331F441FEA
:100A1000551F12968D919C911397019713969C9355
:100A20008E931297203080E0380780E0480780E4FA
:100A3000580758F314962D933D934D935C93179755
:100A400008952F3F310579F4411551056105710570
:100A500019F484E08C93089564FF03C081E08C93C3
:100A600012C01C9210C02F57304013963C932E9307
:100A7000129783E08C9387E0440F551F661F771F02
:100A80008A95D1F7706414964D935D936D937C9322
:100A9000179708951F93DC01FB019C91923008F495
:100AA00047C08081823008F443C0943051F41196DD
:100AB0001C91843099F58181682F70E0611B710968
:100AC0003FC0843021F0923031F48230B9F181811D
:100AD000882389F12DC011961C9111978230F1F075
:100AE00081811817D9F412962D913C911397828128
:100AF00093818217930794F028173907BCF0149656
:100B00008D919D910D90BC91A02D248135814681C0
:100B10005781281739074A075B0718F4112341F05A
:100B20000AC082179307A407B50740F4112319F0F0
:100B300061E070E005C06FEF7FEF02C060E070E041
:100B4000CB011F910895DF93CF93CDB7DEB76697A2
:100B50000FB6F894DEBF0FBECDBF8B836C838B8145
:100B60008695869586958A838B81877089838A810D
:100B7000282F30E03E8B2D8B8D899E898130910509
:100B800009F4E1C02D893E89223031052CF48D898C
:100B90009E89009771F034C32D893E89223031053A
:100BA00009F49BC18D899E898330910509F45FC248
:100BB00027C38C81813009F063C08981282F30E000
:100BC0003C8B2B8B8B899C8983309105D9F12B89A8
:100BD0003C89243031057CF48B899C8981309105D6
:100BE00029F12B893C892230310534F58B899C8988
:100BF0000097B1F005C32B893C892530310571F18F
:100C00008B899C89853091051CF12B893C89263084
:100C1000310551F18B899C898730910559F1F0C2DA
:100C2000EAE3F0E0808181608083EAC2EAE3F0E0F9
:100C3000808182608083E4C2EAE3F0E080818460A6
:100C40008083DEC2EAE3F0E0808188608083D8C2DE
:100C5000EAE3F0E0808180618083D2C2EAE3F0E0E1
:100C6000808180628083CCC2EAE3F0E0808180648E
:100C70008083C6C2EAE3F0E0808180688083C0C2DE
:100C80008981282F30E03A8B298B89899A89833092
:100C90009105D9F129893A89243031057CF4898973
:100CA0009A898130910529F129893A8922303105C3
:100CB00034F589899A890097B1F0A2C229893A89C5
:100CC0002530310571F189899A89853091051CF1AA
:100CD00029893A892630310551F189899A898730E5
:100CE000910559F18DC2EAE3F0E080818E7F808327
:100CF00087C2EAE3F0E080818D7F808381C2EAE3EE
:100D0000F0E080818B7F80837BC2EAE3F0E080812A
:100D1000877F808375C2EAE3F0E080818F7E8083E5
:100D20006FC2EAE3F0E080818F7D808369C2EAE3ED
:100D3000F0E080818F7B808363C2EAE3F0E0808112
:100D40008F7780835DC28C81813009F063C0898197
:100D5000282F30E0388B2F878F8598898330910535
:100D6000D9F12F853889243031057CF48F85988915
:100D70008130910529F12F8538892230310534F5EC
:100D80008F8598890097B1F03BC22F85388925302F
:100D9000310571F18F859889853091051CF12F857A
:100DA00038892630310551F18F8598898730910532
:100DB00059F126C2E7E3F0E080818160808320C2A0
:100DC000E7E3F0E08081826080831AC2E7E3F0E02D
:100DD00080818460808314C2E7E3F0E080818860D2
:100DE00080830EC2E7E3F0E080818061808308C2E7
:100DF000E7E3F0E080818062808302C2E7E3F0E015
:100E0000808180648083FCC1E7E3F0E080818068BA
:100E10008083F6C18981282F30E03E872D878D851C
:100E20009E8583309105D9F12D853E85243031058D
:100E30007CF48D859E858130910529F12D853E8537
:100E40002230310534F58D859E850097B1F0D8C1EB
:100E50002D853E852530310571F18D859E85853046
:100E600091051CF12D853E852630310551F18D858A
:100E70009E858730910559F1C3C1E7E3F0E0808199
:100E80008E7F8083BDC1E7E3F0E080818D7F80832A
:100E9000B7C1E7E3F0E080818B7F8083B1C1E7E3F6
:100EA000F0E08081877F8083ABC1E7E3F0E0808161
:100EB0008F7E8083A5C1E7E3F0E080818F7D808312
:100EC0009FC1E7E3F0E080818F7B808399C1E7E3F6
:100ED000F0E080818F77808393C18C81813009F02D
:100EE00063C08981282F30E03C872B878B859C85C8
:100EF00083309105D9F12B853C85243031057CF474
:100F00008B859C858130910529F12B853C8522308C
:100F1000310534F58B859C850097B1F071C12B8527
:100F20003C852530310571F18B859C858530910597
:100F30001CF12B853C852630310551F18B859C8534
:100F40008730910559F15CC1E4E3F0E08081816074
:100F5000808356C1E4E3F0E080818260808350C1E9
:100F6000E4E3F0E08081846080834AC1E4E3F0E060
:100F700080818860808344C1E4E3F0E08081806107
:100F800080833EC1E4E3F0E080818062808338C1E9
:100F9000E4E3F0E080818064808332C1E4E3F0E048
:100FA0008081806880832CC18981282F30E03A8736
:100FB000298789859A8583309105D9F129853A85D4
:100FC000243031057CF489859A858130910529F199
:100FD00029853A852230310534F589859A8500972F
:100FE000B1F00EC129853A852530310571F1898529
:100FF0009A85853091051CF129853A852630310581
:1010000051F189859A858730910559F1F9C0E4E35A
:10101000F0E080818E7F8083F3C0E4E3F0E08081A4
:101020008D7F8083EDC0E4E3F0E080818B7F80835F
:10103000E7C0E4E3F0E08081877F8083E1C0E4E300
:10104000F0E080818F7E8083DBC0E4E3F0E080818C
:101050008F7D8083D5C0E4E3F0E080818F7B808347
:10106000CFC0E4E3F0E080818F778083C9C08C81BA
:10107000813009F063C08981282F30E038872F83C1
:101080008F81988583309105D9F12F81388524305F
:1010900031057CF48F8198858130910529F12F816C
:1010A00038852230310534F58F8198850097B1F06D
:1010B000A7C02F8138852530310571F18F81988542
:1010C000853091051CF12F8138852630310551F18D
:1010D0008F8198858730910559F192C0E1E3F0E066
:1010E0008081816080838CC0E1E3F0E08081826058
:1010F000808386C0E1E3F0E080818460808380C0EB
:10110000E1E3F0E08081886080837AC0E1E3F0E091
:1011100080818061808374C0E1E3F0E0808180623F
:1011200080836EC0E1E3F0E080818064808368C0EA
:10113000E1E3F0E080818068808362C08981282FAC
:1011400030E03E832D838D819E8183309105D9F1DE
:101150002D813E81243031057CF48D819E8181304A
:10116000910529F12D813E812230310534F58D81A3
:101170009E810097B1F044C02D813E81253031051C
:1011800071F18D819E81853091051CF12D813E810B
:101190002630310551F18D819E818730910559F1BD
:1011A0002FC0E1E3F0E080818E7F808329C0E1E3FE
:1011B000F0E080818D7F808323C0E1E3F0E08081D7
:1011C0008B7F80831DC0E1E3F0E08081877F808397
:1011D00017C0E1E3F0E080818F7E808311C0E1E3FE
:1011E000F0E080818F7D80830BC0E1E3F0E08081BF
:1011F0008F7B808305C0E1E3F0E080818F7780837F
:1012000066960FB6F894DEBF0FBECDBFCF91DF91CB
:101210000895DF93CF93CDB7DEB766970FB6F894F6
:10122000DEBF0FBECDBF8B836C838B818695869589
:1012300086958A838B81877089838A81282F30E005
:101240003E8B2D8B8D899E898130910509F4E1C0FB
:101250002D893E89223031052CF48D899E89009795
:1012600071F034C32D893E892230310509F49BC1C8
:101270008D899E898330910509F45FC227C38C81D3
:10128000813009F063C08981282F30E03C8B2B8BA3
:101290008B899C8983309105D9F12B893C89243035
:1012A00031057CF48B899C898130910529F12B894A
:1012B0003C892230310534F58B899C890097B1F047
:1012C00005C32B893C892530310571F18B899C89B7
:1012D000853091051CF12B893C892630310551F16F
:1012E0008B899C898730910559F1F0C2EBE3F0E0DE
:1012F000808181608083EAC2EBE3F0E080818260DC
:101300008083E4C2EBE3F0E0808184608083DEC20E
:10131000EBE3F0E0808188608083D8C2EBE3F0E00B
:10132000808180618083D2C2EBE3F0E080818062C3
:101330008083CCC2EBE3F0E0808180648083C6C20E
:10134000EBE3F0E0808180688083C0C28981282F30
:1013500030E03A8B298B89899A8983309105D9F1BC
:1013600029893A89243031057CF489899A89813028
:10137000910529F129893A892230310534F5898985
:101380009A890097B1F0A2C229893A89253031059E
:1013900071F189899A89853091051CF129893A89E9
:1013A0002630310551F189899A898730910559F1A3
:1013B0008DC2EBE3F0E080818E7F808387C2EBE318
:1013C000F0E080818D7F808381C2EBE3F0E080815B
:1013D0008B7F80837BC2EBE3F0E08081877F80831B
:1013E00075C2EBE3F0E080818F7E80836FC2EBE318
:1013F000F0E080818F7D808369C2EBE3F0E0808143
:101400008F7B808363C2EBE3F0E080818F77808302
:101410005DC28C81813009F063C08981282F30E062
:10142000388B2F878F85988983309105D9F12F8547
:101430003889243031057CF48F8598898130910575
:1014400029F12F8538892230310534F58F85988927
:101450000097B1F03BC22F8538892530310571F1F5
:101460008F859889853091051CF12F853889263024
:10147000310551F18F8598898730910559F126C240
:10148000E8E3F0E080818160808320C2E8E3F0E05F
:101490008081826080831AC2E8E3F0E0808184600A
:1014A000808314C2E8E3F0E08081886080830EC20C
:1014B000E8E3F0E080818061808308C2E8E3F0E047
:1014C00080818062808302C2E8E3F0E080818064F2
:1014D0008083FCC1E8E3F0E0808180688083F6C10E
:1014E0008981282F30E03E872D878D859E8583302A
:1014F0009105D9F12D853E85243031057CF48D850B
:101500009E858130910529F12D853E85223031055A
:1015100034F58D859E850097B1F0D8C12D853E8527
:101520002530310571F18D859E85853091051CF141
:101530002D853E852630310551F18D859E8587307C
:10154000910559F1C3C1E8E3F0E080818E7F80838B
:10155000BDC1E8E3F0E080818D7F8083B7C1E8E31F
:10156000F0E080818B7F8083B1C1E8E3F0E080818F
:10157000877F8083ABC1E8E3F0E080818F7E80834A
:10158000A5C1E8E3F0E080818F7D80839FC1E8E31F
:10159000F0E080818F7B808399C1E8E3F0E0808177
:1015A0008F77808393C18C81813009F063C08981FA
:1015B000282F30E03C872B878B859C8583309105D5
:1015C000D9F12B853C85243031057CF48B859C85B5
:1015D0008130910529F12B853C852230310534F588
:1015E0008B859C850097B1F071C12B853C8525309A
:1015F000310571F18B859C85853091051CF12B851A
:101600003C852630310551F18B859C8587309105CD
:1016100059F15CC1E5E3F0E080818160808356C1CF
:10162000E5E3F0E080818260808350C1E5E3F0E093
:101630008081846080834AC1E5E3F0E08081886036
:10164000808344C1E5E3F0E08081806180833EC116
:10165000E5E3F0E080818062808338C1E5E3F0E07B
:1016600080818064808332C1E5E3F0E0808180681E
:1016700080832CC18981282F30E03A87298789858A
:101680009A8583309105D9F129853A852430310531
:101690007CF489859A858130910529F129853A85DF
:1016A0002230310534F589859A850097B1F00EC155
:1016B00029853A852530310571F189859A858530EE
:1016C00091051CF129853A852630310551F189852E
:1016D0009A858730910559F1F9C0E5E3F0E0808102
:1016E0008E7F8083F3C0E5E3F0E080818D7F80838F
:1016F000EDC0E5E3F0E080818B7F8083E7C0E5E328
:10170000F0E08081877F8083E1C0E5E3F0E08081C5
:101710008F7E8083DBC0E5E3F0E080818F7D808376
:10172000D5C0E5E3F0E080818F7B8083CFC0E5E327
:10173000F0E080818F778083C9C08C81813009F08F
:1017400063C08981282F30E038872F838F81988567
:1017500083309105D9F12F813885243031057CF40F
:101760008F8198858130910529F12F81388522302C
:10177000310534F58F8198850097B1F0A7C02F818E
:1017800038852530310571F18F8198858530910537
:101790001CF12F8138852630310551F18F819885D4
:1017A0008730910559F192C0E2E3F0E080818160D9
:1017B00080838CC0E2E3F0E080818260808386C019
:1017C000E2E3F0E080818460808380C0E2E3F0E0C7
:1017D0008081886080837AC0E2E3F0E0808180616C
:1017E000808374C0E2E3F0E08081806280836EC019
:1017F000E2E3F0E080818064808368C0E2E3F0E0AF
:1018000080818068808362C08981282F30E03E8398
:101810002D838D819E8183309105D9F12D813E816B
:10182000243031057CF48D819E818130910529F130
:101830002D813E812230310534F58D819E810097C6
:10184000B1F044C02D813E812530310571F18D818B
:101850009E81853091051CF12D813E812630310518
:1018600051F18D819E818730910559F12FC0E2E3BE
:10187000F0E080818E7F808329C0E2E3F0E0808108
:101880008D7F808323C0E2E3F0E080818B7F8083C3
:101890001DC0E2E3F0E08081877F808317C0E2E330
:1018A000F0E080818F7E808311C0E2E3F0E08081F0
:1018B0008F7D80830BC0E2E3F0E080818F7B8083AB
:1018C00005C0E2E3F0E080818F77808366960FB6F3
:1018D000F894DEBF0FBECDBFCF91DF910895DF93A7
:1018E000CF93CDB7DEB72F970FB6F894DEBF0FBEFC
:1018F000CDBF8F8780E060E00E94090981E060E051
:101900000E94090982E061E00E9409098F85982FF1
:10191000917088E1692F0E9409098F858695982F1B
:10192000917089E1692F0E9409098F8586958695B6
:10193000982F91708AE1692F0E9409098F858695F9
:1019400086958695982F91708BE1692F0E940909E1
:101950008F8582958F70982F91708CE1692F0E94EE
:1019600009098F85829586958770982F91708DE1F2
:10197000692F0E9409098F858295869586958370C7
:10198000982F91708EE1692F0E9409098F85982FF9
:10199000991F9927991F8FE1692F0E94090980E0FB
:1019A00090E0A0E0B0E48B879C87AD87BE876B8515
:1019B0007C858D859E8520E030E04AEF54E40E94CE
:1019C0001F02DC01CB018F839887A987BA876F81BB
:1019D000788589859A8520E030E040E85FE30E94C1
:1019E000790388232CF481E090E09E838D833FC0AF
:1019F0006F81788589859A8520E03FEF4FE757E42E
:101A00000E94190318164CF56B857C858D859E8583
:101A100020E030E040E251E40E941F02DC01CB01F3
:101A2000BC01CD010E944900DC01CB019E838D8366
:101A30000FC088EC90E09C838B838B819C81019705
:101A4000F1F79C838B838D819E8101979E838D838B
:101A50008D819E81009769F714C06F817885898593
:101A60009A850E944900DC01CB019E838D838D8184
:101A70009E819A83898389819A810197F1F79A835C
:101A8000898382E060E00E9409092F960FB6F894DE
:101A9000DEBF0FBECDBFCF91DF910895DF93CF930F
:101AA000CDB7DEB7AA970FB6F894DEBF0FBECDBF95
:101AB00080E061E00E94A30581E061E00E94A3054F
:101AC00082E061E00E94A30588E161E00E94A30535
:101AD00089E161E00E94A3058AE161E00E94A3051B
:101AE0008BE161E00E94A3058CE161E00E94A30507
:101AF0008DE161E00E94A3058EE161E00E94A305F3
:101B00008FE161E00E94A30588E30E946F0C80E0F2
:101B100090E0A0E0B0E48FA398A7A9A7BAA76FA10F
:101B200078A589A59AA520E030E04AEF54E40E9408
:101B30001F02DC01CB018BA39CA3ADA3BEA36BA1B1
:101B40007CA18DA19EA120E030E040E85FE30E94EF
:101B5000790388232CF481E090E09AA389A33FC005
:101B60006BA17CA18DA19EA120E03FEF4FE757E440
:101B70000E94190318164CF56FA178A589A59AA59E
:101B800020E030E040E251E40E941F02DC01CB0182
:101B9000BC01CD010E944900DC01CB019AA389A3BD
:101BA0000FC088EC90E098A38F8F8F8D98A101973C
:101BB000F1F798A38F8F89A19AA101979AA389A37E
:101BC00089A19AA1009769F714C06BA17CA18DA18E
:101BD0009EA10E944900DC01CB019AA389A389A19F
:101BE0009AA19E8F8D8F8D8D9E8D0197F1F79E8F7F
:101BF0008D8F8CE00E946F0C80E090E0A0E0B0E45C
:101C0000898F9A8FAB8FBC8F698D7A8D8B8D9C8DD0
:101C100020E030E04AEF54E40E941F02DC01CB01D7
:101C20008D8B9E8BAF8BB88F6D897E898F89988DB8
:101C300020E030E040E85FE30E94790388232CF441
:101C400081E090E09C8B8B8B3FC06D897E898F8972
:101C5000988D20E03FEF4FE757E40E9419031816D4
:101C60004CF5698D7A8D8B8D9C8D20E030E040E2C3
:101C700051E40E941F02DC01CB01BC01CD010E9496
:101C80004900DC01CB019C8B8B8B0FC088EC90E072
:101C90009A8B898B89899A890197F1F79A8B898B1D
:101CA0008B899C8901979C8B8B8B8B899C89009756
:101CB00069F714C06D897E898F89988D0E944900CB
:101CC000DC01CB019C8B8B8B8B899C89988B8F87BC
:101CD0008F8598890197F1F7988B8F8781E00E9413
:101CE0006F0C80E090E0A0E0B0E48B879C87AD872C
:101CF000BE876B857C858D859E8520E030E04AEF30
:101D000054E40E941F02DC01CB018F839887A987CE
:101D1000BA876F81788589859A8520E030E040E830
:101D20005FE30E94790388232CF481E090E09E8396
:101D30008D833FC06F81788589859A8520E03FEF4C
:101D40004FE757E40E94190318164CF56B857C8504
:101D50008D859E8520E030E040E251E40E941F0224
:101D6000DC01CB01BC01CD010E944900DC01CB01AB
:101D70009E838D830FC088EC90E09C838B838B8146
:101D80009C810197F1F79C838B838D819E810197C4
:101D90009E838D838D819E81009769F714C06F812A
:101DA000788589859A850E944900DC01CB019E8354
:101DB0008D838D819E819A83898389819A81019700
:101DC000F1F79A838983AA960FB6F894DEBF0FBE07
:101DD000CDBFCF91DF910895DF93CF93CDB7DEB71D
:101DE0002F970FB6F894DEBF0FBECDBF8F8780E070
:101DF00061E00E94090981E060E00E94090982E037
:101E000061E00E9409098F85982F917088E1692F00
:101E10000E9409098F858695982F917089E1692F15
:101E20000E9409098F8586958695982F91708AE181
:101E3000692F0E9409098F85869586958695982F2A
:101E400091708BE1692F0E9409098F8582958F70AF
:101E5000982F91708CE1692F0E9409098F858295D6
:101E600086958770982F91708DE1692F0E940909DE
:101E70008F858295869586958370982F91708EE1D7
:101E8000692F0E9409098F85982F991F9927991FFB
:101E90008FE1692F0E94090980E090E0A0E0B0E4A2
:101EA0008B879C87AD87BE876B857C858D859E855E
:101EB00020E030E04AEF54E40E941F02DC01CB0135
:101EC0008F839887A987BA876F81788589859A8556
:101ED00020E030E040E85FE30E94790388232CF49F
:101EE00081E090E09E838D833FC06F8178858985F6
:101EF0009A8520E03FEF4FE757E40E941903181638
:101F00004CF56B857C858D859E8520E030E040E238
:101F100051E40E941F02DC01CB01BC01CD010E94F3
:101F20004900DC01CB019E838D830FC088EC90E0DB
:101F30009C838B838B819C810197F1F79C838B839E
:101F40008D819E8101979E838D838D819E810097D7
:101F500069F714C06F81788589859A850E94490048
:101F6000DC01CB019E838D838D819E819A83898341
:101F700089819A810197F1F79A83898382E060E0F1
:101F80000E9409092F960FB6F894DEBF0FBECDBF91
:101F9000CF91DF910895DF93CF9300D0CDB7DEB717
:101FA0009A8389830AC0E981FA8180810E94EC0EBC
:101FB00089819A8101969A838983E981FA81808156
:101FC000882389F70F900F90CF91DF910895DF93C9
:101FD000CF9300D0CDB7DEB78BE090E00E942C13FA
:101FE0009A83898389819A81009749F0E981FA81EE
:101FF0001182108289819A8102960E94A813898198
:102000009A810F900F90CF91DF910895DF93CF9336
:10201000CDB7DEB760970FB6F894DEBF0FBECDBF69
:102020009A8789877C876B875E874D87388B2F8758
:1020300089859A859C838B8319820E946E2BEB8104
:10204000FC818081918198878F8389859A852B85F2
:102050003C85B9010E94DD112F8138858B859C85D7
:10206000282B392B8D859E85282339238D859E85A8
:1020700028173907C9F42F8138858B859C85822BD9
:10208000932B9E838D83EB81FC81208131818D8513
:102090009E858095909582239323EB81FC8191838B
:1020A0008083188A1F861EC08F859889009791F0BB
:1020B0008B819C81BC016E5F7F4F8D859E859C01CD
:1020C00035604F855889CB01B9010E94DE2D1E82F3
:1020D0001D8208C0EB81FC81808191819E838D836C
:1020E00081E089830E947A2B8A838F859889009763
:1020F00009F43AC08A81882311F40E9446170E948D
:1021000051309E838D838D819E8180709270009767
:1021100031F50FB6F8940F92EB81FC8180819181AB
:102120009E838D832D813E818D859E852823392335
:102130008D859E852817390771F4EB81FC812081FC
:1021400031818D859E858095909582239323EB81A7
:10215000FC81918380830F900FBE81E089838D8104
:102160009E8190709E838D838D819E8160960FB637
:10217000F894DEBF0FBECDBFCF91DF9108950F93CE
:102180001F93DF93CF93CDB7DEB763970FB6F89465
:10219000DEBF0FBECDBF9D878C877F876E87488B44
:1021A000298B1B8B0A8B8C859D859B878A871F8239
:1021B0001E821B820E946E2BEA85FB8580819181A5
:1021C0009A83898389819A812E853F85B9014989BE
:1021D0000E94FA128D838D818823C1F089819A81B2
:1021E000998788871B8A1A8A88898823E9F1EA8572
:1021F000FB85208131818E859F85809590958223F6
:102200009323EA85FB85918380832EC08A899B89ED
:10221000009739F489819A819987888781E08B8337
:1022200023C08889882329F08E819F8191609F83B4
:102230008E838989882329F08E819F8194609F8372
:102240008E838A859B85BC016E5F7F4F2E853F857F
:102250008E819F81282B392B4A895B89CB01B9015B
:102260000E94DE2D198618860E947A2B8C838A891B
:102270009B89009709F43CC08C81882311F40E944B
:1022800046170E9451309987888788859985807084
:102290009270009741F50FB6F8940F92EA85FB858E
:1022A0008081918199878887888599852E853F854A
:1022B000B90149890E94FA12882389F08889882304
:1022C00071F0EA85FB85208131818E859F8580951F
:1022D000909582239323EA85FB859183808381E017
:1022E0008B830F900FBE888599859070998788871A
:1022F0008885998563960FB6F894DEBF0FBECDBF73
:10230000CF91DF911F910F910895DF93CF93CDB7B8
:10231000DEB728970FB6F894DEBF0FBECDBF9E8301
:102320008D8378876F838D819E819C838B830FB68D
:10233000F8940F92EB81FC81808191819A8389834B
:10234000EB81FC81208131818F81988580959095EA
:1023500082239323EB81FC81918380830F900FBEB6
:1023600089819A8128960FB6F894DEBF0FBECDBF43
:10237000CF91DF910895DF93CF93CDB7DEB7279745
:102380000FB6F894DEBF0FBECDBF9F838E838E81C4
:102390009F819C838B831D82EB81FC818081918155
:1023A0009A83898389819A8127960FB6F894DEBF34
:1023B0000FBECDBFCF91DF910895DF93CF93CDB7FF
:1023C000DEB765970FB6F894DEBF0FBECDBF9B8B0F
:1023D0008A8B7D8B6C8B198618868A899B899B8357
:1023E0008A8319828A819B8102969B878A878A8544
:1023F0009B8503969D878C870E946E2BEA85FB85C3
:1024000085819681998B888BEA81FB81208131813E
:102410008C899D89822B932BEA81FB819183808318
:1024200059C0E889F989828193819F878E87E889DD
:10243000F989808191819F838E8319828E819F810A
:1024400080709D838C838E819F8190709F838E830B
:102450008C819D8180709470009769F4EA81FB8182
:10246000208131818E819F8182239323009791F077
:1024700081E089830FC0EA81FB81208131818E81D7
:102480009F81282339238E819F812817390711F4D2
:1024900081E0898389818823C9F08C819D81807046
:1024A0009170009741F0888599852E813F81822B1C
:1024B000932B99878887EA81FB81808191819C0198
:1024C000326088899989B9010E94792E8E859F850D
:1024D000998B888B288939898C859D8528173907A0
:1024E00009F09FCFEA81FB81208131818885998520
:1024F0008095909582239323EA81FB819183808349
:102500000E947A2BEA81FB818081918165960FB6CA
:10251000F894DEBF0FBECDBFCF91DF910895DF935A
:10252000CF9300D000D000D0CDB7DEB79E838D838F
:102530008D819E819C838B838B819C8102969A8363
:1025400089830E946E2B08C0E981FA81858196817A
:1025500060E072E00E94792EE981FA81808188230F
:1025600099F78B819C810E9482130E947A2B269678
:102570000FB6F894DEBF0FBECDBFCF91DF910895A7
:10258000DF93CF9300D000D000D0CDB7DEB79A83D1
:1025900089834B835C836D837E8389819A812B81C0
:1025A0003C81B9010E94DD1126960FB6F894DEBF7A
:1025B0000FBECDBFCF91DF910895DF93CF9300D0B1
:1025C00000D000D0CDB7DEB79A8389834B835C837C
:1025D0006D837E8389819A812B813C81B9010E9420
:1025E000851126960FB6F894DEBF0FBECDBFCF91F2
:1025F000DF910895DF93CF9300D000D000D0CDB706
:10260000DEB79B838A837D836C834E8319828E81A0
:10261000882359F48A819B812C813D8182239323D5
:10262000009781F081E089830DC02A813B818C81F4
:102630009D81282339238C819D812817390711F426
:1026400081E08983898126960FB6F894DEBF0FBE9C
:10265000CDBFCF91DF910895DF93CF9300D000D00D
:10266000CDB7DEB79C838B831A8219820E946E2BB2
:1026700080919E0090919F00009731F481EA90E054
:1026800090939F0080939E0080919C0090919D006C
:102690002B813C81820F931F25E08B3D920738F5FB
:1026A00020919C0030919D008B819C81280F391FC7
:1026B00080919C0090919D0082179307C0F4209117
:1026C0009E0030919F0080919C0090919D00820F10
:1026D000931F9A83898320919C0030919D008B8168
:1026E0009C81820F931F90939D0080939C000E9479
:1026F0007A2B89819A810F900F900F900F90CF9134
:10270000DF910895DF93CF9300D0CDB7DEB79A83E2
:1027100089830F900F90CF91DF910895DF93CF932E
:10272000CDB7DEB710929D0010929C00CF91DF9143
:102730000895DF93CF93CDB7DEB720919C00309101
:102740009D008BED95E0821B930BCF91DF91089557
:10275000DF93CF9300D0CDB7DEB79A838983898189
:102760009A810396E981FA8192838183E981FA81D2
:102770008FEF9FEF9483838389819A810396E98108
:10278000FA819683858389819A810396E981FA810A
:1027900090878783E981FA8110820F900F90CF9103
:1027A000DF910895DF93CF9300D0CDB7DEB79A8342
:1027B0008983E981FA81118610860F900F90CF915D
:1027C000DF910895DF93CF9300D000D000D0CDB734
:1027D000DEB79C838B837E836D83EB81FC8181815B
:1027E00092819A838983ED81FE8189819A81938385
:1027F0008283E981FA8184819581ED81FE819583CF
:102800008483E981FA810480F581E02D8D819E81A8
:1028100093838283E981FA818D819E81958384836C
:10282000ED81FE818B819C8191878087EB81FC818A
:1028300080818F5FEB81FC81808326960FB6F894B0
:10284000DEBF0FBECDBFCF91DF910895DF93CF9351
:10285000CDB7DEB728970FB6F894DEBF0FBECDBF59
:102860009E838D8378876F83EF81F8858081918146
:102870009A83898389819A812FEF8F3F920739F458
:10288000ED81FE81878190859C838B8318C08D812B
:102890009E8103969C838B8306C0EB81FC818281A1
:1028A00093819C838B83EB81FC810280F381E02DFB
:1028B0002081318189819A818217930770F7EB819A
:1028C000FC8182819381EF81F88593838283EF81FC
:1028D000F8850280F381E02D8F819885958384832C
:1028E000EF81F8858B819C8195838483EB81FC81CA
:1028F0008F81988593838283EF81F8858D819E8176
:1029000091878087ED81FE8180818F5FED81FE81DF
:10291000808328960FB6F894DEBF0FBECDBFCF914F
:10292000DF910895DF93CF9300D000D0CDB7DEB70D
:102930009C838B83EB81FC81808591859A8389833D
:10294000EB81FC81A281B381EB81FC818481958143
:1029500015969C938E931497EB81FC81A481B5818D
:10296000EB81FC818281938113969C938E931297C5
:10297000E981FA81218132818B819C812817390775
:1029800041F4EB81FC8184819581E981FA81928314
:102990008183EB81FC8111861086E981FA81808137
:1029A0008150E981FA818083E981FA8180810F90E9
:1029B0000F900F900F90CF91DF910895EF92FF92BB
:1029C0000F93DF93CF93CDB7DEB70E944E0D81E01A
:1029D00060E043E00E94E1189093E3068093E206F2
:1029E0008091E2069091E306009759F08091E2060B
:1029F0009091E30660E070E040E050E020E00E944B
:102A00006D1987E295E120E630E0B90148EC50E02D
:102A100020E030E002E0EE24FF240E94112787E549
:102A200095E127E630E0B90148EC50E020E030E0E5
:102A300002E0EE24FF240E9411270E94302B80E048
:102A400090E0CF91DF910F91FF90EF900895DF9389
:102A5000CF9300D00F92CDB7DEB79B838A831982C4
:102A60008091E2069091E3066FEF7FEF0E946D1B6D
:102A700089838981813059F481E00E946F0C8EE650
:102A800090E00E94CB0F88EE93E00E94A1298091F4
:102A9000E2069091E30660E070E040E050E020E064
:102AA0000E946D1988EE93E00E94A129D9CFDF938F
:102AB000CF9300D00F92CDB7DEB79B838A83198264
:102AC0008091E2069091E3066FEF7FEF0E946D1B0D
:102AD00089838981813059F481E00E946F0C8EE7EF
:102AE00090E00E94CB0F88EE93E00E94A129809194
:102AF000E2069091E30660E070E040E050E020E004
:102B00000E946D1988EE93E00E94A129D9CFDF932E
:102B1000CF93CDB7DEB728970FB6F894DEBF0FBEC0
:102B2000CDBF9C838B837E836D8358874F83EB81DE
:102B3000FC8181E180838B819C8101979C838B83C5
:102B4000EB81FC8182E280838B819C8101979C8355
:102B50008B83EB81FC8183E380838B819C81019754
:102B60009C838B838D819E819A8389838981EB816C
:102B7000FC8180838B819C8101979C838B838981DD
:102B80009A81892F99279A8389838981EB81FC8196
:102B900080838B819C8101979C838B83EB81FC815B
:102BA00010828B819C8101979C838B83EB81FC81BC
:102BB00080E880838B819C8101979C838B83EB8150
:102BC000FC8110828B819C8101979C838B83EB819C
:102BD000FC8182E080838B819C8101979C838B8325
:102BE000EB81FC8183E080838B819C8101979C83B6
:102BF0008B83EB81FC8184E080838B819C810197B6
:102C00009C838B83EB81FC8185E080838B819C811D
:102C100001979C838B83EB81FC8186E080838B8191
:102C20009C8101979C838B83EB81FC8187E080836F
:102C30008B819C8101979C838B83EB81FC8188E055
:102C400080838B819C8101979C838B83EB81FC81AA
:102C500089E080838B819C8101979C838B83EB81AE
:102C6000FC8180E180838B819C8101979C838B8395
:102C7000EB81FC8181E180838B819C8101979C8326
:102C80008B83EB81FC8182E180838B819C81019726
:102C90009C838B83EB81FC8183E180838B819C818E
:102CA00001979C838B83EB81FC8184E180838B8102
:102CB0009C8101979C838B83EB81FC8185E18083E0
:102CC0008B819C8101979C838B83EB81FC8186E1C6
:102CD00080838B819C8101979C838B83EB81FC811A
:102CE00087E180838B819C8101979C838B83EB811F
:102CF000FC8188E180838B819C8101979C838B83FD
:102D0000EB81FC8189E180838B819C8101979C838D
:102D10008B83EB81FC8180E280838B819C81019796
:102D20009C838B83EB81FC8181E280838B819C81FE
:102D300001979C838B83EB81FC8182E280838B8172
:102D40009C8101979C838B83EB81FC8183E2808350
:102D50008B819C8101979C838B838F8198859A833B
:102D600089838981EB81FC8180838B819C810197A0
:102D70009C838B8389819A81892F99279A83898360
:102D80008981EB81FC8180838B819C8101979C836D
:102D90008B83EB81FC8186E280838B819C81019710
:102DA0009C838B83EB81FC8187E280838B819C8178
:102DB00001979C838B83EB81FC8188E280838B81EC
:102DC0009C8101979C838B83EB81FC8189E28083CA
:102DD0008B819C8101979C838B83EB81FC8180E3B9
:102DE00080838B819C8101979C838B83EB81FC8109
:102DF00081E380838B819C8101979C838B838B8172
:102E00009C8128960FB6F894DEBF0FBECDBFCF9140
:102E1000DF910895DF93CF93CDB7DEB70E94FC1703
:102E2000A0917C06B0917D06CD91CDBFDD91DEBF36
:102E3000FF91EF91DF91CF91BF91AF919F918F91D2
:102E40007F916F915F914F913F912F911F910F91C2
:102E5000FF90EF90DF90CF90BF90AF909F908F90BA
:102E60007F906F905F904F903F902F901F900F90AA
:102E70000FBE0F90089581E0CF91DF910895DF9309
:102E8000CF93CDB7DEB7CF91DF9108950F920FB6F4
:102E9000F8940F921F9211242F923F924F925F92BB
:102EA0006F927F928F929F92AF92BF92CF92DF925A
:102EB000EF92FF920F931F932F933F934F935F9344
:102EC0006F937F938F939F93AF93BF93CF93DF9332
:102ED000EF93FF93A0917C06B0917D060DB60D9205
:102EE0000EB60D920E944F2DA0917C06B0917D06EA
:102EF000CD91CDBFDD91DEBFFF91EF91DF91CF91FD
:102F0000BF91AF919F918F917F916F915F914F9101
:102F10003F912F911F910F91FF90EF90DF90CF90F5
:102F2000BF90AF909F908F907F906F905F904F90E9
:102F30003F902F901F900F900FBE0F9008950F920B
:102F40000FB6F8940F921F9211242F923F924F9236
:102F50005F926F927F928F929F92AF92BF92CF9229
:102F6000DF92EF92FF920F931F932F933F934F9314
:102F70005F936F937F938F939F93AF93BF93CF9301
:102F8000DF93EF93FF93A0917C06B0917D060DB681
:102F90000D920EB60D920E946A2C882311F00E94A9
:102FA0004F2DA0917C06B0917D06CD91CDBFDD91D6
:102FB000DEBFFF91EF91DF91CF91BF91AF919F91D4
:102FC0008F917F916F915F914F913F912F911F91C1
:102FD0000F91FF90EF90DF90CF90BF90AF909F90B8
:102FE0008F907F906F905F904F903F902F901F90A9
:102FF0000F900FBE0F900895DF93CF9300D000D0B5
:1030000000D0CDB7DEB780E49FE1A0E0B0E08B83D5
:103010009C83AD83BE838B819C81AD81BE8168948E
:1030200015F8B695A795979587951694D1F78B8344
:103030009C83AD83BE838B819C81AD81BE810197D2
:10304000A109B1098B839C83AD83BE838B81898366
:103050008B819C81AD81BE81892F9A2FAB2FBB279D
:103060008B839C83AD83BE838B818A83EBE4F0E00A
:103070008A818083EAE4F0E0898180838BE0898320
:10308000EEE4F0E089818083E9E5F0E080818983E6
:10309000898180618983E9E5F0E0898180832696D2
:1030A0000FB6F894DEBF0FBECDBFCF91DF9108956C
:1030B0000E949F171895DF93CF9300D000D00F92F6
:1030C000CDB7DEB79C838B836D838B819C819A8384
:1030D00089830FB6F8940F92E981FA81408151817A
:1030E000E981FA81838D282F30E0E981FA81848D8E
:1030F000882F90E0BC01269FC001279F900D369F2E
:10310000900D1124840F951FE981FA8195838483A2
:10311000E981FA81128EE981FA8180819181E981C8
:10312000FA8193838283E981FA8140815181E98127
:10313000FA81838D882F90E09C0121503040E981F5
:10314000FA81848D882F90E0BC01269FC001279FC3
:10315000900D369F900D1124840F951FE981FA81FF
:1031600097838683E981FA818FEF858FE981FA81E0
:103170008FEF868F8D81882379F4E981FA818085AC
:103180008823A1F089819A8108960E940E2E8823B7
:1031900069F00E9446170AC089819A8108960E94A8
:1031A000A81389819A8141960E94A8130F900FBE9F
:1031B00081E00F900F900F900F900F90CF91DF91C3
:1031C00008950F931F93DF93CF93CDB7DEB7299761
:1031D0000FB6F894DEBF0FBECDBF8F8368874987D7
:1031E0008885882319F41C821B8210C08F81282FA8
:1031F00030E08885882F90E0AC01249FC001259F96
:10320000900D349F900D11249C838B838B819C8126
:103210004F960E942C139E838D838D819E810097F3
:10322000A1F08D819E819A83898389819A814F96AD
:103230009A83898329813A81ED81FE818F81688516
:10324000A90129858F010E9432198D819E812996BD
:103250000FB6F894DEBF0FBECDBFCF91DF911F91A7
:103260000F9108950F931F93DF93CF93CDB7DEB7E0
:1032700027970FB6F894DEBF0FBECDBF89836A8350
:103280005C834B832D831F830E838A81882339F4CB
:103290008E819F81EE81FF819183808306C08B8127
:1032A0009C81EE81FF8191838083EE81FF81898102
:1032B000838FEE81FF818A81848F8E819F8161E07F
:1032C0000E945B1827960FB6F894DEBF0FBECDBFE5
:1032D000CF91DF911F910F910895DF93CF93CDB7D9
:1032E000DEB72F970FB6F894DEBF0FBECDBF99871C
:1032F00088877B876A875D874C872E871C828885B5
:1033000099859A8389830FB6F8940F92E981FA819F
:10331000928DE981FA81838D981718F08E8582301D
:1033200011F589819A812A853B85B9014E850E94D4
:10333000BF1D8B83E981FA818189882351F08981BE
:103340009A8141960E940E2E882341F00E944617D2
:1033500005C08B81882311F00E9446170F900FBE85
:1033600081E08F875CC08C859D85009721F40F904C
:103370000FBE1F8654C08C81882331F4CE01059680
:103380000E94F42E81E08C830F900FBE0E946E2B62
:103390000FB6F8940F92E981FA81858D8F3F19F469
:1033A000E981FA81158EE981FA81868D8F3F19F4C2
:1033B000E981FA81168E0F900FBECE0105969E010F
:1033C000245F3F4FB9010E940D2F882309F58981A1
:1033D0009A810E943B1F8823A1F089819A810896D7
:1033E0002C853D85B9010E94BC2D89819A810E945E
:1033F000AC1E0E947A2B882309F085CF0E944617C5
:1034000082CF89819A810E94AC1E0E947A2B7BCF49
:1034100089819A810E94AC1E0E947A2B1F868F851B
:103420002F960FB6F894DEBF0FBECDBFCF91DF91C0
:103430000895DF93CF93CDB7DEB72C970FB6F894EE
:10344000DEBF0FBECDBF9F838E83798768875B8782
:103450004A872C878E819F819B838A831C82EA8185
:10346000FB81928DEA81FB81838D981718F08C8502
:10347000823061F5EA81FB81868D89838A819B8117
:1034800028853985B9014C850E94BF1D89818F3FF0
:10349000A9F4EA81FB8181898823A9F08A819B8133
:1034A00041960E940E2E882371F08A859B85009795
:1034B00051F0EA85FB8581E0808305C089818F5FBB
:1034C000EA81FB81868F81E08D8301C01D828D8121
:1034D0002C960FB6F894DEBF0FBECDBFCF91DF9113
:1034E0000895DF93CF93CDB7DEB72A970FB6F89440
:1034F000DEBF0FBECDBF98878F837A8769878F81A4
:1035000098859C838B831D82EB81FC81828D8A83CD
:10351000EB81FC81938D8A81891748F5EB81FC81D1
:10352000868D89838A818F5FEB81FC81828F89817F
:103530008F3FA9F4EB81FC8181898823A9F08B81DD
:103540009C8141960E940E2E882371F089859A8570
:10355000009751F0E985FA8581E0808305C0898173
:103560008F5FEB81FC81868F81E08E8301C01E829C
:103570008E812A960FB6F894DEBF0FBECDBFCF91D5
:10358000DF910895DF93CF93CDB7DEB72E970FB6B7
:10359000F894DEBF0FBECDBF998788877B876A8787
:1035A0005D874C871C82888599859B838A830FB6AB
:1035B000F8940F92EA81FB81828D89838981882327
:1035C000F9F08A819B812A853B85B9010E94651E9D
:1035D00089818150EA81FB81828FEA81FB8180852C
:1035E000882349F08A819B8108960E940E2E8823A9
:1035F00011F00E9446170F900FBE81E08E8763C0C6
:103600008C859D85009721F40F900FBE1E865BC0B0
:103610008C81882331F4CE0105960E94F42E81E03E
:103620008C830F900FBE0E946E2B0FB6F8940F92F2
:10363000EA81FB81858D8F3F19F4EA81FB81158E2C
:10364000EA81FB81868D8F3F19F4EA81FB81168E1A
:103650000F900FBECE0105969E01245F3F4FB9012A
:103660000E940D2F882309F58A819B810E94FF1EED
:103670008823A1F08A819B8141962C853D85B901E3
:103680000E94BC2D8A819B810E94AC1E0E947A2BD5
:10369000882309F08CCF0E94461789CF8A819B81AD
:1036A0000E94AC1E0E947A2B82CF8A819B810E944D
:1036B000AC1E0E947A2B8A819B810E94FF1E882368
:1036C00009F475CF1E868E852E960FB6F894DEBF50
:1036D0000FBECDBFCF91DF910895DF93CF93CDB7CC
:1036E000DEB72C970FB6F894DEBF0FBECDBF99871B
:1036F00088877B876A871C82888599859B838A83D4
:103700000FB6F8940F92EA81FB81828D89838981BB
:103710008823C1F089818150EA81FB81828FEA810F
:10372000FB818085882349F08A819B8108960E94CD
:103730000E2E882311F00E9446170F900FBE81E0D5
:103740008C8763C08A859B85009721F40F900FBEFC
:103750001C865BC08C81882331F4CE0105960E94C3
:10376000F42E81E08C830F900FBE0E946E2B0FB65B
:10377000F8940F92EA81FB81858D8F3F19F4EA81DD
:10378000FB81158EEA81FB81868D8F3F19F4EA81DA
:10379000FB81168E0F900FBECE0105969E01265F0F
:1037A0003F4FB9010E940D2F882309F58A819B8123
:1037B0000E94FF1E8823A1F08A819B8141962A8561
:1037C0003B85B9010E94BC2D8A819B810E94AC1E61
:1037D0000E947A2B882309F093CF0E94461790CF3E
:1037E0008A819B810E94AC1E0E947A2B89CF8A819C
:1037F0009B810E94AC1E0E947A2B8A819B810E9431
:10380000FF1E882309F47CCF1C868C852C960FB66E
:10381000F894DEBF0FBECDBFCF91DF910895DF9347
:10382000CF93CDB7DEB760970FB6F894DEBF0FBE6B
:10383000CDBF9B878A877D876C875F874E871E8277
:103840008A859B859B838A830FB6F8940F92EA81C1
:10385000FB81828D89838981882331F1EA81FB8113
:10386000868197819D838C838A819B812C853D8570
:10387000B9010E94651EEA81FB818C819D8197833D
:103880008683EA81FB818189882349F08A819B8133
:1038900041960E940E2E882311F00E9446170F9029
:1038A0000FBE81E0888B63C08E859F85009721F4D1
:1038B0000F900FBE188A5BC08E81882331F4CE0131
:1038C00007960E94F42E81E08E830F900FBE0E9417
:1038D0006E2B0FB6F8940F92EA81FB81858D8F3F96
:1038E00019F4EA81FB81158EEA81FB81868D8F3F79
:1038F00019F4EA81FB81168E0F900FBECE01079658
:103900009E01225F3F4FB9010E940D2F882309F5C8
:103910008A819B810E94FF1E8823A1F08A819B815E
:1039200041962E853F85B9010E94BC2D8A819B81DD
:103930000E94AC1E0E947A2B882309F085CF0E943A
:10394000461782CF8A819B810E94AC1E0E947A2BEF
:103950007BCF8A819B810E94AC1E0E947A2B8A8138
:103960009B810E94FF1E882309F46ECF188A8889E4
:1039700060960FB6F894DEBF0FBECDBFCF91DF913A
:103980000895DF93CF93CDB7DEB72C970FB6F89499
:10399000DEBF0FBECDBF98878F837A8769875C872C
:1039A0004B878F8198859C838B831D82EB81FC8163
:1039B000828D8A838A81882381F1EB81FC81858DC8
:1039C00089838B819C8129853A85B9010E94651E76
:1039D0008A818150EB81FC81828F89818F3FA9F49C
:1039E000EB81FC8180858823A9F08B819C810896DE
:1039F0000E940E2E882371F08B859C85009751F0D4
:103A0000EB85FC8581E0808305C089818F5FEB8138
:103A1000FC81858F81E08E8301C01E828E812C9671
:103A20000FB6F894DEBF0FBECDBFCF91DF910895E2
:103A3000DF93CF93CDB7DEB72A970FB6F894DEBFEA
:103A40000FBECDBF98878F837A8769878F819885CE
:103A50009A8389831D82E981FA81828D8823B1F05E
:103A6000E981FA81868197819C838B8389819A8100
:103A700029853A85B9010E94651EE981FA818B8109
:103A80009C819783868381E08E8301C01E828E8114
:103A90002A960FB6F894DEBF0FBECDBFCF91DF914F
:103AA0000895DF93CF9300D00F92CDB7DEB79B83FD
:103AB0008A830FB6F8940F92EA81FB81828D898305
:103AC0000F900FBE89810F900F900F90CF91DF91D3
:103AD0000895DF93CF9300D000D00F92CDB7DEB71B
:103AE0009D838C838C819D819A8389830FB6F89402
:103AF0000F92E981FA81938DE981FA81828D292FD4
:103B0000281B822F8B830F900FBE8B810F900F90FD
:103B10000F900F900F90CF91DF910895DF93CF9387
:103B200000D000D00F92CDB7DEB79D838C838C81FF
:103B30009D819A838983E981FA81828D8B838B8130
:103B40000F900F900F900F900F90CF91DF910895ED
:103B5000DF93CF9300D000D0CDB7DEB79C838B83AB
:103B60008B819C819A83898389819A810E948213A7
:103B70000F900F900F900F90CF91DF910895DF93EA
:103B8000CF93CDB7DEB727970FB6F894DEBF0FBE41
:103B9000CDBF9C838B837E836D834F831A82EB81A1
:103BA000FC81828D8983EB81FC81848D882309F4DB
:103BB0007DC08F81882399F5EB81FC8162817381BF
:103BC000EB81FC81848D482F50E02D813E81CB011B
:103BD000B9010E94D334EB81FC8122813381EB81D6
:103BE000FC81848D882F90E0820F931FEB81FC81F4
:103BF00093838283EB81FC8122813381EB81FC8181
:103C0000848195812817390708F450C0EB81FC8125
:103C100080819181EB81FC819383828347C0EB811A
:103C2000FC8166817781EB81FC81848D482F50E097
:103C30002D813E81CB01B9010E94D334EB81FC81FF
:103C400026813781EB81FC81848D882F90E09095CF
:103C500081959F4F820F931FEB81FC819783868311
:103C6000EB81FC8126813781EB81FC818081918110
:103C70002817390790F4EB81FC8124813581EB8191
:103C8000FC81848D882F90E0909581959F4F820FC5
:103C9000931FEB81FC81978386838F81823031F47F
:103CA0008981882319F089818150898389818F5F77
:103CB000EB81FC81828F8A8127960FB6F894DEBF54
:103CC0000FBECDBFCF91DF910895DF93CF9300D08A
:103CD00000D0CDB7DEB79A8389837C836B83E9817B
:103CE000FA81848D882389F1E981FA8126813781DF
:103CF000E981FA81848D882F90E0820F931FE981FA
:103D0000FA8197838683E981FA8126813781E98167
:103D1000FA81848195812817390740F0E981FA8179
:103D200080819181E981FA8197838683E981FA8193
:103D300046815781E981FA81848D282F30E08B817B
:103D40009C81BA01A9010E94D3340F900F900F906B
:103D50000F90CF91DF910895DF93CF9300D000D0E3
:103D6000CDB7DEB79C838B830FB6F8940F92EB81AF
:103D7000FC81868D8A8311C0EB81FC818189882337
:103D800079F08B819C8141960E940E2E882311F040
:103D90000E947A2F8A8181508A838A81181664F35F
:103DA000EB81FC818FEF868F0F900FBE0FB6F894DA
:103DB0000F92EB81FC81858D898311C0EB81FC81A1
:103DC0008085882379F08B819C8108960E940E2E35
:103DD000882311F00E947A2F8981815089838981FB
:103DE000181664F3EB81FC818FEF858F0F900FBE67
:103DF0000F900F900F900F90CF91DF910895DF9368
:103E0000CF9300D00F92CDB7DEB79B838A830FB6D6
:103E1000F8940F92EA81FB81828D882319F481E066
:103E2000898301C019820F900FBE89810F900F9076
:103E30000F90CF91DF910895DF93CF9300D000D002
:103E40000F92CDB7DEB79D838C838C819D819A8341
:103E50008983E981FA81828D882319F481E08B833B
:103E600001C01B828B810F900F900F900F900F90CD
:103E7000CF91DF910895DF93CF9300D00F92CDB70C
:103E8000DEB79B838A830FB6F8940F92EA81FB8199
:103E9000928DEA81FB81838D981719F481E08983E3
:103EA00001C019820F900FBE89810F900F900F9063
:103EB000CF91DF910895DF93CF9300D000D00F9280
:103EC000CDB7DEB79D838C838C819D819A83898356
:103ED000E981FA81928DE981FA81838D981719F42D
:103EE00081E08B8301C01B828B810F900F900F901C
:103EF0000F900F90CF91DF9108950F93DF93CF93A1
:103F0000CDB7DEB728970FB6F894DEBF0FBECDBF92
:103F10009D838C837F836E8348878885813019F4E5
:103F200081E0898301C019828E819F81009721F4ED
:103F300081E090E09F838E838C819D8101969D839B
:103F40008C838C819D810F960E942C139B838A8386
:103F50008A819B81009789F06A817B818A819B811C
:103F60009C01215F3F4F4C815D81EE81FF81CB0140
:103F7000B9019F0109810E94D5268A819B812896DB
:103F80000FB6F894DEBF0FBECDBFCF91DF910F917A
:103F90000895DF93CF9300D000D0CDB7DEB79C83D8
:103FA0008B838B819C819A838983E981FA818685C1
:103FB000882F90E082709070009729F489819A810F
:103FC0000E94821308C089819A8160E070E04FE00E
:103FD00050E00E94DC340F900F900F900F90CF9123
:103FE000DF9108950F93DF93CF9300D000D00F920D
:103FF000CDB7DEB79D838C838C819D819B838A8323
:1040000019820FB6F8940F92EA81FB818085918521
:104010000097F1F4EA81FB81828593850097C1F4D2
:10402000EA81FB8124853585EA81FB8144815581C4
:10403000EA81FB81A681B781EA81FB81E6858A81DD
:104040009B81B9019D010E2F0E94D52681E08983B5
:104050000F900FBE89810F900F900F900F900F90CF
:10406000CF91DF910F910895DF93CF93CDB7DEB756
:1040700027970FB6F894DEBF0FBECDBF9D838C830C
:104080007F836E838C819D819B838A838E819F81B8
:10409000009721F481E090E09F838E83EA81FB8189
:1040A000248135818E819F812817390748F0EA8164
:1040B000FB818E819F819783868381E0898301C004
:1040C0001982898127960FB6F894DEBF0FBECDBF47
:1040D000CF91DF910895DF93CF9300D000D000D02F
:1040E000CDB7DEB79E838D838D819E819C838B832C
:1040F000EB81FC8124813581EB81FC818081918180
:10410000820F931F9A838983EB81FC812281338103
:1041100089819A81821B930B9A83898389819A81F1
:1041200001979A838983EB81FC8124813581898180
:104130009A818217930750F0EB81FC8124813581AD
:1041400089819A81821B930B9A83898389819A81C1
:1041500026960FB6F894DEBF0FBECDBFCF91DF918C
:104160000895DF93CF9300D000D000D0CDB7DEB755
:104170009E838D838D819E819C838B838B819C818B
:104180000E949B269A83898389819A8126960FB6FD
:10419000F894DEBF0FBECDBFCF91DF910895EF92AF
:1041A000FF920F931F93DF93CF93CDB7DEB7639743
:1041B0000FB6F894DEBF0FBECDBF9D878C877F877B
:1041C0006E87598B488B3B8B2A8B8C859D85988776
:1041D0008F831C821B82888999899A838983EF81C6
:1041E000F8858685882F90E081709070882329F06B
:1041F00089819A8102969A8389838A899B8900970B
:1042000009F440C0CE0109960E94D62E0FB6F8944C
:104210000F928F8198850E946B209C838B832B81CA
:104220003C8189819A812817390750F580E090E018
:104230000E94E6330E943F30EF81F88593878287A2
:104240000F900FBEEA89FB8960E070E080E090E0AB
:1042500020E030E040E050E000E010E07F010E940C
:10426000EF30EF81F88513861286CE0109969E0104
:104270002E5E3F4FB9010E940D2F882339F202C0F4
:104280000F900FBE8B819C81009731F48F819885B0
:104290000E946B209C838B838F8198852E853F8520
:1042A00048895989EB81FC81A981BA81B9019F01B3
:1042B0008D010E9414229E838D838D819E810097A3
:1042C00039F18F8198850E949B269C01EF81F885AA
:1042D0008681978128173907D8F00E946E2BEF81CD
:1042E000F88580859185009789F0EF81F885808534
:1042F000918540E050E060E070E020E000E010E0F8
:104300000E948B31EF81F885118610860E947A2BEE
:104310008D819E8163960FB6F894DEBF0FBECDBF30
:10432000CF91DF911F910F91FF90EF900895EF9241
:10433000FF920F931F93DF93CF93CDB7DEB76197B3
:104340000FB6F894DEBF0FBECDBF9B878A877D87EF
:104350006C875F874E87398B288B8A859B859987E9
:1043600088878E859F859B838A83E885F9858685E6
:10437000882F90E081709070882329F08A819B813A
:1043800002969B838A83888599850E946B209D83F2
:104390008C83888599852C853D854E855F85EC814C
:1043A000FD81AA81BB81B9019F018D010E94142268
:1043B0009F838E838E819F81009739F188859985AF
:1043C0000E949B269C01E885F985868197812817A4
:1043D0003907D8F01982E885F9858085918500979D
:1043E000A1F0E885F98580859185E889F98940E023
:1043F00050E060E070E020E000E010E07F010E940B
:104400006832E885F985118610868E819F816196D4
:104410000FB6F894DEBF0FBECDBFCF91DF911F91D5
:104420000F91FF90EF9008950F931F93DF93CF9319
:10443000CDB7DEB761970FB6F894DEBF0FBECDBF24
:104440009D838C837F836E83598748873B872A8728
:104450001D870C878A859B85009711F41B8238C0C5
:10446000EC81FD818685882F90E0817090700097A7
:10447000D1F481E08B8328853985398B288B8A8517
:104480009B859F878E872E853F858889998982178E
:10449000930720F4288939893F872E878E859F8549
:1044A0009987888715C02A853B858C859D85281727
:1044B000390768F081E08B839E01285F3F4F8C8134
:1044C0009D81B90142E050E00E94612501C01B823C
:1044D0008B81882361F02E813F81488559858C81AD
:1044E0009D81B9010E9461259A83898302C01A8245
:1044F000198289819A8161960FB6F894DEBF0FBE4A
:10450000CDBFCF91DF911F910F910895EF92FF9250
:104510000F931F93DF93CF93CDB7DEB760970FB69E
:10452000F894DEBF0FBECDBF9A8789877C876B87E3
:104530005E874D87388B2F8789859A8598878F83EB
:104540001E821D82EF81F8858685882F90E081701C
:104550009070882329F082E090E09A83898302C0DA
:104560001A8219828F859889009709F43DC00FB689
:10457000F8940F928F8198850E949B269C838B8351
:104580002B813C8189819A818217930750F080E0CA
:1045900090E00E94E6330E943F30EF81F8859187DA
:1045A00080870F900FBE2B813C8189819A81821771
:1045B000930700F1EF85F88960E070E080E090E01B
:1045C00020E030E040E050E000E010E07F010E9499
:1045D000EF30EF81F885118610868F8198850E94D3
:1045E0009B269C838B8306C08F8198850E949B2687
:1045F0009C838B832B813C8189819A8182179307CD
:1046000080F58F8198852B853C854D855E85EB8176
:10461000FC81A981BA81B9019F018D010E940A2400
:104620009E838D838D819E810097D9F00E946E2B91
:10463000EF81F88582859385009789F0EF81F88571
:104640008285938540E050E060E070E020E000E08B
:1046500010E00E948B31EF81F885138612860E944C
:104660007A2B8D819E8160960FB6F894DEBF0FBEC7
:10467000CDBFCF91DF911F910F91FF90EF900895E3
:10468000DF93CF93CDB7DEB72C970FB6F894DEBF8C
:104690000FBECDBF9C878B878B859C8598878F832A
:1046A000EF81F8858685882F90E08170907088234F
:1046B00061F18F8198850E949B269C838B838B81DF
:1046C0009C8183309105F0F0EF81F88580819181A4
:1046D0009A8389839E01275F3F4F8F819885EB8165
:1046E000FC81B90142E050E09F010E94EE258985DE
:1046F0009A859E838D83EF81F88589819A81918344
:10470000808305C01E821D8202C01E821D828D8193
:104710009E812C960FB6F894DEBF0FBECDBFCF9111
:10472000DF910895EF92FF920F931F93DF93CF9342
:10473000CDB7DEB761970FB6F894DEBF0FBECDBF21
:104740009B878A877D876C875F874E87398B288B0D
:104750008A859B85998788871F821E82E885F985CF
:104760008685882F90E081709070882329F082E000
:1047700090E09B838A8302C01B821A828885998578
:104780000E949B269D838C832C813D818A819B8105
:104790008217930780F5888599852C853D854E8500
:1047A0005F85EC81FD81AA81BB81B9019F018D01EB
:1047B0000E940A249F838E838E819F810097D9F067
:1047C0001982E885F985828593850097A1F0E885AF
:1047D000F98582859385E889F98940E050E060E0B9
:1047E00070E020E000E010E07F010E946832E88580
:1047F000F985138612868E819F8161960FB6F89493
:10480000DEBF0FBECDBFCF91DF911F910F91FF9003
:10481000EF9008950F931F93DF93CF93CDB7DEB73B
:1048200062970FB6F894DEBF0FBECDBF9A87898717
:104830007C876B875E874D87388B2F871A8B098B18
:1048400089899A89009791F1E985FA85808191811A
:104850009E838D83AE01495F5F4F89859A85298943
:104860003A89EF85F889BA01A9019F010E94EE25D6
:104870008F8198859A8389832F85388989899A8938
:10488000A901481B590BCA01988B8F8729813A814E
:104890008D859E858217930768F4E985FA858D8159
:1048A0009E81918380831A82198204C08D859E85A2
:1048B0009A8389834B855C8589859A8529813A818C
:1048C000EF85F889BA01A9019F010E94EE259C831A
:1048D0008B838B819C8162960FB6F894DEBF0FBEEE
:1048E000CDBFCF91DF911F910F910895DF93CF93AB
:1048F000CDB7DEB727970FB6F894DEBF0FBECDBF9A
:104900009F838E838E819F819D838C83EC81FD812B
:10491000808191819A838983EC81FD812281338119
:1049200089819A812817390719F481E08B8301C0A6
:104930001B828B8127960FB6F894DEBF0FBECDBFCA
:10494000CF91DF910895DF93CF93CDB7DEB727974F
:104950000FB6F894DEBF0FBECDBF9F838E838E81CE
:104960009F819A838983E981FA818685882F90E0E7
:1049700081709070882329F082E090E09C838B8383
:1049800002C01C821B828E819F810E946B209C0131
:104990008B819C818217930718F081E08D8301C081
:1049A0001D828D8127960FB6F894DEBF0FBECDBF56
:1049B000CF91DF910895EF92FF920F931F93DF93B2
:1049C000CF93CDB7DEB728970FB6F894DEBF0FBEF2
:1049D000CDBF9E838D8378876F838D819E819C83DD
:1049E0008B831982EB81FC81808591850097B9F0DA
:1049F000EB81FC8180859185EF81F88540E050E076
:104A000060E070E020E000E010E07F010E9468328A
:104A1000EB81FC811186108681E08A8301C01A82B5
:104A20008A8128960FB6F894DEBF0FBECDBFCF9116
:104A3000DF911F910F91FF90EF900895EF92FF92F9
:104A40000F931F93DF93CF93CDB7DEB728970FB6A1
:104A5000F894DEBF0FBECDBF9E838D8378876F83B2
:104A60008D819E819C838B831982EB81FC81828561
:104A700093850097B9F0EB81FC8182859385EF8166
:104A8000F88540E050E060E070E020E000E010E0F9
:104A90007F010E946832EB81FC811386128681E0DF
:104AA0008A8301C01A828A8128960FB6F894DEBFE5
:104AB0000FBECDBFCF91DF911F910F91FF90EF906F
:104AC0000895DF93CF93CDB7DEB72E970FB6F89446
:104AD000DEBF0FBECDBF9E838D8378876F835A87DD
:104AE0004987ED81FE81828193819C838B83ED8157
:104AF000FE81248135818B819C81A901481B590B42
:104B0000CA0129853A853E872D879C878B874B85EF
:104B10005C858D859E858417950720F42D853E85BF
:104B20003C872B874B855C855A834983ED81FE81C9
:104B3000248535858B819C81820F931F2F81388539
:104B400049815A81B9010E94D33429853A858981E6
:104B50009A8182179307B0F4ED81FE816485758593
:104B60002F81388589819A81A901480F591F29858C
:104B70003A8589819A81281B390BCB01BA01A90199
:104B80000E94D3342B813C8189859A85820F931FA3
:104B90009C838B83ED81FE81248135818B819C8177
:104BA0008217930750F0ED81FE81248135818B813E
:104BB0009C81821B930B9C838B83ED81FE818B8177
:104BC0009C819383828389859A852E960FB6F8946B
:104BD000DEBF0FBECDBFCF91DF910895DF93CF939E
:104BE000CDB7DEB766970FB6F894DEBF0FBECDBF68
:104BF00098878F837A8769875C874B873E872D8765
:104C00002D853E853A8B298B4B855C85588B4F874C
:104C10008F85988929893A892817390720F4498985
:104C20005A89588B4F878F8598899E838D838D8174
:104C30009E81009709F474C0EF81F885808191818D
:104C40009A838983EF81F8852481358189819A81CE
:104C5000A901481B590BCA012D813E813E8B2D8B2A
:104C60009C8B8B8B4B895C898D899E8984179507DA
:104C700020F42D893E893C8B2B8B4B895C895C838E
:104C80004B83EF81F8852485358589819A81A90137
:104C9000480F591F89859A852B813C81BA01A9014A
:104CA0000E94D3342D813E818B819C818217930792
:104CB000B0F429853A858B819C81B901680F791FF1
:104CC000EF81F885448555852D813E818B819C81BE
:104CD000281B390BCB01BA01A9010E94D3342981C9
:104CE0003A818D819E81820F931F9A838983EF8100
:104CF000F8852481358189819A818217930750F044
:104D0000EF81F8852481358189819A81821B930BFB
:104D10009A838983EF81F88589819A819183808341
:104D20008D819E8166960FB6F894DEBF0FBECDBF13
:104D3000CF91DF910895DF93CF9300D000D0CDB70E
:104D4000DEB79C838B83EB81FC8124813581EB81F1
:104D5000FC8182819381820F931F9A838983EB81E7
:104D6000FC812081318189819A81821B930B9A83F6
:104D70008983EB81FC812481358189819A81821725
:104D8000930750F0EB81FC812481358189819A81E0
:104D9000821B930B9A83898389819A810F900F904C
:104DA0000F900F90CF91DF9108950F93DF93CF93E2
:104DB000CDB7DEB729970FB6F894DEBF0FBECDBFD3
:104DC0009A8389837C836B835E834D8338872F83AB
:104DD000098789819A8160E070E04FE050E00E948D
:104DE000DC34E981FA818B819C8195878487E98114
:104DF000FA818D819E8195838483E981FA818F81F7
:104E0000988597838683E981FA81898586872996A3
:104E10000FB6F894DEBF0FBECDBFCF91DF910F91DB
:104E200008958F929F92AF92BF92CF92DF92EF92AE
:104E3000FF920F931F93DF93CF93CDB7DEB76097A9
:104E40000FB6F894DEBF0FBECDBF9F838E837987E8
:104E500068875B874A873D872C870E87F88AEF86AD
:104E60008A859B850E942C139A83898389819A81E4
:104E70000097B1F086E290E00E942C139D838C8312
:104E80008C819D81009739F0EC81FD8189819A8127
:104E9000908F878B07C089819A810E94821302C0FC
:104EA0001D821C828C819D810097E9F08A859B85FB
:104EB0009C0140E050E08E819F8168857985EC857A
:104EC000FD85AF85B889AC80BD808F01EE846D0112
:104ED000882499240E9489278C819D810E944528DD
:104EE00081E08B8302C08FEF8B838B8160960FB63E
:104EF000F894DEBF0FBECDBFCF91DF911F910F9110
:104F0000FF90EF90DF90CF90BF90AF909F908F90E9
:104F100008958F929F92AF92BF92CF92DF92EF92BD
:104F20000F931F93DF93CF93CDB7DEB764970FB680
:104F3000F894DEBF0FBECDBF9D838C837F836E83CD
:104F4000288739874A875B871D870C87EE86D88A32
:104F5000CF86BA8AA98A9C8A8B8AE989FA892789A5
:104F6000308D888599850197820F931F9B838A8353
:104F70008E819F81009751F1198221C08981482F2C
:104F800050E08981282F30E08E819F81FC01E20F63
:104F9000F31F208189899A89840F951FFC017996D6
:104FA00020838981282F30E08E819F81FC01E20FD0
:104FB000F31F8081882331F089818F5F8983898104
:104FC0008830E0F2E989FA8910A203C0E989FA89F8
:104FD000118E8E85843010F083E08E87E989FA89FE
:104FE0008E85868B89899A8902960E94D213898937
:104FF0009A890C960E94D213E989FA8989899A893B
:10500000918780878E85282F30E084E090E0821B96
:10501000930BE989FA8995878487E989FA898989CF
:105020009A89938B828BE989FA8911A212A213A221
:1050300014A2E989FA8915A28A819B812C813D817C
:105040004C855D85B9010E948715E989FA899183AC
:1050500080838F859889009731F0EF85F889898959
:105060009A899183808364960FB6F894DEBF0FBE51
:10507000CDBFCF91DF911F910F91EF90DF90CF9037
:10508000BF90AF909F908F900895DF93CF9300D003
:10509000CDB7DEB79A8389830FB6F8940F928091CB
:1050A0007F068F5F80937F0680917C0690917D06BE
:1050B000009769F489819A8190937D0680937C069C
:1050C00080917F068130B9F40E948E2F14C08091A8
:1050D0008306882381F4E0917C06F0917D06968911
:1050E000E981FA818689891730F089819A819093C4
:1050F0007D0680937C06809187068F5F809387066C
:10510000E981FA81968980918206891728F4E981DC
:10511000FA81868980938206E981FA818689282F1F
:1051200030E0C901880F991F880F991F880F991FB8
:10513000820F931FAC014357594F89819A819C017B
:105140002E5F3F4FCA01B9010E94E2130F900FBEBC
:1051500080918306882361F0E0917C06F0917D06C2
:105160009689E981FA818689981710F40E9446177A
:105170000F900F90CF91DF910895DF93CF9300D0E0
:1051800000D000D0CDB7DEB79C838B830FB6F894E8
:105190000F928B819C81009739F480917C069091CD
:1051A0007D069E838D8304C08B819C819E838D832D
:1051B0008D819E819A83898389819A8102960E943A
:1051C0009214E981FA8184899589009729F089816F
:1051D0009A810C960E949214809187068F5F80932B
:1051E000870620917C0630917D0689819A818217FD
:1051F000930781F489819A819C012E5F3F4F80ED56
:1052000096E0B9010E94E21380917E068F5F809341
:105210007E060BC080917F06815080937F06898136
:105220009A810E94FE2F0E9414300F900FBE809131
:105230008306882359F020917C0630917D06898170
:105240009A818217930711F40E94461726960FB68B
:10525000F894DEBF0FBECDBFCF91DF910895DF93ED
:10526000CF93CDB7DEB72A970FB6F894DEBF0FBE47
:10527000CDBF98878F837A8769871B820E946E2BA8
:1052800080918006909181069A838983EF81F885C9
:105290002081318189859A85820F931F9E838D831A
:1052A000EF81F8852081318189819A818217930766
:1052B00098F4EF81F885208131818D819E8182175C
:1052C0009307E0F42D813E8189819A8182179307AB
:1052D000A8F481E08B8312C0EF81F88520813181B1
:1052E0008D819E818217930738F02D813E818981BF
:1052F0009A818217930710F481E08B83EF81F88500
:105300008D819E81918380838B81882349F08D815B
:105310009E8129813A81821B930B60E00E94203498
:105320000E947A2B8C838C81882311F40E9446176B
:105330002A960FB6F894DEBF0FBECDBFCF91DF9196
:105340000895DF93CF9300D00F92CDB7DEB79B8344
:105350008A8319828A819B81009751F00E946E2B6B
:105360008A819B8160E00E9420340E947A2B89838D
:105370008981882311F40E9446170F900F900F9097
:10538000CF91DF910895DF93CF9300D000D000D06C
:10539000CDB7DEB79C838B830FB6F8940F928B81C9
:1053A0009C81009739F480917C0690917D069E83C4
:1053B0008D8304C08B819C819E838D838D819E8192
:1053C0009A83898389819A8102960E949214E98145
:1053D000FA8184899589009729F089819A810C96B0
:1053E0000E94921489819A819C012E5F3F4F89ED22
:1053F00096E0B9010E94E213E981FA8185A181302A
:1054000019F4E981FA8115A20F900FBE80918306ED
:10541000882339F00FB6F8940F920E9414300F9041
:105420000FBE20917C0630917D0689819A8182177A
:105430009307A1F480918306882319F00E944617F0
:105440000DC09091D90680917F06981729F410928B
:105450007D0610927C0602C00E944F2D26960FB644
:10546000F894DEBF0FBECDBFCF91DF910895DF93DB
:10547000CF9300D000D00F92CDB7DEB79D838C8341
:105480001B828C819D819A838983E981FA8182853F
:10549000938526E0893D920781F4E981FA81848928
:1054A000958926E0873C920741F0E981FA81848959
:1054B0009589009711F481E08B838B810F900F9079
:1054C0000F900F900F90CF91DF910895DF93CF93BE
:1054D00000D000D0CDB7DEB79C838B838B819C81BD
:1054E0009A83898320917C0630917D0689819A81F7
:1054F0008217930709F447C089819A81009709F4BC
:1055000042C00FB6F8940F9289819A810E94372A7F
:105510008823B9F189819A8102960E949214E981C7
:10552000FA81968980918206891728F4E981FA81A7
:10553000868980938206E981FA818689282F30E066
:10554000C901880F991F880F991F880F991F820F13
:10555000931FAC014357594F89819A819C012E5F5B
:105560003F4FCA01B9010E94E213E981FA8196898D
:10557000E0917C06F0917D068689981710F00E94D4
:1055800046170F900FBE0F900F900F900F90CF9176
:10559000DF910895DF93CF9300D000D000D0CDB736
:1055A000DEB79E838D831C828D819E819B838A833F
:1055B00019828A819B810E94372A882309F446C078
:1055C00080918C068823C1F5EA81FB819689E09160
:1055D0007C06F0917D068689981710F081E08C8317
:1055E0008A819B8102960E949214EA81FB819689AE
:1055F00080918206891728F4EA81FB81868980934D
:105600008206EA81FB818689282F30E0C901880F54
:10561000991F880F991F880F991F820F931FAC0144
:105620004357594F8A819B819C012E5F3F4FCA018E
:10563000B9010E94E2130AC08A819B819C01245F08
:105640003F4F87EC96E0B9010E94E2138C812696C9
:105650000FB6F894DEBF0FBECDBFCF91DF91089596
:10566000EF92FF920F93DF93CF930F92CDB7DEB7F8
:1056700084E89FE22EE830E0EAE8F6E0B90145E58B
:1056800050E020E030E000E07F010E941127898394
:105690008981813081F4F8948FEF9FEF9093890690
:1056A0008093880681E08093830610928106109291
:1056B00080060E940A170F90CF91DF910F91FF9003
:1056C000EF900895DF93CF93CDB7DEB7F8941092A3
:1056D00083060E943F17CF91DF910895DF93CF9308
:1056E000CDB7DEB780918C068F5F80938C06CF910B
:1056F000DF910895DF93CF9300D000D0CDB7DEB710
:105700001C821B821A820FB6F8940F9280918C062D
:10571000815080938C0680918C06882309F073C099
:1057200080917F06882309F46EC045C0E091CC06C5
:10573000F091CD06868197819C838B838B819C81A0
:105740000C960E9492148B819C8102960E94921466
:10575000EB81FC81968980918206891728F4EB8180
:10576000FC81868980938206EB81FC818689282FC3
:1057700030E0C901880F991F880F991F880F991F62
:10578000820F931FAC014357594F8B819C819C0121
:105790002E5F3F4FCA01B9010E94E213EB81FC81E9
:1057A0009689E0917C06F0917D068689981718F01D
:1057B00081E0809385068091C706882309F0B6CFE3
:1057C0008B819C81009711F00E9414308091840697
:1057D00089838981882379F00E946A2C882319F0B3
:1057E00081E080938506898181508983898188231E
:1057F00099F71092840680918506882321F081E034
:105800008A830E9446170F900FBE8A810F900F90D7
:105810000F900F90CF91DF910895DF93CF9300D039
:10582000CDB7DEB70FB6F8940F92809180069091B5
:1058300081069A8389830F900FBE89819A810F9088
:105840000F90CF91DF910895DF93CF9300D00F9207
:10585000CDB7DEB7198280918006909181069B8337
:105860008A838A819B810F900F900F90CF91DF9157
:105870000895DF93CF93CDB7DEB780917F06CF91A8
:10588000DF910895DF93CF9300D000D000D0CDB743
:10589000DEB79C838B838B819C81009739F4809148
:1058A0007C0690917D069E838D8304C08B819C81B4
:1058B0009E838D838D819E819A83898389819A813C
:1058C000499626960FB6F894DEBF0FBECDBFCF9196
:1058D000DF910895DF93CF93CDB7DEB729970FB649
:1058E000F894DEBF0FBECDBF1D8280918C06882349
:1058F00009F0C0C0809180069091810601969C833A
:105900008B838B819C8190938106809380068B8111
:105910009C810097D9F48091C3069091C4069A8324
:1059200089838091C5069091C6069093C4068093A2
:10593000C30689819A819093C6068093C50680919B
:1059400086068F5F809386060E9414302091880619
:10595000309189068B819C818217930708F471C06E
:10596000E091C306F091C4068081882339F48FEF5B
:105970009FEF909389068093880663C0E091C306E9
:10598000F091C4060580F681E02D86819781998784
:105990008887E885F985828193819F838E832B8117
:1059A0003C818E819F812817390738F48E819F8131
:1059B000909389068093880644C0888599850296CD
:1059C0000E949214E885F98584899589009729F0C9
:1059D000888599850C960E949214E885F9859689A8
:1059E00080918206891728F4E885F9858689809355
:1059F0008206E885F9858689282F30E0C901880F5D
:105A0000991F880F991F880F991F820F931FAC0150
:105A10004357594F888599859C012E5F3F4FCA0196
:105A2000B9010E94E213E885F9859689E0917C0628
:105A3000F0917D068689981708F492CF81E08D83D6
:105A40008FCFE0917C06F0917D068689282F30E08B
:105A5000C901880F991F880F991F880F991F820FFE
:105A6000931FFC01E357F94F8081823040F081E0C1
:105A70008D8305C0809184068F5F8093840680911A
:105A80008506882311F081E08D838D8129960FB6DC
:105A9000F894DEBF0FBECDBFCF91DF910895DF93A5
:105AA000CF9300D00F92CDB7DEB780918C068823BC
:105AB00021F081E08093850659C01092850680917F
:105AC00082068B8303C08B8181508B838B81282F2F
:105AD00030E0C901880F991F880F991F880F991FFF
