:100000000C942A000C9447000C9447000C94470071
:100010000C9462140C948F140C94C2130C949513CA
:100020000C9468130C943B130C94E0110C940D1277
:100030000C9447000C9447000C9447000C94470024
:100040000C9447000C9447000C9447000C94470014
:100050000C94470011241FBECFE5D8E0DEBFCDBF12
:1000600012E0A0E6B0E0E4EBF6E302C005900D92EA
:10007000A834B107D9F713E0A8E4B2E001C01D929B
:10008000A538B107E1F70E94BC140C94581B0C94DE
:100090000000EF92FF920F931F937B018C0120E0F1
:1000A00030E040E05FE40E94C50388238CF0C80183
:1000B000B70120E030E040E05FE40E94C1010E940F
:1000C00053049B01AC01205030404040504806C0D2
:1000D000C801B7010E9453049B01AC01B901CA01D8
:1000E0001F910F91FF90EF900895A0E0B0E0EBE733
:1000F000F0E00C94211BDC012B01FA019C91923061
:1001000008F439C1EB018881823008F433C194309E
:1001100069F4843009F02FC111969C91119789815F
:10012000981709F428C1AAE3B1E025C1843009F485
:1001300021C18230A9F4923009F01DC19A01AD01AC
:1001400088E0EA010990AE01E90109929E0181501F
:10015000C1F7E201898111969C918923818308C1AD
:10016000923009F407C112962D903C901397EB0141
:100170008A819B811496AD90BD90CD90DC901797AD
:10018000EC80FD800E811F819101281B390BB90184
:1001900037FF04C066277727621B730B6032710537
:1001A0000CF061C0121613066CF537014801062EDB
:1001B00004C096948794779467940A94D2F721E0C8
:1001C00030E040E050E004C0220F331F441F551FB1
:1001D0006A95D2F721503040404050402E213F21B7
:1001E00040235123211531054105510521F021E01E
:1001F00030E040E050E079018A01E628F72808293C
:1002000019293CC0232BD1F1260E371E350146019A
:10021000062E04C096948794779467940A94D2F734
:1002200021E030E040E050E004C0220F331F441FC3
:10023000551F6A95D2F721503040404050402A2146
:100240003B214C215D21211531054105510521F04E
:1002500021E030E040E050E059016A01A628B728CB
:10026000C828D9280BC0821593052CF01C01AA249C
:10027000BB24650103C0EE24FF24870111969C91E5
:10028000D20111968C91981709F445C0992339F041
:10029000A80197012A193B094C095D0906C0A6016E
:1002A00095012E193F09400B510B57FD08C01182D3
:1002B0003382228224833583468357831DC081E0A5
:1002C00081833382228288279927DC01821B930B4A
:1002D000A40BB50B84839583A683B7830DC0220F2F
:1002E000331F441F551F24833583468357838281E0
:1002F000938101979383828324813581468157813D
:10030000DA01C9010197A109B1098F5F9F4FAF4F72
:10031000BF4328F30BC0918333822282EA0CFB1C7B
:100320000C1D1D1DE482F5820683178383E0808304
:10033000248135814681578157FF1AC0C901AA27F8
:1003400097FDA095BA2F81709070A070B0705695EF
:10035000479537952795822B932BA42BB52B848318
:100360009583A683B7838281938101969383828349
:10037000DF0101C0D201CD01CDB7DEB7E2E10C94BF
:100380003D1BA0E2B0E0E7ECF1E00C942D1B69838B
:100390007A838B839C832D833E834F835887E9E048
:1003A000EE2EF12CEC0EFD1ECE010196B7010E943F
:1003B000CB058E010F5E1F4FCE010596B8010E943E
:1003C000CB058A8991E089278A8BC701B801AE01E4
:1003D000475E5F4F0E9475000E94F604A096E6E01B
:1003E0000C94491BA0E2B0E0E8EFF1E00C942D1B67
:1003F00069837A838B839C832D833E834F835887C5
:10040000F9E0EF2EF12CEC0EFD1ECE010196B701A6
:100410000E94CB058E010F5E1F4FCE010596B801DD
:100420000E94CB05C701B801AE01475E5F4F0E9435
:1004300075000E94F604A096E6E00C94491BA0E229
:10044000B0E0E5E2F2E00C94211B69837A838B83B0
:100450009C832D833E834F835887CE010196BE0136
:10046000675F7F4F0E94CB05CE010596BE016F5E90
:100470007F4F0E94CB059985923088F08989823020
:10048000C8F0943019F4823051F404C0843029F457
:10049000923081F48AE391E0C6C0923049F420E0C2
:1004A0009A858A89981321E02A87CE010996BBC0D4
:1004B000823049F420E09A858A89981321E02A8BBA
:1004C000CE014196B0C02D843E844F8458886D88FB
:1004D0007E888F88988CEE24FF248701AA24BB2471
:1004E000650140E050E060E070E0E0E0F0E0C10174
:1004F00081709070892BE9F0E60CF71C081D191D1E
:100500009A01AB012A0D3B1D4C1D5D1D80E090E062
:10051000A0E0B0E0E614F7040805190520F481E036
:1005200090E0A0E0B0E0BA01A901480F591F6A1F8E
:100530007B1FAA0CBB1CCC1CDD1C97FE08C081E0F5
:1005400090E0A0E0B0E0A82AB92ACA2ADB2A3196B6
:10055000E032F10549F0660C771C881C991C569412
:10056000479437942794C3CFFA85EA892B893C892D
:100570008B859C85280F391F2E5F3F4F17C0CA01FE
:1005800081709070892B61F016950795F794E79428
:1005900080E090E0A0E0B0E8E82AF92A0A2B1B2BC3
:1005A00076956795579547952F5F3F4F77FDE7CF36
:1005B0000CC0440F551F661F771F17FD4160EE0CDE
:1005C000FF1C001F111F21503040403090E05907A0
:1005D00090E0690790E4790760F32B8F3C8FDB0193
:1005E000CA018F779070A070B07080349105A1051A
:1005F000B10561F447FD0AC0E114F10401051105DC
:1006000029F0405C5F4F6F4F7F4F40781A8EFE1786
:1006100011F081E08A8F4D8F5E8F6F8F78A383E01A
:10062000898FCE0149960E94F604A096E2E10C94CF
:100630003D1BA8E1B0E0EFE1F3E00C94291B6983D6
:100640007A838B839C832D833E834F835887B9E0C5
:10065000EB2EF12CEC0EFD1ECE010196B7010E948F
:10066000CB058E010F5E1F4FCE010596B8010E948B
:10067000CB052985223008F47EC03989323010F448
:10068000B8017CC08A859A8989278A87243011F02D
:10069000223031F4231709F06EC06AE371E06EC0B6
:1006A000343039F41D861E861F86188A1C861B86E8
:1006B00004C0323021F484E08987B7015FC02B8504
:1006C0003C858B899C89281B390B3C872B87ED84C3
:1006D000FE840F851889AD88BE88CF88D88CEA142F
:1006E000FB040C051D0540F4EE0CFF1C001F111F40
:1006F000215030403C872B8720E030E040E050E044
:1007000080E090E0A0E0B0E460E070E0EA14FB0478
:100710000C051D0540F0282B392B4A2B5B2BEA18C2
:10072000FB080C091D09B695A79597958795EE0CC2
:10073000FF1C001F111F6F5F7F4F6F31710531F775
:10074000DA01C9018F779070A070B0708034910584
:10075000A105B10561F427FD0AC0E114F10401050A
:10076000110529F0205C3F4F4F4F5F4F20782D87B8
:100770003E874F87588BBE01675F7F4FCB010E943A
:10078000F6046896EAE00C94451BA8E1B0E0EBECB7
:10079000F3E00C942D1B69837A838B839C832D83D8
:1007A0003E834F83588789E0E82EF12CEC0EFD1E26
:1007B000CE010196B7010E94CB058E010F5E1F4F3F
:1007C000CE010596B8010E94CB058985823040F0A4
:1007D0008989823028F0C701B8010E94430601C010
:1007E0008FEF6896E6E00C94491BA8E0B0E0EBEFD1
:1007F000F3E00C942A1B9B01AC0183E08983DA01AE
:10080000C9018827B7FD83959927AA27BB27B82E4A
:10081000211531054105510519F482E089833AC05B
:100820008823A9F0203080E0380780E0480780E87E
:10083000580729F460E070E080E09FEC30C0EE24BF
:10084000FF248701E21AF30A040B150B02C0790199
:100850008A018EE1C82ED12CDC82CB82ED82FE8211
:100860000F831887C801B7010E94A70401971816C3
:10087000190684F4082E04C0EE0CFF1C001F111F83
:100880000A94D2F7ED82FE820F831887C81AD90A1C
:10089000DC82CB82BA82CE0101960E94F6042896B1
:1008A000E9E00C94461BACE0B0E0E9E5F4E00C9420
:1008B000311B69837A838B839C83CE010196BE01B1
:1008C0006B5F7F4F0E94CB058D81823061F182305A
:1008D00050F1843021F48E81882351F12EC02F8174
:1008E000388537FD20C06E812F3131051CF066231D
:1008F000F9F023C08EE190E0821B930B29853A85A5
:100900004B855C8504C056954795379527958A9504
:10091000D2F76623B1F050954095309521953F4F21
:100920004F4F5F4F0EC020E030E040E050E009C084
:100930002FEF3FEF4FEF5FE704C020E030E040E0F3
:1009400050E8B901CA012C96E2E00C944D1BEF92DD
:10095000FF920F931F937B018C0180E0E81680E0EB
:10096000F80681E0080780E0180788F48FEFE816A2
:10097000F1040105110531F028F088E090E0A0E0D5
:10098000B0E017C080E090E0A0E0B0E012C080E0EE
:10099000E81680E0F80680E0080781E0180728F0F4
:1009A00088E190E0A0E0B0E004C080E190E0A0E049
:1009B000B0E020E230E040E050E0281B390B4A0B69
:1009C0005B0B04C016950795F794E7948A95D2F7C8
:1009D000F701EE5BFE4F8081281B31094109510967
:1009E000C9011F910F91FF90EF900895DF92EF9250
:1009F000FF920F931F93FC01E480F580068117811D
:100A0000D1808081823048F480E090E0A0E1B0E0C5
:100A1000E82AF92A0A2B1B2BA5C0843009F49FC0B1
:100A2000823021F4EE24FF24870105C0E114F10493
:100A30000105110519F4E0E0F0E096C062817381D0
:100A40009FEF623879070CF05BC022E83FEF261B6E
:100A5000370B2A3131052CF020E030E040E050E047
:100A60002AC0B801A701022E04C076956795579554
:100A700047950A94D2F781E090E0A0E0B0E004C08E
:100A8000880F991FAA1FBB1F2A95D2F70197A109AA
:100A9000B1098E219F21A023B1230097A105B105A3
:100AA00021F081E090E0A0E0B0E09A01AB01282BBA
:100AB000392B4A2B5B2BDA01C9018F779070A0701C
:100AC000B07080349105A105B10539F427FF09C044
:100AD000205C3F4F4F4F5F4F04C0215C3F4F4F4F53
:100AE0005F4FE0E0F0E02030A0E03A07A0E04A07E6
:100AF000A0E45A0710F0E1E0F0E079018A0127C094
:100B00006038710564F5FB01E158FF4FD801C7015A
:100B10008F779070A070B07080349105A105B105F9
:100B200039F4E7FE0DC080E490E0A0E0B0E004C03E
:100B30008FE390E0A0E0B0E0E80EF91E0A1F1B1F53
:100B400017FF05C016950795F794E794319687E04F
:100B500016950795F794E7948A95D1F705C0EE248A
:100B6000FF248701EFEFF0E06E2F6795662767950A
:100B7000902F9F77D794DD24D7948E2F8695492F79
:100B8000462B582F5D29B701CA011F910F91FF9085
:100B9000EF90DF900895FC01DB01408151812281BB
:100BA000622F6F7770E0221F2227221F9381892FE7
:100BB000880F822B282F30E0991F9927991F1196B3
:100BC0009C93119721153105A9F541155105610532
:100BD000710511F482E037C082E89FEF13969C9371
:100BE0008E9312979A01AB0167E0220F331F441FC7
:100BF000551F6A95D1F783E08C930DC0220F331FE8
:100C0000441F551F12968D919C911397019713962F
:100C10009C938E931297203080E0380780E048073D
:100C200080E4580758F314962D933D934D935C93AD
:100C3000179708952F3F310579F441155105610546
:100C4000710519F484E08C93089564FF03C081E07A
:100C50008C9312C01C9210C02F57304013963C93B7
:100C60002E93129783E08C9387E0440F551F661FE5
:100C7000771F8A95D1F7706414964D935D936D93A9
:100C80007C93179708951F93DC01FB019C91923090
:100C900008F447C08081823008F443C0943051F496
:100CA00011961C91843099F58181682F70E0611B49
:100CB00071093FC0843021F0923031F48230B9F1B3
:100CC0008181882389F12DC011961C911197823062
:100CD000F1F081811817D9F412962D913C91139758
:100CE000828193818217930794F028173907BCF00B
:100CF00014968D919D910D90BC91A02D24813581EC
:100D000046815781281739074A075B0718F41123D2
:100D100041F00AC082179307A407B50740F41123D6
:100D200019F061E070E005C06FEF7FEF02C060E096
:100D300070E0CB011F910895DF93CF93CDB7DEB75D
:100D400087E061E00E94DE06CF91DF910895DF9396
:100D5000CF93CDB7DEB787E061E00E94C907CF919E
:100D6000DF910895DF93CF93CDB7DEB787E060E0E2
:100D70000E94C907CF91DF910895DF93CF93CDB73C
:100D8000DEB785E061E00E94DE06CF91DF91089535
:100D9000DF93CF93CDB7DEB785E061E00E94C9074E
:100DA000CF91DF910895DF93CF93CDB7DEB785E084
:100DB00060E00E94C907CF91DF910895DF93CF9340
:100DC00000D000D000D0CDB7DEB78B836C838B8191
:100DD0008695869586958A838B81877089838A819B
:100DE000282F30E03E832D838D819E8181309105B7
:100DF00009F443C02D813E81223031052CF48D81D0
:100E00009E81009771F0BCC02D813E81223031055A
:100E100009F45FC08D819E818330910509F485C0FE
:100E2000AFC08C818130A1F4AAE3B0E0EAE3F0E046
:100E30008081482F8981282F30E081E090E0022EC8
:100E400002C0880F991F0A94E2F7842B8C9398C0F4
:100E5000AAE3B0E0EAE3F0E08081482F8981282FFF
:100E600030E081E090E0022E02C0880F991F0A94C2
:100E7000E2F7809584238C9383C08C818130A1F428
:100E8000A7E3B0E0E7E3F0E08081482F8981282FD5
:100E900030E081E090E0022E02C0880F991F0A9492
:100EA000E2F7842B8C936CC0A7E3B0E0E7E3F0E0BB
:100EB0008081482F8981282F30E081E090E0022E48
:100EC00002C0880F991F0A94E2F7809584238C93BF
:100ED00057C08C818130A1F4A4E3B0E0E4E3F0E0FA
:100EE0008081482F8981282F30E081E090E0022E18
:100EF00002C0880F991F0A94E2F7842B8C9340C09C
:100F0000A4E3B0E0E4E3F0E08081482F8981282F5A
:100F100030E081E090E0022E02C0880F991F0A9411
:100F2000E2F7809584238C932BC08C818130A1F4CF
:100F3000A1E3B0E0E1E3F0E08081482F8981282F30
:100F400030E081E090E0022E02C0880F991F0A94E1
:100F5000E2F7842B8C9314C0A1E3B0E0E1E3F0E06E
:100F60008081482F8981282F30E081E090E0022E97
:100F700002C0880F991F0A94E2F7809584238C930E
:100F800026960FB6F894DEBF0FBECDBFCF91DF918E
:100F90000895DF93CF9300D000D000D0CDB7DEB757
:100FA0008B836C838B818695869586958A838B81CE
:100FB000877089838A81282F30E03E832D838D813D
:100FC0009E818130910509F443C02D813E812230FC
:100FD00031052CF48D819E81009771F0BCC02D816C
:100FE0003E812230310509F45FC08D819E818330BE
:100FF000910509F485C0AFC08C818130A1F4ABE3C9
:10100000B0E0EBE3F0E08081482F8981282F30E0C9
:1010100081E090E0022E02C0880F991F0A94E2F747
:10102000842B8C9398C0ABE3B0E0EBE3F0E08081DD
:10103000482F8981282F30E081E090E0022E02C005
:10104000880F991F0A94E2F7809584238C9383C0BC
:101050008C818130A1F4A8E3B0E0E8E3F0E0808186
:10106000482F8981282F30E081E090E0022E02C0D5
:10107000880F991F0A94E2F7842B8C936CC0A8E325
:10108000B0E0E8E3F0E08081482F8981282F30E04C
:1010900081E090E0022E02C0880F991F0A94E2F7C7
:1010A000809584238C9357C08C818130A1F4A5E373
:1010B000B0E0E5E3F0E08081482F8981282F30E01F
:1010C00081E090E0022E02C0880F991F0A94E2F797
:1010D000842B8C9340C0A5E3B0E0E5E3F0E0808191
:1010E000482F8981282F30E081E090E0022E02C055
:1010F000880F991F0A94E2F7809584238C932BC064
:101100008C818130A1F4A2E3B0E0E2E3F0E08081E1
:10111000482F8981282F30E081E090E0022E02C024
:10112000880F991F0A94E2F7842B8C9314C0A2E3D2
:10113000B0E0E2E3F0E08081482F8981282F30E0A1
:1011400081E090E0022E02C0880F991F0A94E2F716
:10115000809584238C9326960FB6F894DEBF0FBE3D
:10116000CDBFCF91DF910895DF93CF9300D000D012
:1011700000D0CDB7DEB78C8319828C81803218F015
:1011800082E089836FC08C818695869586958B8356
:101190008C8187708A838B81282F30E03E832D835A
:1011A0004D815E814130510541F18D819E818230BA
:1011B000910534F42D813E812115310561F052C035
:1011C0004D815E814230510551F18D819E81833088
:1011D0009105B9F147C0E9E3F0E08081282F30E0C4
:1011E0008A81882F90E0A90102C0559547958A957C
:1011F000E2F7CA018170898335C0E6E3F0E08081BF
:10120000282F30E08A81882F90E0A90102C05595EF
:1012100047958A95E2F7CA018170898323C0E3E389
:10122000F0E08081282F30E08A81882F90E0A901AA
:1012300002C0559547958A95E2F7CA018170898366
:1012400011C0E0E3F0E08081282F30E08A81882F10
:1012500090E0A90102C0559547958A95E2F7CA0129
:1012600081708983898126960FB6F894DEBF0FBE00
:10127000CDBFCF91DF910895DF93CF93CDB7DEB788
:1012800080E161E00E94DE0681E161E00E94DE060D
:1012900082E161E00E94DE0683E161E00E94DE06F9
:1012A00084E160E00E94DE0685E160E00E94DE06E7
:1012B00086E160E00E94DE0687E160E00E94DE06D3
:1012C00080E161E00E94C90781E161E00E94C907F5
:1012D00082E161E00E94C90783E161E00E94C907E1
:1012E00084E161E00E94C90785E161E00E94C907CD
:1012F00086E161E00E94C90787E161E00E94C907B9
:10130000CF91DF910895DF93CF93CDB7DEB72E97BE
:101310000FB6F894DEBF0FBECDBF80E160E00E9443
:10132000C90781E161E00E94C90782E161E00E9492
:10133000C90783E161E00E94C90784E10E94B40803
:101340008D8385E10E94B4088C8386E10E94B408F5
:101350008B8387E10E94B4088A8319828D81882F4C
:1013600090E082959295907F9827807F9827982F7C
:101370008981892B89838C81882F90E0880F991F20
:1013800082959295907F9827807F9827982F8981C2
:10139000892B89838B81882F90E0002496958795EF
:1013A0000794969587950794982F802D982F89817B
:1013B000892B89838A81882F90E09695982F88279A
:1013C00097958795982F8981892B89838981282FE3
:1013D00030E03E872D878D859E85803B9105D9F035
:1013E0002D853E85213B310534F48D859E858037E2
:1013F0009105A1F016C02D853E85203D310541F0B7
:101400008D859E85803E910561F491E09C8796C113
:1014100022E02C8793C133E03C8790C18BE28C871C
:101420008DC180E161E00E94C90781E160E00E9416
:10143000C90782E161E00E94C90783E161E00E947F
:10144000C90784E10E94B4088D8385E10E94B40835
:101450008C8386E10E94B4088B8387E10E94B408E4
:101460008A8319828D81882F90E082959295907F52
:101470009827807F9827982F8981892B89838C8151
:10148000882F90E0880F991F82959295907F9827DA
:10149000807F9827982F8981892B89838B81882F3A
:1014A00090E00024969587950794969587950794E4
:1014B000982F802D982F8981892B89838A81882F65
:1014C00090E09695982F882797958795982F8981F2
:1014D000892B89838981282F30E03B872A878A8559
:1014E0009B85803B9105D9F02A853B85213B3105C1
:1014F00034F48A859B8580379105A1F016C02A8532
:101500003B85203D310541F08A859B85803E9105D4
:1015100061F494E09C8712C125E02C870FC136E06E
:101520003C870CC18DE28C8709C180E161E00E949B
:10153000C90781E161E00E94C90782E160E00E9481
:10154000C90783E161E00E94C90784E10E94B408F1
:101550008D8385E10E94B4088C8386E10E94B408E3
:101560008B8387E10E94B4088A8319828D81882F3A
:1015700090E082959295907F9827807F9827982F6A
:101580008981892B89838C81882F90E0880F991F0E
:1015900082959295907F9827807F9827982F8981B0
:1015A000892B89838B81882F90E0002496958795DD
:1015B0000794969587950794982F802D982F898169
:1015C000892B89838A81882F90E09695982F882788
:1015D00097958795982F8981892B89838981282FD1
:1015E00030E03987288788859985803B9105D9F037
:1015F00028853985213B310534F4888599858037E4
:101600009105A1F016C028853985203D310541F0AE
:1016100088859985803E910561F497E09C878EC00E
:1016200028E02C878BC039E03C8788C08AE28C8711
:1016300085C080E161E00E94C90781E161E00E940C
:10164000C90782E161E00E94C90783E160E00E946E
:10165000C90784E10E94B4088D8385E10E94B40823
:101660008C8386E10E94B4088B8387E10E94B408D2
:101670008A8319828D81882F90E082959295907F40
:101680009827807F9827982F8981892B89838C813F
:10169000882F90E0880F991F82959295907F9827C8
:1016A000807F9827982F8981892B89838B81882F28
:1016B00090E00024969587950794969587950794D2
:1016C000982F802D982F8981892B89838A81882F53
:1016D00090E09695982F882797958795982F8981E0
:1016E000892B89838981282F30E03F832E838E8147
:1016F0009F81803B9105D1F02E813F81213B3105B7
:1017000034F48E819F818037910599F015C02E8128
:101710003F81203D310541F08E819F81803E9105C2
:1017200059F493E29C870AC01C8608C02DE32C87DD
:1017300005C03FE23C8702C08FEF8C878C852E96D8
:101740000FB6F894DEBF0FBECDBFCF91DF910895E5
:10175000DF93CF930F92CDB7DEB7898380E060E04F
:101760000E94C90781E060E00E94C90782E061E051
:101770000E94C9078981982F917088E1692F0E9482
:10178000C90789818695982F917089E1692F0E94F8
:10179000C907898186958695982F91708AE1692F6E
:1017A0000E94C9078981869586958695982F9170A4
:1017B0008BE1692F0E94C907898182958F70982FCC
:1017C00091708CE1692F0E94C90789818295869565
:1017D0008770982F917083E0692F0E94C9078981D3
:1017E0008295869586958370982F91708EE1692FEA
:1017F0000E94C9078981982F991F9927991F84E012
:10180000692F0E94C9070F90CF91DF910895DF9350
:10181000CF930F92CDB7DEB780E061E00E94DE0685
:1018200081E061E00E94DE0682E061E00E94DE0667
:1018300088E161E00E94DE0689E161E00E94DE0647
:101840008AE161E00E94DE068BE161E00E94DE0633
:101850008CE161E00E94DE0683E061E00E94DE062A
:101860008EE161E00E94DE0684E061E00E94DE0617
:1018700080914802882F90E0FC01EF56FD4F88E3ED
:10188000808380914802882F90E0FC01E15AFD4F4F
:1018900081E08083809148028F5F8093480280912D
:1018A0004802882F90E0FC01EF56FD4F8CE08083CA
:1018B00080914802882F90E0FC01E15AFD4F81E0C1
:1018C0008083809148028F5F809348028091480214
:1018D000882F90E0FC01EF56FD4F81E080838091DE
:1018E0004802882F90E0FC01E15AFD4F81E080839F
:1018F000809148028F5F8093480283E0898313C000
:101900008981882F90E0FC01EF56FD4F8FEF808397
:101910008981882F90E0FC01E15AFD4F8FEF808391
:1019200089818F5F89838981823350F30F90CF91B2
:10193000DF910895DF93CF930F92CDB7DEB7898300
:1019400080E061E00E94C90781E060E00E94C90771
:1019500082E061E00E94C9078981982F917088E137
:10196000692F0E94C90789818695982F917089E116
:10197000692F0E94C907898186958695982F917055
:101980008AE1692F0E94C907898186958695869587
:10199000982F91708BE1692F0E94C90789818295E8
:1019A0008F70982F91708CE1692F0E94C9078981EF
:1019B000829586958770982F917083E0692F0E9499
:1019C000C90789818295869586958370982F917035
:1019D0008EE1692F0E94C9078981982F991F992745
:1019E000991F84E0692F0E94C9070F90CF91DF9162
:1019F0000895DF93CF93CDB7DEB782E060E00E9419
:101A0000C907CF91DF910895DF93CF93CDB7DEB7AC
:101A100082E061E00E94C907CF91DF910895DF93D2
:101A2000CF930F92CDB7DEB7898380914802882F7C
:101A300090E0FC01EF56FD4F898180838091480240
:101A4000882F90E0FC01E15AFD4F108280914802FE
:101A50008F5F809348020F90CF91DF910895DF93BD
:101A6000CF930F92CDB7DEB7898380914802882F3C
:101A700090E0FC01EF56FD4F898180838091480200
:101A8000882F90E0FC01E15AFD4F81E08083809136
:101A900048028F5F809348020F90CF91DF910895A5
:101AA000DF93CF9300D00F92CDB7DEB79B838A83AD
:101AB000198221C080914802482F50E08981282F47
:101AC00030E08A819B81FC01E20FF31F8081FA01E3
:101AD000EF56FD4F808380914802882F90E0FC01F3
:101AE000E15AFD4F108289818F5F8983809148027E
:101AF0008F5F809348028981282F30E08A819B8103
:101B0000FC01E20FF31F80818823A1F60F900F9054
:101B10000F90CF91DF910895DF93CF930F92CDB7C0
:101B2000DEB7198213C08981882F90E0FC01EF563F
:101B3000FD4F8FEF80838981882F90E0FC01E15A6F
:101B4000FD4F8FEF808389818F5F89838981823305
:101B500050F3109248020F90CF91DF910895DF93D8
:101B6000CF9300D000D000D0CDB7DEB7809149022E
:101B7000882F90E0FC01E15AFD4F80818B838B819F
:101B80008F3FA9F18B81282F30E03E832D838D81FB
:101B90009E81009731F02D813E812130310599F0F1
:101BA00023C080914902882F90E0FC01EF56FD4F41
:101BB00080818A838A810E949A0C809149028F5F7A
:101BC0008093490211C080914902882F90E0FC0166
:101BD000EF56FD4F80818A838A810E94A80B8091F5
:101BE00049028F5F8093490231E03C831EC0198215
:101BF00013C08981882F90E0FC01EF56FD4F8FEFD5
:101C000080838981882F90E0FC01E15AFD4F8FEF9E
:101C1000808389818F5F89838981823350F3109219
:101C20004802109249028FEF8C838C8126960FB662
:101C3000F894DEBF0FBECDBFCF91DF910895DF9343
:101C4000CF9300D00F92CDB7DEB789838981282F3B
:101C500030E03B832A838A819B8184309105C9F1DE
:101C60002A813B812530310584F48A819B81823031
:101C7000910529F12A813B81233031052CF58A8198
:101C80009B8181309105B1F03CC02A813B81263097
:101C9000310549F18A819B8186309105FCF02A81CA
:101CA0003B812730310521F18A819B818830910564
:101CB00021F127C086E061E00E94DE0622C081E1BA
:101CC00061E00E94DE061DC082E161E00E94DE0646
:101CD00018C083E161E00E94DE0613C088E161E084
:101CE0000E94DE060EC085E161E00E94DE0609C0AA
:101CF00086E161E00E94DE0604C087E161E00E94A7
:101D0000DE060F900F900F90CF91DF910895DF9333
:101D1000CF9300D00F92CDB7DEB789838981282F6A
:101D200030E03B832A838A819B8184309105C9F10D
:101D30002A813B812530310584F48A819B81823060
:101D4000910529F12A813B81233031052CF58A81C7
:101D50009B8181309105B1F03CC02A813B812630C6
:101D6000310549F18A819B8186309105FCF02A81F9
:101D70003B812730310521F18A819B818830910593
:101D800021F127C086E061E00E94C90722C081E1FD
:101D900061E00E94C9071DC082E161E00E94C9079D
:101DA00018C083E161E00E94C90713C088E161E0C7
:101DB0000E94C9070EC085E161E00E94C90709C001
:101DC00086E161E00E94C90704C087E161E00E94EA
:101DD000C9070F900F900F90CF91DF910895DF9377
:101DE000CF9300D00F92CDB7DEB789838981282F9A
:101DF00030E03B832A838A819B8184309105C9F13D
:101E00002A813B812530310584F48A819B8182308F
:101E1000910529F12A813B81233031052CF58A81F6
:101E20009B8181309105B1F03CC02A813B812630F5
:101E3000310549F18A819B8186309105FCF02A8128
:101E40003B812730310521F18A819B8188309105C2
:101E500021F127C086E060E00E94C90722C081E12D
:101E600060E00E94C9071DC082E160E00E94C907CE
:101E700018C083E160E00E94C90713C088E160E0F8
:101E80000E94C9070EC085E160E00E94C90709C031
:101E900086E160E00E94C90704C087E160E00E941B
:101EA000C9070F900F900F90CF91DF910895DF93A6
:101EB000CF93CDB7DEB78FE161E00E94DE060E94CE
:101EC000EF13CF91DF910895DF93CF9300D0CDB77B
:101ED000DEB78A838A81882F90E0880F991F8983D3
:101EE00089810E9430140F900F90CF91DF91089557
:101EF000DF93CF930F92CDB7DEB719820DC08981E2
:101F0000882F90E0880F991FFC01ED53FD4F11823F
:101F1000108289818F5F898389818E3180F38FE37D
:101F200090E10E94CE1180EC0E94A0110E946911E4
:101F30000F90CF91DF910895DF93CF9300D00F9250
:101F4000CDB7DEB79A8389836B838B81882F90E02E
:101F5000880F991FFC01ED53FD4F89819A81918370
:101F600080830F900F900F90CF91DF910895DF93B2
:101F7000CF930F92CDB7DEB7198279C08981882FB0
:101F800090E0880F991FFC01ED53FD4F80819181F6
:101F9000009709F469C08981882F90E0880F991F04
:101FA000FC01ED53FD4F0190F081E02D82858130E1
:101FB00009F05AC08981882F90E0880F991FFC0191
:101FC000ED53FD4F0190F081E02D80819181A28140
:101FD000B3810097A105B10589F58981882F90E02B
:101FE000880F991FFC01ED53FD4F0190F081E02D0A
:101FF0000084F185E02D09958981882F90E0880F74
:10200000991FFC01ED53FD4F208131818981882F7B
:1020100090E0880F991FFC01ED53FD4F0190F08176
:10202000E02D84819581A681B7810197A109B1092D
:10203000F90180839183A283B38316C08981882F9D
:1020400090E0880F991FFC01ED53FD4F0190F08146
:10205000E02D80819181A281B3810197A109B1090D
:1020600080839183A283B38389818F5F89838981F0
:102070008E3108F483CF0F90CF91DF910895DF93D5
:10208000CF93CDB7DEB780914A0290914B02A091D9
:102090004C02B0914D020196A11DB11D80934A02E0
:1020A00090934B02A0934C02B0934D0280914A0250
:1020B00090914B02A0914C02B0914D02803291055B
:1020C000A105B10569F410924A0210924B021092D8
:1020D0004C0210924D0280EC0E94A0110E94B70F9A
:1020E000CF91DF910895DF93CF93CDB7DEB78DE128
:1020F00061E00E94DE060E943A1280E29EE40E94A5
:102100008712CF91DF910895DF93CF93CDB7DEB7DC
:1021100027970FB6F894DEBF0FBECDBF8F838F8198
:10212000882F90E0AA2797FDA095BA2FBC01CD017A
:102130000E94F503DC01CB01BC01CD0126E636E6A9
:1021400046E050E40E941F02DC01CB01BC01CD013E
:1021500020E030E044E353E40E941903DC01CB01AA
:10216000BC01CD012DEC3CEC4CEC5EE30E94F20195
:10217000DC01CB018B839C83AD83BE836B817C812F
:102180008D819E8120E030E04AE754E40E941F02E6
:10219000DC01CB01BC01CD010E944900DC01CB0177
:1021A0009A83898389819A810E94AB1227960FB600
:1021B000F894DEBF0FBECDBFCF91DF910895DF93BE
:1021C000CF93CDB7DEB788E061E00E94DE0689E0FC
:1021D00061E00E94DE068AE061E00E94DE068BE09C
:1021E00061E00E94DE06CF91DF910895DF93CF93E7
:1021F000CDB7DEB788E061E00E94C90789E060E002
:102200000E94C9078AE060E00E94C9078BE060E095
:102210000E94C907CF91DF910895DF93CF93CDB787
:10222000DEB788E060E00E94C90789E061E00E94B3
:10223000C9078AE060E00E94C9078BE060E00E9465
:10224000C907CF91DF910895DF93CF93CDB7DEB764
:1022500088E060E00E94C90789E060E00E94C90749
:102260008AE061E00E94C9078BE060E00E94C90734
:10227000CF91DF910895DF93CF93CDB7DEB788E09C
:1022800060E00E94C90789E060E00E94C9078AE017
:1022900060E00E94C9078BE061E00E94C907CF910E
:1022A000DF910895DF93CF93CDB7DEB788E060E08C
:1022B0000E94C90789E060E00E94C9078AE060E0E7
:1022C0000E94C9078BE060E00E94C907CF91DF91AF
:1022D0000895DF93CF93CDB7DEB7E3E5F0E08081DB
:1022E0008F7B8083E3E5F0E08081877F8083E3E577
:1022F000F0E080818F7C8083E3E5F0E08081887F5F
:1023000081608083EFE5F0E0808180688083E9E58B
:10231000F0E0808181608083E9E5F0E080818D7F5D
:102320008083CF91DF910895DF93CF93CDB7DEB750
:10233000E3E5F0E08081887F8083CF91DF9108958D
:10234000DF93CF930F92CDB7DEB78983E2E5F0E05C
:10235000898180830F90CF91DF910895DF93CF9390
:102360000F92CDB7DEB78983ECE5F0E089818083F9
:102370000F90CF91DF910895DF93CF9300D0CDB729
:10238000DEB79A83898389819A8190930003809331
:10239000FF020F900F90CF91DF910895DF93CF93BD
:1023A00000D0CDB7DEB79A83898389819A819093D3
:1023B0000203809301030F900F90CF91DF91089556
:1023C0001F920F920FB60F9211242F933F934F93AA
:1023D0005F936F937F938F939F93AF93BF93EF938D
:1023E000FF93DF93CF93CDB7DEB7E091FF02F0917B
:1023F00000030995CF91DF91FF91EF91BF91AF91CC
:102400009F918F917F916F915F914F913F912F910C
:102410000F900FBE0F901F9018951F920F920FB63E
:102420000F9211242F933F934F935F936F937F935A
:102430008F939F93AF93BF93EF93FF93DF93CF93CC
:10244000CDB7DEB7E0910103F09102030995CF917A
:10245000DF91FF91EF91BF91AF919F918F917F910C
:102460006F915F914F913F912F910F900FBE0F9001
:102470001F901895DF93CF93CDB7DEB7EFE4F0E070
:1024800080818E7F8083EFE4F0E0808182608083B2
:10249000EEE4F0E0808188608083EEE4F0E080810B
:1024A00080618083EFE4F0E080818F7380688083B7
:1024B000EEE4F0E08081887F82608083E9E5F0E0EF
:1024C00080818B7F8083E9E5F0E080818F7E80834F
:1024D000E9E5F0E08081877F8083E9E5F0E08081B5
:1024E0008F7D8083CF91DF910895DF93CF9300D0CC
:1024F000CDB7DEB79A838983ECE4F0E089819A81D5
:10250000918380830F900F90CF91DF910895DF9397
:10251000CF9300D0CDB7DEB79A838983E6E4F0E0AD
:1025200089819A81918380830F900F90CF91DF9161
:102530000895DF93CF9300D0CDB7DEB7E6E4F0E0A7
:10254000808191819A83898389819A810F900F90EC
:10255000CF91DF910895DF93CF9300D0CDB7DEB751
:102560009A838983EAE4F0E089819A819183808368
:102570000F900F90CF91DF910895DF93CF9300D00C
:10258000CDB7DEB79A838983E8E4F0E089819A8148
:10259000918380830F900F90CF91DF910895DF9307
:1025A000CF93CDB7DEB7EEE4F0E080818064808326
:1025B000CF91DF910895DF93CF93CDB7DEB7EEE4EF
:1025C000F0E080818F7B8083CF91DF910895DF934E
:1025D000CF93CDB7DEB7EEE4F0E08081887F8083D3
:1025E000CF91DF910895DF93CF9300D0CDB7DEB7C1
:1025F0009A83898389819A8190930203809301034E
:102600000F900F90CF91DF910895DF93CF9300D07B
:10261000CDB7DEB79A83898389819A819093080325
:10262000809307030F900F90CF91DF910895DF9370
:10263000CF9300D0CDB7DEB79A83898389819A8101
:1026400090930603809305030F900F90CF91DF9135
:102650000895DF93CF9300D0CDB7DEB79A838983F7
:1026600089819A8190930403809303030F900F90C4
:10267000CF91DF9108951F920F920FB60F92112400
:102680002F933F934F935F936F937F938F939F937A
:10269000AF93BF93EF93FF93DF93CF93CDB7DEB7A5
:1026A000E0910103F09102030995CF91DF91FF9131
:1026B000EF91BF91AF919F918F917F916F915F91BA
:1026C0004F913F912F910F900FBE0F901F90189533
:1026D0001F920F920FB60F9211242F933F934F9397
:1026E0005F936F937F938F939F93AF93BF93EF937A
:1026F000FF93DF93CF93CDB7DEB7E0910503F09161
:1027000006030995CF91DF91FF91EF91BF91AF91B2
:102710009F918F917F916F915F914F913F912F91F9
:102720000F900FBE0F901F9018951F920F920FB62B
:102730000F9211242F933F934F935F936F937F9347
:102740008F939F93AF93BF93EF93FF93DF93CF93B9
:10275000CDB7DEB7E0910703F09108030995CF915B
:10276000DF91FF91EF91BF91AF919F918F917F91F9
:102770006F915F914F913F912F910F900FBE0F90EE
:102780001F9018951F920F920FB60F9211242F933E
:102790003F934F935F936F937F938F939F93AF93E9
:1027A000BF93EF93FF93DF93CF93CDB7DEB7E09165
:1027B0000303F09104030995CF91DF91FF91EF910D
:1027C000BF91AF919F918F917F916F915F914F9149
:1027D0003F912F910F900FBE0F901F901895DF9390
:1027E000CF93CDB7DEB7E5E4F0E0808180648083ED
:1027F000E5E4F0E0808188608083E5E4F0E08081BA
:102800008F7C80628083E5E4F0E08081887F816056
:102810008083E9E5F0E080818F7B8083E9E5F0E06B
:1028200080818F778083CF91DF910895DF93CF935D
:10283000CDB7DEB7E5E4F0E08081887F8083CF917B
:10284000DF910895DF93CF930F92CDB7DEB78983E1
:10285000E4E4F0E0898180830F90CF91DF910895C7
:10286000DF93CF930F92CDB7DEB78983E3E4F0E037
:10287000898180830F90CF91DF910895DF93CF936B
:1028800000D0CDB7DEB79A83898389819A819093EE
:1028900000038093FF020F900F90CF91DF91089576
:1028A000DF93CF9300D0CDB7DEB79A838983898138
:1028B0009A8190930203809301030F900F90CF9120
:1028C000DF9108951F920F920FB60F9211242F934C
:1028D0003F934F935F936F937F938F939F93AF93A8
:1028E000BF93EF93FF93DF93CF93CDB7DEB7E09124
:1028F000FF02F09100030995CF91DF91FF91EF91D5
:10290000BF91AF919F918F917F916F915F914F9107
:102910003F912F910F900FBE0F901F9018951F920F
:102920000F920FB60F9211242F933F934F935F9303
:102930006F937F938F939F93AF93BF93EF93FF9387
:10294000DF93CF93CDB7DEB7E0910103F09102039F
:102950000995CF91DF91FF91EF91BF91AF919F9139
:102960008F917F916F915F914F913F912F910F9038
:102970000FBE0F901F901895DF93CF93CDB7DEB7A2
:102980000E94070C0E943C090E94DF100E947310F5
:102990000E94570F0E94BD0681E00E941F0E0E94F8
:1029A0009C060E94780F1092140310921503109247
:1029B00016031092170382E390E0A0E0B0E080934A
:1029C000180390931903A0931A03B0931B0382E496
:1029D00096E190931D0380931C0381E080931E0376
:1029E00010926C0310926D0310926E0310926F039D
:1029F0008AE090E0A0E0B0E08093700390937103D0
:102A0000A0937203B09373038FEF9AE190937503D1
:102A10008093740381E08093760310922A031092CE
:102A20002B0310922C0310922D0383E090E0A0E082
:102A3000B0E080932E0390932F03A0933003B093C4
:102A4000310386E19BE1909333038093320310922C
:102A5000340310927A0310927B0310927C0310923D
:102A60007D0384E690E0A0E0B0E080937E03909345
:102A70007F03A0938003B093810383E696E1909354
:102A800083038093820381E0809384031092350353
:102A900010923603109237031092380382E090E0D0
:102AA000A0E0B0E08093390390933A03A0933B03F6
:102AB000B0933C0384E097E190933E0380933D0301
:102AC00010923F031092560310925703109258032E
:102AD0001092590384E690E0A0E0B0E080935A039E
:102AE00090935B03A0935C03B0935D0385EF97E144
:102AF00090935F0380935E031092600310924B03E8
:102B000010924C0310924D0310924E0384E690E015
:102B1000A0E0B0E080934F0390935003A093510343
:102B2000B09352038EE898E190935403809353033B
:102B300010925503109240031092410310924203E9
:102B40001092430384E690E0A0E0B0E08093440359
:102B500090934503A0934603B09347038DE699E114
:102B6000909349038093480310924A0310926103A3
:102B700010926203109263031092640384E690E063
:102B8000A0E0B0E08093650390936603A093670391
:102B9000B09368038CE49AE190936A03809369038D
:102BA00010926B0310921F031092200310922103C6
:102BB0001092220384E690E0A0E0B0E0809323032B
:102BC00090932403A0932503B093260380EC9AE10D
:102BD00090932803809327031092290310920903EE
:102BE00010920A0310920B0310920C0384E690E0FB
:102BF000A0E0B0E080930D0390930E03A0930F0329
:102C0000B093100383EF9AE1909312038093110322
:102C10001092130384E193E060E00E949C0F8CE625
:102C200093E061E00E949C0F8AE293E062E00E94E0
:102C30009C0F8AE793E063E00E949C0F85E393E09A
:102C400064E00E949C0F86E593E065E00E949C0F83
:102C50008BE493E066E00E949C0F80E493E067E0E1
:102C60000E949C0F81E693E068E00E949C0F8FE138
:102C700093E069E00E949C0F89E093E06AE00E9483
:102C80009C0FFFCFDF93CF930F92CDB7DEB70E949B
:102C90008309898389818F3F39F080914F02823087
:102CA00019F489818093460280914F028F5F80934F
:102CB0004F0280914F02833011F410924F020F9017
:102CC000CF91DF910895DF93CF93CDB7DEB7809199
:102CD00050028823D9F481E00E942F0D84E690E011
:102CE000A0E0B0E080937E0390937F03A0938003E5
:102CF000B093810380E690E00E94500D80EC0E942A
:102D00002F0D809150028F5F809350028091460278
:102D1000833209F1809146028F3FE9F080914602AB
:102D2000805D0E940F0D80915302882F90E0FC017E
:102D3000EE5BFD4F908180914602981719F081E07B
:102D4000809351028FEF80934602809153028F5FF0
:102D50008093530256C080914602833209F051C0DD
:102D60008FEF80934602809151028823C9F48091AD
:102D700053028430A9F481E00E942F0D82E790E095
:102D80000E94500D1092840310921E0381E08093E4
:102D90003F0310925002109252021092530231C01F
:102DA00080915202823079F481E00E942F0D82E8F6
:102DB00090E00E94500D1092840310921E0381E057
:102DC000809313031EC0809152028F5F8093520242
:102DD00081E00E942F0D10925002109251028CED52
:102DE00095E0A0E0B0E080937E0390937F03A093F2
:102DF0008003B093810381E990E00E94500D10920E
:102E00005302CF91DF910895DF93CF9300D000D08C
:102E1000CDB7DEB780915402882309F065C0809158
:102E200056029091570221E08130920708F05CC071
:102E300080915502282F30E03C832B838B819C812D
:102E400081309105C1F02B813C81223031052CF479
:102E50008B819C81009761F01FC02B813C812230C7
:102E6000310561F08B819C818330910551F014C054
:102E70000E94F61011C00E940D110EC00E94241174
:102E80000BC00E943B11809156029091570201960F
:102E90009093570280935602809155028F5F8093E2
:102EA000550280915502843011F4109255028091A0
:102EB00056029091570221E08130920709F08EC0AE
:102EC00088EE93E0A0E0B0E08093390390933A035A
:102ED000A0933B03B0933C0310925702109256020A
:102EE00081E0809354027AC080915402813009F0CD
:102EF00075C0809156029091570231E0813093075E
:102F000008F06CC082E090E0A0E0B0E0809339036C
:102F100090933A03A0933B03B0933C0380915502F6
:102F2000282F30E03A83298389819A818130910565
:102F3000C1F029813A81223031052CF489819A81AE
:102F4000009761F01FC029813A812230310561F07C
:102F500089819A818330910551F014C00E943B1100
:102F600011C00E9424110EC00E940D110BC00E94BE
:102F7000F610809156029091570201969093570255
:102F800080935602809155028F5F80935502809105
:102F90005502843011F4109255028091560290919E
:102FA000570221E081309207C9F480914E028130AE
:102FB00021F481E08093290309C081E00E942F0D54
:102FC00081E080931E0381E08093600310923F03B1
:102FD0001092570210925602109254020F900F90C6
:102FE0000F900F90CF91DF910895DF93CF9300D092
:102FF000CDB7DEB780915802882369F581E00E9441
:103000002F0D8FE990E00E94500D80EC0E942F0D53
:1030100088EA90E00E94500D89E80E942F0D80EB15
:1030200090E00E94500D89EC0E942F0D86EB90E0FD
:103030000E94500D84E690E0A0E0B0E080935A0337
:1030400090935B03A0935C03B0935D03809158025F
:103050008F5F80935802809146028F3F09F459C0D8
:1030600080914602282F30E03A83298389819A8112
:1030700082309105F1F029813A812330310534F411
:1030800089819A818130910561F02BC029813A8133
:1030900023303105B1F089819A8184309105C9F0DE
:1030A00020C081E080935503109260031092580273
:1030B0002DC081E080934A03109260031092580261
:1030C00025C081E080936B03109260031092580238
:1030D0001DC081E080932903109260031092580272
:1030E00015C081E00E942F0D8DEB90E00E94500DE5
:1030F0008CED95E0A0E0B0E080935A0390935B03E1
:10310000A0935C03B0935D03109258028FEF8093FD
:1031100046020F900F90CF91DF910895DF93CF93E8
:1031200000D00F92CDB7DEB780915A02882371F597
:1031300081E00E942F0D8DEC90E00E94500D80ECFC
:103140000E942F0D87ED90E00E94500D84E690E0E4
:10315000A0E0B0E080934F0390935003A0935103FD
:10316000B093520319820AC08981882F90E0FC0134
:10317000E958FC4F108289818F5F89838981833070
:1031800098F380915A028F5F80935A028091460291
:103190008A30C0F480914602805D0E940F0D8091BC
:1031A0005902882F90E020914602FC01E958FC4F1B
:1031B00020838FEF80934602809159028F5F809326
:1031C000590285C080914602833209F080C08FEF9A
:1031D0008093460280915902813039F480917703BF
:1031E000882F90E09B838A8345C08091590282306A
:1031F000B9F480917703882F90E09C01220F331F50
:10320000C901880F991F880F991F280F391F8091B6
:103210007803882F90E0820F931F9B838A832AC0B4
:1032200080915902833031F580917703282F30E067
:1032300084E690E0289FA001299F500D389F500DF3
:10324000112480917803882F90E09C01220F331F76
:10325000C901880F991F880F991F820F931F9A0128
:10326000280F391F80917903882F90E0820F931FD8
:103270009B838A838A819B81853B910588F4809119
:103280005902843068F48A810E94841081E080931E
:103290006003109255031092590210925A0217C0FF
:1032A00081E00E942F0D80EE90E00E94500D8CED89
:1032B00095E0A0E0B0E080934F0390935003A0937B
:1032C0005103B09352031092590210925A020F9078
:1032D0000F900F90CF91DF910895DF93CF9300D09F
:1032E0000F92CDB7DEB780915C02882371F581E043
:1032F0000E942F0D82EF90E00E94500D80EC0E9402
:103300002F0D8BEF90E00E94500D84E690E0A0E03E
:10331000B0E08093440390934503A0934603B09399
:10332000470319820AC08981882F90E0FC01E9587F
:10333000FC4F108289818F5F89838981833098F364
:1033400080915C028F5F80935C02809146028A309C
:10335000C0F480914602805D0E940F0D80915B0257
:10336000882F90E020914602FC01E958FC4F208311
:103370008FEF8093460280915B028F5F80935B02A8
:1033800085C080914602833209F080C08FEF809320
:10339000460280915B02813039F480917703882F57
:1033A00090E09B838A8345C080915B028230B9F4B0
:1033B00080917703882F90E09C01220F331FC90171
:1033C000880F991F880F991F280F391F8091780344
:1033D000882F90E0820F931F9B838A832AC080915D
:1033E0005B02833031F580917703282F30E084E64B
:1033F00090E0289FA001299F500D389F500D112467
:1034000080917803882F90E09C01220F331FC9011F
:10341000880F991F880F991F820F931F9A01280FF9
:10342000391F80917903882F90E0820F931F9B832F
:103430008A838A819B818536910588F480915B021D
:10344000843068F48A810E94640F81E08093600375
:1034500010924A0310925B0210925C0217C081E046
:103460000E942F0D88E091E00E94500D8CED95E0B8
:10347000A0E0B0E08093440390934503A0934603FB
:10348000B093470310925B0210925C020F900F9072
:103490000F90CF91DF910895DF93CF9300D0CDB7F8
:1034A000DEB780915D02882331F581E00E942F0D07
:1034B0008AE191E00E94500D80EC0E942F0D81E284
:1034C00091E00E94500D88EC0E942F0D89E291E05E
:1034D0000E94500D84E690E0A0E0B0E08093650388
:1034E00090936603A0936703B093680380915D0295
:1034F0008F5F80935D02809146028F3FE1F1809162
:103500004602282F30E03A83298389819A810097E7
:1035100031F029813A812130310559F014C00E94DF
:10352000D30681E08093600310926B0310925D02DA
:103530001FC00E94C80681E08093600310926B0355
:1035400010925D0215C081E00E942F0D8DEB90E07E
:103550000E94500D8CED95E0A0E0B0E080936503F3
:1035600090936603A0936703B093680310925D0283
:103570008FEF809346020F900F90CF91DF910895C7
:10358000DF93CF93CDB7DEB780915E028823A9F495
:1035900081E00E942F0D80E391E00E94500D109277
:1035A000290381E080933F0381E080934E02809164
:1035B0005E028F5F80935E0213C080E00E948410E1
:1035C00080E00E94640F0E94D30681E08093840310
:1035D00010923F031092290310924E0210925E0245
:1035E000CF91DF910895DF93CF93CDB7DEB781E020
:1035F0000E94870E0E94A706CF91DF910895DF9366
:10360000CF930F92CDB7DEB70E94040D0E94AF0D8D
:10361000898389818F3F21F081E08093340302C048
:103620000E94040D0F90CF91DF910895DF93CF9307
:10363000CDB7DEB70E94F90C10923403CF91DF9121
:1036400008952F923F924F925F926F927F928F9246
:103650009F92AF92BF92CF92DF92EF92FF920F9321
:103660001F93CF93DF93CDB7DEB7CA1BDB0B0FB62B
:10367000F894DEBF0FBECDBF09942A8839884888E8
:103680005F846E847D848C849B84AA84B984C8847E
:10369000DF80EE80FD800C811B81AA81B981CE0F75
:1036A000D11D0FB6F894DEBF0FBECDBFED0108955A
:0436B000F894FFCFBC
:1036B400456E7465722050617373776F7264203A3B
:1036C400200057656C636F6D6520486F6D652E2E05
:1036D4002E0053797374656D20426C6F636B65645F
:1036E4000020204E6F742056616C696420200031E4
:1036F4002D57696E646F7700322D4C6967687400CA
:10370400332D46616E00342D45786974004E6F7414
:103714002056616C696420496E5075740057696E57
:10372400646F77203A2000416E676C65203D20006D
:10373400204E6F742056616C696420416E676C651D
:1037440020004C69676874203A2000496E74656EE5
:1037540073697479203D2000204E6F742056616C8B
:10376400696420496E507574200046616E203A20C9
:1037740000302D204F46462000312D204F4E200092
:1037840020476F6F6442796520000000000000004C
:1037940000000001020203030303040404040404FC
:1037A40004040505050505050505050505050505C7
:1037B40005050606060606060606060606060606A7
:1037C4000606060606060606060606060606060695
:1037D4000606070707070707070707070707070777
:1037E4000707070707070707070707070707070765
:1037F4000707070707070707070707070707070755
:103804000707070707070707070707070707070744
:103814000707080808080808080808080808080826
:103824000808080808080808080808080808080814
:103834000808080808080808080808080808080804
:1038440008080808080808080808080808080808F4
:1038540008080808080808080808080808080808E4
:1038640008080808080808080808080808080808D4
:1038740008080808080808080808080808080808C4
:1038840008080808080808080808080808080808B4
:08389400080801020304FF0013
:00000001FF
