:100000000C942A000C9447000C9447000C94470071
:100010000C9447000C9447000C9447000C94F9137F
:100020000C9447000C9447000C9447000C94470034
:100030000C9447000C9447000C9447000C94470024
:100040000C9447000C9447000C9447000C94470014
:100050000C94470011241FBECFE5D8E0DEBFCDBF12
:1000600010E0A0E6B0E0EEEDF0E602C005900D92E3
:10007000A437B107D9F716E0A4E7B0E001C01D929C
:10008000AC3BB107E1F70E94BD100C946D300C94AD
:100090000000DF93CF93CDB7DEB727970FB6F89464
:1000A000DEBF0FBECDBF89836A834B838B818130D6
:1000B00009F06FC08981282F30E03F832E838E8125
:1000C0009F818130910549F12E813F812230310598
:1000D0002CF48E819F81009761F0D2C02E813F81E8
:1000E0002230310571F18E819F8183309105E9F1D4
:1000F000C7C0AAE3B0E0EAE3F0E08081482F8A813C
:10010000282F30E081E090E0022E02C0880F991F76
:100110000A94E2F7842B8C93B3C0A7E3B0E0E7E343
:10012000F0E08081482F8A81282F30E081E090E044
:10013000022E02C0880F991F0A94E2F7842B8C9339
:100140009FC0A4E3B0E0E4E3F0E08081482F8A811F
:10015000282F30E081E090E0022E02C0880F991F26
:100160000A94E2F7842B8C938BC0A1E3B0E0E1E327
:10017000F0E08081482F8A81282F30E081E090E0F4
:10018000022E02C0880F991F0A94E2F7842B8C93E9
:1001900077C08B81882309F073C08981282F30E0D4
:1001A0003D832C838C819D818130910559F12C8177
:1001B0003D81223031052CF48C819D81009769F0BE
:1001C0005FC02C813D812230310589F18C819D8178
:1001D0008330910509F440C053C0AAE3B0E0EAE3DC
:1001E000F0E08081482F8A81282F30E081E090E084
:1001F000022E02C0880F991F0A94E2F7809584238B
:100200008C933EC0A7E3B0E0E7E3F0E08081482FA5
:100210008A81282F30E081E090E0022E02C0880F12
:10022000991F0A94E2F7809584238C9329C0A4E354
:10023000B0E0E4E3F0E08081482F8A81282F30E0AD
:1002400081E090E0022E02C0880F991F0A94E2F725
:10025000809584238C9314C0A1E3B0E0E1E3F0E047
:100260008081482F8A81282F30E081E090E0022EA3
:1002700002C0880F991F0A94E2F7809584238C931B
:1002800027960FB6F894DEBF0FBECDBFCF91DF919A
:100290000895DF93CF93CDB7DEB727970FB6F894C5
:1002A000DEBF0FBECDBF89836A834B838B818130D4
:1002B00009F06FC08981282F30E03F832E838E8123
:1002C0009F818130910549F12E813F812230310596
:1002D0002CF48E819F81009761F0D2C02E813F81E6
:1002E0002230310571F18E819F8183309105E9F1D2
:1002F000C7C0ABE3B0E0EBE3F0E08081482F8A8138
:10030000282F30E081E090E0022E02C0880F991F74
:100310000A94E2F7842B8C93B3C0A8E3B0E0E8E33F
:10032000F0E08081482F8A81282F30E081E090E042
:10033000022E02C0880F991F0A94E2F7842B8C9337
:100340009FC0A5E3B0E0E5E3F0E08081482F8A811B
:10035000282F30E081E090E0022E02C0880F991F24
:100360000A94E2F7842B8C938BC0A2E3B0E0E2E323
:10037000F0E08081482F8A81282F30E081E090E0F2
:10038000022E02C0880F991F0A94E2F7842B8C93E7
:1003900077C08B81882309F073C08981282F30E0D2
:1003A0003D832C838C819D818130910559F12C8175
:1003B0003D81223031052CF48C819D81009769F0BC
:1003C0005FC02C813D812230310589F18C819D8176
:1003D0008330910509F440C053C0ABE3B0E0EBE3D8
:1003E000F0E08081482F8A81282F30E081E090E082
:1003F000022E02C0880F991F0A94E2F78095842389
:100400008C933EC0A8E3B0E0E8E3F0E08081482FA1
:100410008A81282F30E081E090E0022E02C0880F10
:10042000991F0A94E2F7809584238C9329C0A5E351
:10043000B0E0E5E3F0E08081482F8A81282F30E0AA
:1004400081E090E0022E02C0880F991F0A94E2F723
:10045000809584238C9314C0A2E3B0E0E2E3F0E043
:100460008081482F8A81282F30E081E090E0022EA1
:1004700002C0880F991F0A94E2F7809584238C9319
:1004800027960FB6F894DEBF0FBECDBFCF91DF9198
:100490000895DF93CF9300D000D00F92CDB7DEB791
:1004A0008A836B8319828A81282F30E03D832C83D5
:1004B0004C815D814130510541F18C819D818230BB
:1004C000910534F42C813D812115310561F052C034
:1004D0004C815D814230510551F18C819D81833089
:1004E0009105B9F147C0E9E3F0E08081282F30E0C1
:1004F0008B81882F90E0A90102C0559547958A9578
:10050000E2F7CA018170898335C0E6E3F0E08081BB
:10051000282F30E08B81882F90E0A90102C05595EB
:1005200047958A95E2F7CA018170898323C0E3E386
:10053000F0E08081282F30E08B81882F90E0A901A6
:1005400002C0559547958A95E2F7CA018170898363
:1005500011C0E0E3F0E08081282F30E08B81882F0C
:1005600090E0A90102C0559547958A95E2F7CA0126
:100570008170898389810F900F900F900F900F9059
:10058000CF91DF910895DF93CF9300D000D0CDB706
:10059000DEB789836A838981282F30E03C832B83EF
:1005A0008B819C818130910549F12B813C812230E6
:1005B00031052CF48B819C81009761F05AC02B810E
:1005C0003C812230310571F18B819C818330910512
:1005D000E9F14FC0ABE3B0E0EBE3F0E08081482FFE
:1005E0008A81282F30E081E090E0022E02C0880F3F
:1005F000991F0A94E2F784278C933BC0A8E3B0E0EC
:10060000E8E3F0E08081482F8A81282F30E081E004
:1006100090E0022E02C0880F991F0A94E2F7842707
:100620008C9327C0A5E3B0E0E5E3F0E08081482F9C
:100630008A81282F30E081E090E0022E02C0880FEE
:10064000991F0A94E2F784278C9313C0A2E3B0E0C9
:10065000E2E3F0E08081482F8A81282F30E081E0BA
:1006600090E0022E02C0880F991F0A94E2F78427B7
:100670008C930F900F900F900F90CF91DF91089572
:10068000DF93CF9300D000D0CDB7DEB789836A83E4
:100690008981282F30E03C832B838B819C818130A2
:1006A0009105D1F02B813C81223031052CF48B81D6
:1006B0009C81009761F01EC02B813C812230310566
:1006C00081F08B819C818330910581F013C0EAE336
:1006D000F0E08A8180830EC0E7E3F0E08A818083C6
:1006E00009C0E4E3F0E08A81808304C0E1E3F0E044
:1006F0008A8180830F900F900F900F90CF91DF91A0
:100700000895DF93CF9300D000D0CDB7DEB78983B3
:100710006A838981282F30E03C832B838B819C81E5
:1007200081309105D1F02B813C81223031052CF4B0
:100730008B819C81009761F01EC02B813C8122300F
:10074000310581F08B819C818330910581F013C04C
:10075000EBE3F0E08A8180830EC0E8E3F0E08A8179
:10076000808309C0E5E3F0E08A81808304C0E2E38E
:10077000F0E08A8180830F900F900F900F90CF91BF
:10078000DF910895DF93CF93CDB7DEB766970FB6AD
:10079000F894DEBF0FBECDBF8B836C838B818695B3
:1007A000869586958A838B81877089838A81282F95
:1007B00030E03E8B2D8B8D899E898130910509F427
:1007C000E1C02D893E89223031052CF48D899E8926
:1007D000009771F034C32D893E892230310509F428
:1007E0009BC18D899E898330910509F45FC227C31F
:1007F0008C81813009F063C08981282F30E03C8BE7
:100800002B8B8B899C8983309105D9F12B893C896D
:10081000243031057CF48B899C898130910529F144
:100820002B893C892230310534F58B899C890097CE
:10083000B1F005C32B893C892530310571F18B89D5
:100840009C89853091051CF12B893C892630310526
:1008500051F18B899C898730910559F1F0C2EAE307
:10086000F0E0808181608083EAC2EAE3F0E0808189
:1008700082608083E4C2EAE3F0E080818460808368
:10088000DEC2EAE3F0E0808188608083D8C2EAE3D8
:10089000F0E0808180618083D2C2EAE3F0E0808171
:1008A00080628083CCC2EAE3F0E080818064808350
:1008B000C6C2EAE3F0E0808180688083C0C289819B
:1008C000282F30E03A8B298B89899A8983309105CA
:1008D000D9F129893A89243031057CF489899A89AA
:1008E0008130910529F129893A892230310534F581
:1008F00089899A890097B1F0A2C229893A8925305D
:10090000310571F189899A89853091051CF1298910
:100910003A892630310551F189899A8987309105C4
:1009200059F18DC2EAE3F0E080818E7F808387C237
:10093000EAE3F0E080818D7F808381C2EAE3F0E02A
:1009400080818B7F80837BC2EAE3F0E08081877FB8
:10095000808375C2EAE3F0E080818F7E80836FC27E
:10096000EAE3F0E080818F7D808369C2EAE3F0E012
:1009700080818F7B808363C2EAE3F0E080818F77A0
:1009800080835DC28C81813009F063C08981282F0A
:1009900030E0388B2F878F85988983309105D9F186
:1009A0002F853889243031057CF48F8598898130F2
:1009B000910529F12F8538892230310534F58F854D
:1009C00098890097B1F03BC22F85388925303105D1
:1009D00071F18F859889853091051CF12F853889B3
:1009E0002630310551F18F8598898730910559F16D
:1009F00026C2E7E3F0E080818160808320C2E7E3E4
:100A0000F0E08081826080831AC2E7E3F0E08081B9
:100A10008460808314C2E7E3F0E080818860808393
:100A20000EC2E7E3F0E080818061808308C2E7E3E3
:100A3000F0E080818062808302C2E7E3F0E08081A1
:100A400080648083FCC1E7E3F0E08081806880837C
:100A5000F6C18981282F30E03E872D878D859E85C0
:100A600083309105D9F12D853E85243031057CF404
:100A70008D859E858130910529F12D853E85223019
:100A8000310534F58D859E850097B1F0D8C12D854F
:100A90003E852530310571F18D859E858530910526
:100AA0001CF12D853E852630310551F18D859E85C1
:100AB0008730910559F1C3C1E7E3F0E080818E7F73
:100AC0008083BDC1E7E3F0E080818D7F8083B7C183
:100AD000E7E3F0E080818B7F8083B1C1E7E3F0E062
:100AE0008081877F8083ABC1E7E3F0E080818F7EE8
:100AF0008083A5C1E7E3F0E080818F7D80839FC183
:100B0000E7E3F0E080818F7B808399C1E7E3F0E049
:100B100080818F77808393C18C81813009F063C09D
:100B20008981282F30E03C872B878B859C858330FB
:100B30009105D9F12B853C85243031057CF48B85DA
:100B40009C858130910529F12B853C85223031052A
:100B500034F58B859C850097B1F071C12B853C8560
:100B60002530310571F18B859C85853091051CF10F
:100B70002B853C852630310551F18B859C8587304E
:100B8000910559F15CC1E4E3F0E0808181608083EC
:100B900056C1E4E3F0E080818260808350C1E4E3E9
:100BA000F0E08081846080834AC1E4E3F0E08081EA
:100BB0008860808344C1E4E3F0E0808180618083C9
:100BC0003EC1E4E3F0E080818062808338C1E4E3E9
:100BD000F0E080818064808332C1E4E3F0E08081D2
:100BE000806880832CC18981282F30E03A8729874B
:100BF00089859A8583309105D9F129853A852430F4
:100C000031057CF489859A858130910529F1298502
:100C10003A852230310534F589859A850097B1F0FF
:100C20000EC129853A852530310571F189859A856E
:100C3000853091051CF129853A852630310551F121
:100C400089859A858730910559F1F9C0E4E3F0E090
:100C500080818E7F8083F3C0E4E3F0E080818D7F2C
:100C60008083EDC0E4E3F0E080818B7F8083E7C088
:100C7000E4E3F0E08081877F8083E1C0E4E3F0E09B
:100C800080818F7E8083DBC0E4E3F0E080818F7D14
:100C90008083D5C0E4E3F0E080818F7B8083CFC088
:100CA000E4E3F0E080818F778083C9C08C8181305C
:100CB00009F063C08981282F30E038872F838F8126
:100CC000988583309105D9F12F81388524303105FD
:100CD0007CF48F8198858130910529F12F813885A9
:100CE0002230310534F58F8198850097B1F0A7C087
:100CF0002F8138852530310571F18F8198858530B8
:100D000091051CF12F8138852630310551F18F81F5
:100D100098858730910559F192C0E1E3F0E0808138
:100D2000816080838CC0E1E3F0E080818260808319
:100D300086C0E1E3F0E080818460808380C0E1E3ED
:100D4000F0E08081886080837AC0E1E3F0E0808118
:100D50008061808374C0E1E3F0E080818062808301
:100D60006EC0E1E3F0E080818064808368C0E1E3ED
:100D7000F0E080818068808362C08981282F30E024
:100D80003E832D838D819E8183309105D9F12D8104
:100D90003E81243031057CF48D819E818130910526
:100DA00029F12D813E812230310534F58D819E81DE
:100DB0000097B1F044C02D813E812530310571F19D
:100DC0008D819E81853091051CF12D813E812630DB
:100DD000310551F18D819E818730910559F12FC0E8
:100DE000E1E3F0E080818E7F808329C0E1E3F0E0E1
:100DF00080818D7F808323C0E1E3F0E080818B7F61
:100E000080831DC0E1E3F0E08081877F808317C08D
:100E1000E1E3F0E080818F7E808311C0E1E3F0E0C8
:100E200080818F7D80830BC0E1E3F0E080818F7B48
:100E3000808305C0E1E3F0E080818F778083669650
:100E40000FB6F894DEBF0FBECDBFCF91DF910895EE
:100E5000DF93CF93CDB7DEB766970FB6F894DEBFBA
:100E60000FBECDBF8B836C838B81869586958695CF
:100E70008A838B81877089838A81282F30E03E8B1B
:100E80002D8B8D899E898130910509F4E1C02D89D2
:100E90003E89223031052CF48D899E89009771F0AE
:100EA00034C32D893E892230310509F49BC18D89D7
:100EB0009E898330910509F45FC227C38C818130FC
:100EC00009F063C08981282F30E03C8B2B8B8B8904
:100ED0009C8983309105D9F12B893C8924303105D7
:100EE0007CF48B899C898130910529F12B893C897F
:100EF0002230310534F58B899C890097B1F005C308
:100F00002B893C892530310571F18B899C8985308D
:100F100091051CF12B893C892630310551F18B89D3
:100F20009C898730910559F1F0C2EBE3F0E08081B4
:100F300081608083EAC2EBE3F0E08081826080839D
:100F4000E4C2EBE3F0E0808184608083DEC2EBE307
:100F5000F0E0808188608083D8C2EBE3F0E080819C
:100F600080618083D2C2EBE3F0E080818062808385
:100F7000CCC2EBE3F0E0808180648083C6C2EBE307
:100F8000F0E0808180688083C0C28981282F30E0B2
:100F90003A8B298B89899A8983309105D9F12989DE
:100FA0003A89243031057CF489899A898130910508
:100FB00029F129893A892230310534F589899A89BC
:100FC0000097B1F0A2C229893A892530310571F123
:100FD00089899A89853091051CF129893A892630B9
:100FE000310551F189899A898730910559F18DC26E
:100FF000EBE3F0E080818E7F808387C2EBE3F0E05B
:1010000080818D7F808381C2EBE3F0E080818B7FE4
:1010100080837BC2EBE3F0E08081877F808375C2B1
:10102000EBE3F0E080818F7E80836FC2EBE3F0E042
:1010300080818F7D808369C2EBE3F0E080818F7BCC
:10104000808363C2EBE3F0E080818F7780835DC2B1
:101050008C81813009F063C08981282F30E0388B82
:101060002F878F85988983309105D9F12F8538890D
:10107000243031057CF48F8598898130910529F1E0
:101080002F8538892230310534F58F85988900976E
:10109000B1F03BC22F8538892530310571F18F853C
:1010A0009889853091051CF12F85388926303105C6
:1010B00051F18F8598898730910559F126C2E8E36F
:1010C000F0E080818160808320C2E8E3F0E08081ED
:1010D000826080831AC2E8E3F0E0808184608083CC
:1010E00014C2E8E3F0E08081886080830EC2E8E308
:1010F000F0E080818061808308C2E8E3F0E08081D5
:101100008062808302C2E8E3F0E0808180648083B3
:10111000FCC1E8E3F0E0808180688083F6C18981CA
:10112000282F30E03E872D878D859E858330910561
:10113000D9F12D853E85243031057CF48D859E8541
:101140008130910529F12D853E852230310534F518
:101150008D859E850097B1F0D8C12D853E852530BF
:10116000310571F18D859E85853091051CF12D85A8
:101170003E852630310551F18D859E85873091055C
:1011800059F1C3C1E8E3F0E080818E7F8083BDC167
:10119000E8E3F0E080818D7F8083B7C1E8E3F0E091
:1011A00080818B7F8083B1C1E8E3F0E08081877F1D
:1011B0008083ABC1E8E3F0E080818F7E8083A5C1AE
:1011C000E8E3F0E080818F7D80839FC1E8E3F0E079
:1011D00080818F7B808399C1E8E3F0E080818F7705
:1011E000808393C18C81813009F063C08981282F6D
:1011F00030E03C872B878B859C8583309105D9F126
:101200002B853C85243031057CF48B859C85813091
:10121000910529F12B853C852230310534F58B85EC
:101220009C850097B1F071C12B853C852530310537
:1012300071F18B859C85853091051CF12B853C8552
:101240002630310551F18B859C858730910559F108
:101250005CC1E5E3F0E080818160808356C1E5E315
:10126000F0E080818260808350C1E5E3F0E080811E
:10127000846080834AC1E5E3F0E0808188608083F8
:1012800044C1E5E3F0E08081806180833EC1E5E315
:10129000F0E080818062808338C1E5E3F0E0808106
:1012A0008064808332C1E5E3F0E0808180688083E0
:1012B0002CC18981282F30E03A87298789859A8532
:1012C00083309105D9F129853A85243031057CF4A4
:1012D00089859A858130910529F129853A852230C1
:1012E000310534F589859A850097B1F00EC12985BD
:1012F0003A852530310571F189859A8585309105CA
:101300001CF129853A852630310551F189859A8568
:101310008730910559F1F9C0E5E3F0E080818E7FD7
:101320008083F3C0E5E3F0E080818D7F8083EDC0B2
:10133000E5E3F0E080818B7F8083E7C0E5E3F0E0C8
:101340008081877F8083E1C0E5E3F0E080818F7E4C
:101350008083DBC0E5E3F0E080818F7D8083D5C0B2
:10136000E5E3F0E080818F7B8083CFC0E5E3F0E0B0
:1013700080818F778083C9C08C81813009F063C000
:101380008981282F30E038872F838F81988583309B
:101390009105D9F12F813885243031057CF48F8176
:1013A00098858130910529F12F81388522303105CA
:1013B00034F58F8198850097B1F0A7C02F813885CB
:1013C0002530310571F18F819885853091051CF1AB
:1013D0002F8138852630310551F18F8198858730EE
:1013E000910559F192C0E2E3F0E080818160808351
:1013F0008CC0E2E3F0E080818260808386C0E2E31B
:10140000F0E080818460808380C0E2E3F0E080814E
:10141000886080837AC0E2E3F0E08081806180832D
:1014200074C0E2E3F0E08081806280836EC0E2E31A
:10143000F0E080818064808368C0E2E3F0E0808136
:101440008068808362C08981282F30E03E832D83AD
:101450008D819E8183309105D9F12D813E8124308B
:1014600031057CF48D819E818130910529F12D819A
:101470003E812230310534F58D819E810097B1F097
:1014800044C02D813E812530310571F18D819E81D1
:10149000853091051CF12D813E812630310551F1B9
:1014A0008D819E818730910559F12FC0E2E3F0E0F4
:1014B00080818E7F808329C0E2E3F0E080818D7F90
:1014C000808323C0E2E3F0E080818B7F80831DC0B6
:1014D000E2E3F0E08081877F808317C0E2E3F0E001
:1014E00080818F7E808311C0E2E3F0E080818F7D78
:1014F00080830BC0E2E3F0E080818F7B808305C0B6
:10150000E2E3F0E080818F77808366960FB6F894EF
:10151000DEBF0FBECDBFCF91DF910895DF93CF9394
:1015200000D00F92CDB7DEB789838981282F30E0B4
:101530003B832A838A819B8184309105C9F12A816A
:101540003B812530310584F48A819B81823091056D
:1015500029F12A813B81233031052CF58A819B8139
:1015600081309105B1F03CC02A813B8126303105A4
:1015700049F18A819B8186309105FCF02A813B816B
:101580002730310521F18A819B818830910521F135
:1015900027C080E061E00E94C20322C081E061E0D8
:1015A0000E94C2031DC082E061E00E94C20318C015
:1015B00083E161E00E94C20313C084E161E00E9404
:1015C000C2030EC085E161E00E94C20309C086E14A
:1015D00061E00E94C20304C087E161E00E94C2038F
:1015E0000F900F900F90CF91DF910895DF93CF93DD
:1015F00000D00F92CDB7DEB789838981282F30E0E4
:101600003B832A838A819B8184309105C9F12A8199
:101610003B812530310584F48A819B81823091059C
:1016200029F12A813B81233031052CF58A819B8168
:1016300081309105B1F03CC02A813B8126303105D3
:1016400049F18A819B8186309105FCF02A813B819A
:101650002730310521F18A819B818830910521F164
:1016600027C080E061E00E94280722C081E061E09D
:101670000E9428071DC082E061E00E94280718C070
:1016800083E161E00E94280713C084E161E00E94C9
:1016900028070EC085E161E00E94280709C086E1A5
:1016A00061E00E94280704C087E161E00E942807EA
:1016B0000F900F900F90CF91DF910895DF93CF930C
:1016C00000D00F92CDB7DEB789838981282F30E013
:1016D0003B832A838A819B8184309105C9F12A81C9
:1016E0003B812530310584F48A819B8182309105CC
:1016F00029F12A813B81233031052CF58A819B8198
:1017000081309105B1F03CC02A813B812630310502
:1017100049F18A819B8186309105FCF02A813B81C9
:101720002730310521F18A819B818830910521F193
:1017300027C080E060E00E94280722C081E060E0CE
:101740000E9428071DC082E060E00E94280718C0A0
:1017500083E160E00E94280713C084E160E00E94FA
:1017600028070EC085E160E00E94280709C086E1D5
:1017700060E00E94280704C087E160E00E9428071B
:101780000F900F900F90CF91DF910895DF93CF933B
:1017900000D0CDB7DEB78BE090E00E940B0F9A83AC
:1017A000898389819A81009749F0E981FA811182C0
:1017B000108289819A8102960E94870F89819A817D
:1017C0000F900F90CF91DF910895DF93CF93CDB716
:1017D000DEB760970FB6F894DEBF0FBECDBF9A8715
:1017E00089877C876B875E874D87388B2F878985B4
:1017F0009A859C838B8319820E942F27EB81FC8121
:101800008081918198878F8389859A852B853C85F6
:10181000B9010E94BC0D2F8138858B859C85282BB2
:10182000392B8D859E85282339238D859E85281704
:101830003907C9F42F8138858B859C85822B932BA2
:101840009E838D83EB81FC81208131818D859E85F6
:101850008095909582239323EB81FC8191838083F3
:10186000188A1F861EC08F859889009791F08B81FA
:101870009C81BC016E5F7F4F8D859E859C0135608C
:101880004F855889CB01B9010E949F291E821D8274
:1018900008C0EB81FC81808191819E838D8381E0F2
:1018A00089830E943B278A838F859889009709F452
:1018B0003AC08A81882311F40E94E7120E94122CF8
:1018C0009E838D838D819E8180709270009731F50B
:1018D0000FB6F8940F92EB81FC81808191819E83F9
:1018E0008D832D813E818D859E85282339238D858D
:1018F0009E852817390771F4EB81FC8120813181A5
:101900008D859E858095909582239323EB81FC8124
:10191000918380830F900FBE81E089838D819E81AA
:1019200090709E838D838D819E8160960FB6F89412
:10193000DEBF0FBECDBFCF91DF9108950F931F93F0
:10194000DF93CF93CDB7DEB763970FB6F894DEBFC2
:101950000FBECDBF9D878C877F876E87488B298B75
:101960001B8B0A8B8C859D859B878A871F821E8295
:101970001B820E942F27EA85FB85808191819A83B3
:10198000898389819A812E853F85B90149890E9481
:10199000D90E8D838D818823C1F089819A819987A1
:1019A00088871B8A1A8A88898823E9F1EA85FB855A
:1019B000208131818E859F85809590958223932308
:1019C000EA85FB85918380832EC08A899B89009755
:1019D00039F489819A819987888781E08B8323C034
:1019E0008889882329F08E819F8191609F838E83CF
:1019F0008989882329F08E819F8194609F838E83BB
:101A00008A859B85BC016E5F7F4F2E853F858E81C9
:101A10009F81282B392B4A895B89CB01B9010E9410
:101A20009F29198618860E943B278C838A899B8967
:101A3000009709F43CC08C81882311F40E94E712BE
:101A40000E94122C9987888788859985807092706A
:101A5000009741F50FB6F8940F92EA85FB858081D7
:101A6000918199878887888599852E853F85B901D9
:101A700049890E94D90E882389F08889882371F0CA
:101A8000EA85FB85208131818E859F8580959095A3
:101A900082239323EA85FB859183808381E08B8376
:101AA0000F900FBE88859985907099878887888563
:101AB000998563960FB6F894DEBF0FBECDBFCF9168
:101AC000DF911F910F910895DF93CF93CDB7DEB7CC
:101AD00028970FB6F894DEBF0FBECDBF9E838D83CF
:101AE00078876F838D819E819C838B830FB6F8945A
:101AF0000F92EB81FC81808191819A838983EB81B4
:101B0000FC81208131818F819885809590958223F9
:101B10009323EB81FC81918380830F900FBE898199
:101B20009A8128960FB6F894DEBF0FBECDBFCF9135
:101B3000DF910895DF93CF93CDB7DEB727970FB628
:101B4000F894DEBF0FBECDBF9F838E838E819F81B1
:101B50009C838B831D82EB81FC81808191819A83A0
:101B6000898389819A8127960FB6F894DEBF0FBECC
:101B7000CDBFCF91DF910895DF93CF93CDB7DEB77F
:101B800065970FB6F894DEBF0FBECDBF9B8B8A8BD7
:101B90007D8B6C8B198618868A899B899B838A83A7
:101BA00019828A819B8102969B878A878A859B8579
:101BB00003969D878C870E942F27EA85FB85858168
:101BC0009681998B888BEA81FB81208131818C8978
:101BD0009D89822B932BEA81FB819183808359C05D
:101BE000E889F989828193819F878E87E889F989BD
:101BF000808191819F838E8319828E819F818070E5
:101C00009D838C838E819F8190709F838E838C8136
:101C10009D8180709470009769F4EA81FB81208136
:101C200031818E819F8182239323009791F081E0FF
:101C300089830FC0EA81FB81208131818E819F8160
:101C4000282339238E819F812817390711F481E0D9
:101C5000898389818823C9F08C819D8180709170EE
:101C6000009741F0888599852E813F81822B932BA7
:101C700099878887EA81FB81808191819C0132600C
:101C800088899989B9010E943A2A8E859F85998B06
:101C9000888B288939898C859D852817390709F013
:101CA0009FCFEA81FB81208131818885998580954C
:101CB000909582239323EA81FB81918380830E9404
:101CC0003B27EA81FB818081918165960FB6F8946C
:101CD000DEBF0FBECDBFCF91DF910895DF93CF93CD
:101CE00000D000D000D0CDB7DEB79E838D838D812C
:101CF0009E819C838B838B819C8102969A838983AE
:101D00000E942F2708C0E981FA818581968160E0D1
:101D100072E00E943A2AE981FA818081882399F74A
:101D20008B819C810E94610F0E943B2726960FB6F3
:101D3000F894DEBF0FBECDBFCF91DF910895DF9342
:101D4000CF9300D000D000D0CDB7DEB79A8389837F
:101D50004B835C836D837E8389819A812B813C8157
:101D6000B9010E94BC0D26960FB6F894DEBF0FBED7
:101D7000CDBFCF91DF910895DF93CF9300D000D0F6
:101D800000D0CDB7DEB79A8389834B835C836D83A4
:101D90007E8389819A812B813C81B9010E94640DE7
:101DA00026960FB6F894DEBF0FBECDBFCF91DF9160
:101DB0000895DF93CF9300D000D000D0CDB7DEB729
:101DC0009B838A837D836C834E8319828E818823D3
:101DD00059F48A819B812C813D8182239323009732
:101DE00081F081E089830DC02A813B818C819D81B6
:101DF000282339238C819D812817390711F481E02C
:101E00008983898126960FB6F894DEBF0FBECDBFB9
:101E1000CF91DF910895DF93CF9300D000D0CDB75D
:101E2000DEB79C838B831A8219820E942F278091B0
:101E3000760090917700009731F489E790E09093D5
:101E400077008093760080917400909175002B81CB
:101E50003C81820F931F25E08B3D920738F520913E
:101E60007400309175008B819C81280F391F8091FF
:101E700074009091750082179307C0F4209176004A
:101E8000309177008091740090917500820F931FBC
:101E90009A83898320917400309175008B819C8195
:101EA000820F931F90937500809374000E943B27CC
:101EB00089819A810F900F900F900F90CF91DF91B1
:101EC0000895DF93CF9300D0CDB7DEB79A8389838F
:101ED0000F900F90CF91DF910895DF93CF93CDB7FF
:101EE000DEB71092750010927400CF91DF910895C3
:101EF000DF93CF93CDB7DEB720917400309175009A
:101F00008BED95E0821B930BCF91DF910895DF93CA
:101F1000CF9300D0CDB7DEB79A83898389819A8128
:101F20000396E981FA8192838183E981FA818FEFB7
:101F30009FEF9483838389819A810396E981FA8153
:101F40009683858389819A810396E981FA819087B6
:101F50008783E981FA8110820F900F90CF91DF91F2
:101F60000895DF93CF9300D0CDB7DEB79A838983EE
:101F7000E981FA81118610860F900F90CF91DF9141
:101F80000895DF93CF9300D000D000D0CDB7DEB757
:101F90009C838B837E836D83EB81FC818181928125
:101FA0009A838983ED81FE8189819A8193838283DB
:101FB000E981FA8184819581ED81FE819583848315
:101FC000E981FA810480F581E02D8D819E819383E2
:101FD0008283E981FA818D819E8195838483ED815D
:101FE000FE818B819C8191878087EB81FC81808140
:101FF0008F5FEB81FC81808326960FB6F894DEBF5D
:102000000FBECDBFCF91DF910895DF93CF93CDB7B2
:10201000DEB728970FB6F894DEBF0FBECDBF9E8304
:102020008D8378876F83EF81F885808191819A8392
:10203000898389819A812FEF8F3F920739F4ED814F
:10204000FE81878190859C838B8318C08D819E81C2
:1020500003969C838B8306C0EB81FC8182819381F4
:102060009C838B83EB81FC810280F381E02D2081B6
:10207000318189819A818217930770F7EB81FC8106
:1020800082819381EF81F88593838283EF81F88544
:102090000280F381E02D8F81988595838483EF8181
:1020A000F8858B819C8195838483EB81FC818F8172
:1020B000988593838283EF81F8858D819E819187B6
:1020C0008087ED81FE8180818F5FED81FE8180833D
:1020D00028960FB6F894DEBF0FBECDBFCF91DF912B
:1020E0000895DF93CF9300D000D0CDB7DEB79C83A7
:1020F0008B83EB81FC81808591859A838983EB8139
:10210000FC81A281B381EB81FC818481958115964C
:102110009C938E931497EB81FC81A481B581EB8114
:10212000FC818281938113969C938E931297E9810F
:10213000FA81218132818B819C812817390741F4F2
:10214000EB81FC8184819581E981FA81928381838D
:10215000EB81FC8111861086E981FA8180818150B2
:10216000E981FA818083E981FA8180810F900F9063
:102170000F900F90CF91DF910895EF92FF920F9300
:10218000DF93CF93CDB7DEB781E00E948E0A82E065
:102190000E948E0A80EF90E120E630E0B90148EC21
:1021A00050E020E030E002E0EE24FF240E94D22242
:1021B0008CE091E127E630E0B90148EC50E020E006
:1021C00030E001E0EE24FF240E94D2220E94F1269A
:1021D00080E090E0CF91DF910F91FF90EF90089514
:1021E000DF93CF9300D0CDB7DEB79A8389838091F8
:1021F0005406882339F481E00E94F60A81E0809336
:10220000540605C081E00E945E0B1092540684EFD4
:1022100091E00E946225EBCFDF93CF9300D0CDB742
:10222000DEB79A83898380915506882339F482E04A
:102230000E94F60A81E08093550605C082E00E9464
:102240005E0B1092550684EF91E00E946225EBCF61
:10225000DF93CF93CDB7DEB728970FB6F894DEBFE4
:102260000FBECDBF9C838B837E836D8358874F8346
:10227000EB81FC8181E180838B819C8101979C8330
:102280008B83EB81FC8182E280838B819C8101972F
:102290009C838B83EB81FC8183E380838B819C8196
:1022A00001979C838B838D819E819A838983898109
:1022B000EB81FC8180838B819C8101979C838B8344
:1022C00089819A81892F99279A8389838981EB81D2
:1022D000FC8180838B819C8101979C838B83EB8124
:1022E000FC8110828B819C8101979C838B83EB8185
:1022F000FC8180E880838B819C8101979C838B8308
:10230000EB81FC8110828B819C8101979C838B8364
:10231000EB81FC8182E080838B819C8101979C838F
:102320008B83EB81FC8183E080838B819C8101978F
:102330009C838B83EB81FC8184E080838B819C81F7
:1023400001979C838B83EB81FC8185E080838B816B
:102350009C8101979C838B83EB81FC8186E0808349
:102360008B819C8101979C838B83EB81FC8187E02F
:1023700080838B819C8101979C838B83EB81FC8183
:1023800088E080838B819C8101979C838B83EB8188
:10239000FC8189E080838B819C8101979C838B8366
:1023A000EB81FC8180E180838B819C8101979C8300
:1023B0008B83EB81FC8181E180838B819C81019700
:1023C0009C838B83EB81FC8182E180838B819C8168
:1023D00001979C838B83EB81FC8183E180838B81DC
:1023E0009C8101979C838B83EB81FC8184E18083BA
:1023F0008B819C8101979C838B83EB81FC8185E1A0
:1024000080838B819C8101979C838B83EB81FC81F2
:1024100086E180838B819C8101979C838B83EB81F8
:10242000FC8187E180838B819C8101979C838B83D6
:10243000EB81FC8188E180838B819C8101979C8367
:102440008B83EB81FC8189E180838B819C81019767
:102450009C838B83EB81FC8180E280838B819C81D8
:1024600001979C838B83EB81FC8181E280838B814C
:102470009C8101979C838B83EB81FC8182E280832A
:102480008B819C8101979C838B83EB81FC8183E210
:1024900080838B819C8101979C838B838F8198851E
:1024A0009A8389838981EB81FC8180838B819C81E4
:1024B00001979C838B8389819A81892F99279A839D
:1024C00089838981EB81FC8180838B819C81019749
:1024D0009C838B83EB81FC8186E280838B819C8152
:1024E00001979C838B83EB81FC8187E280838B81C6
:1024F0009C8101979C838B83EB81FC8188E28083A4
:102500008B819C8101979C838B83EB81FC8189E289
:1025100080838B819C8101979C838B83EB81FC81E1
:1025200080E380838B819C8101979C838B83EB81EB
:10253000FC8181E380838B819C8101979C838B83C9
:102540008B819C8128960FB6F894DEBF0FBECDBF5D
:10255000CF91DF910895DF93CF93CDB7DEB70E947F
:102560009D13A0915606B0915706CD91CDBFDD9138
:10257000DEBFFF91EF91DF91CF91BF91AF919F911E
:102580008F917F916F915F914F913F912F911F910B
:102590000F91FF90EF90DF90CF90BF90AF909F9002
:1025A0008F907F906F905F904F903F902F901F90F3
:1025B0000F900FBE0F90089581E0CF91DF910895A5
:1025C000DF93CF93CDB7DEB7CF91DF9108950F9210
:1025D0000FB6F8940F921F9211242F923F924F92B0
:1025E0005F926F927F928F929F92AF92BF92CF92A3
:1025F000DF92EF92FF920F931F932F933F934F938E
:102600005F936F937F938F939F93AF93BF93CF937A
:10261000DF93EF93FF93A0915606B09157060DB646
:102620000D920EB60D920E941029A0915606B091FF
:102630005706CD91CDBFDD91DEBFFF91EF91DF91C8
:10264000CF91BF91AF919F918F917F916F915F914A
:102650004F913F912F911F910F91FF90EF90DF903D
:10266000CF90BF90AF909F908F907F906F905F9032
:102670004F903F902F901F900F900FBE0F90089596
:102680000F920FB6F8940F921F9211242F923F923F
:102690004F925F926F927F928F929F92AF92BF9272
:1026A000CF92DF92EF92FF920F931F932F933F935E
:1026B0004F935F936F937F938F939F93AF93BF934A
:1026C000CF93DF93EF93FF93A0915606B0915706F7
:1026D0000DB60D920EB60D920E942B28882311F094
:1026E0000E941029A0915606B0915706CD91CDBFFA
:1026F000DD91DEBFFF91EF91DF91CF91BF91AF915F
:102700009F918F917F916F915F914F913F912F9109
:102710001F910F91FF90EF90DF90CF90BF90AF90FF
:102720009F908F907F906F905F904F903F902F90F1
:102730001F900F900FBE0F900895DF93CF9300D09E
:1027400000D000D0CDB7DEB780E49FE1A0E0B0E0DC
:102750008B839C83AD83BE838B819C81AD81BE8145
:10276000689415F8B695A795979587951694D1F71F
:102770008B839C83AD83BE838B819C81AD81BE8125
:102780000197A109B1098B839C83AD83BE838B81A3
:1027900089838B819C81AD81BE81892F9A2FAB2F3C
:1027A000BB278B839C83AD83BE838B818A83EBE4C1
:1027B000F0E08A818083EAE4F0E0898180838BE025
:1027C0008983EEE4F0E089818083E9E5F0E08081AF
:1027D0008983898180618983E9E5F0E0898180834B
:1027E00026960FB6F894DEBF0FBECDBFCF91DF9116
:1027F00008950E9440131895DF93CF9300D000D026
:102800000F92CDB7DEB79C838B836D838B819C81C8
:102810009A8389830FB6F8940F92E981FA814081F7
:102820005181E981FA81838D282F30E0E981FA8195
:10283000848D882F90E0BC01269FC001279F900DBA
:10284000369F900D1124840F951FE981FA8195839D
:102850008483E981FA81128EE981FA8180819181F4
:10286000E981FA8193838283E981FA8140815181F0
:10287000E981FA81838D882F90E09C0121503040BE
:10288000E981FA81848D882F90E0BC01269FC001E8
:10289000279F900D369F900D1124840F951FE9817D
:1028A000FA8197838683E981FA818FEF858FE981A9
:1028B000FA818FEF868F8D81882379F4E981FA81FF
:1028C00080858823A1F089819A8108960E94CF296A
:1028D000882369F00E94E7120AC089819A810896CC
:1028E0000E94870F89819A8141960E94870F0F90DD
:1028F0000FBE81E00F900F900F900F900F90CF912F
:10290000DF9108950F931F93DF93CF93CDB7DEB779
:1029100029970FB6F894DEBF0FBECDBF8F836887AF
:1029200049878885882319F41C821B8210C08F81F7
:10293000282F30E08885882F90E0AC01249FC001CB
:10294000259F900D349F900D11249C838B838B8148
:102950009C814F960E940B0F9E838D838D819E815B
:102960000097A1F08D819E819A83898389819A81C4
:102970004F969A83898329813A81ED81FE818F81E7
:102980006885A90129858F010E94D3148D819E81BC
:1029900029960FB6F894DEBF0FBECDBFCF91DF9161
:1029A0001F910F9108950F931F93DF93CF93CDB78E
:1029B000DEB727970FB6F894DEBF0FBECDBF898371
:1029C0006A835C834B832D831F830E838A818823D4
:1029D00039F48E819F81EE81FF819183808306C0CF
:1029E0008B819C81EE81FF8191838083EE81FF81C9
:1029F0008981838FEE81FF818A81848F8E819F817F
:102A000061E00E94FC1327960FB6F894DEBF0FBE5C
:102A1000CDBFCF91DF911F910F910895DF93CF9399
:102A200000D000D0CDB7DEB78B836C838B8160E0A4
:102A300042E00E9482149A83898389819A81009757
:102A400021F0E981FA818C81828F89819A810F90AE
:102A50000F900F900F90CF91DF910895DF93CF9358
:102A6000CDB7DEB72F970FB6F894DEBF0FBECDBF40
:102A7000998788877B876A875D874C872E871C822A
:102A8000888599859A8389830FB6F8940F92E98196
:102A9000FA81928DE981FA81838D981718F08E85DD
:102AA000823011F589819A812A853B85B9014E854D
:102AB0000E9480198B83E981FA818189882351F0F2
:102AC00089819A8141960E94CF29882341F00E94F2
:102AD000E71205C08B81882311F00E94E7120F9046
:102AE0000FBE81E08F875CC08C859D85009721F4A7
:102AF0000F900FBE1F8654C08C81882331F4CE0105
:102B000005960E94B52A81E08C830F900FBE0E942B
:102B10002F270FB6F8940F92E981FA81858D8F3FA8
:102B200019F4E981FA81158EE981FA81868D8F3F4A
:102B300019F4E981FA81168E0F900FBECE01059629
:102B40009E01245F3F4FB9010E94CE2A882309F5D8
:102B500089819A810E94FC1A8823A1F089819A8137
:102B600008962C853D85B9010E947D2989819A812D
:102B70000E946D1A0E943B27882309F085CF0E948E
:102B8000E71282CF89819A810E946D1A0E943B27A9
:102B90007BCF89819A810E946D1A0E943B271F86F4
:102BA0008F852F960FB6F894DEBF0FBECDBFCF91A5
:102BB000DF910895DF93CF93CDB7DEB72C970FB693
:102BC000F894DEBF0FBECDBF9F838E837987688761
:102BD0005B874A872C878E819F819B838A831C8297
:102BE000EA81FB81928DEA81FB81838D981718F031
:102BF0008C85823061F5EA81FB81868D89838A81AB
:102C00009B8128853985B9014C850E94801989816D
:102C10008F3FA9F4EA81FB8181898823A9F08A8109
:102C20009B8141960E94CF29882371F08A859B85DC
:102C3000009751F0EA85FB8581E0808305C089819A
:102C40008F5FEA81FB81868F81E08D8301C01D82C9
:102C50008D812C960FB6F894DEBF0FBECDBFCF91FD
:102C6000DF910895DF93CF93CDB7DEB72A970FB6E4
:102C7000F894DEBF0FBECDBF98878F837A876987B0
:102C80008F8198859C838B831D82EB81FC81828D53
:102C90008A83EB81FC81938D8A81891748F5EB81CA
:102CA000FC81868D89838A818F5FEB81FC81828F95
:102CB00089818F3FA9F4EB81FC8181898823A9F068
:102CC0008B819C8141960E94CF29882371F0898550
:102CD0009A85009751F0E985FA8581E0808305C0E7
:102CE00089818F5FEB81FC81868F81E08E8301C0BB
:102CF0001E828E812A960FB6F894DEBF0FBECDBF1E
:102D0000CF91DF910895DF93CF93CDB7DEB72E97A4
:102D10000FB6F894DEBF0FBECDBF998788877B873B
:102D20006A875D874C871C82888599859B838A8307
:102D30000FB6F8940F92EA81FB81828D8983898195
:102D40008823F9F08A819B812A853B85B9010E94FD
:102D5000261A89818150EA81FB81828FEA81FB8179
:102D60008085882349F08A819B8108960E94CF291B
:102D7000882311F00E94E7120F900FBE81E08E872A
:102D800063C08C859D85009721F40F900FBE1E8631
:102D90005BC08C81882331F4CE0105960E94B52A50
:102DA00081E08C830F900FBE0E942F270FB6F894FE
:102DB0000F92EA81FB81858D8F3F19F4EA81FB81B7
:102DC000158EEA81FB81868D8F3F19F4EA81FB81A4
:102DD000168E0F900FBECE0105969E01245F3F4FC9
:102DE000B9010E94CE2A882309F58A819B810E941D
:102DF000C01A8823A1F08A819B8141962C853D854C
:102E0000B9010E947D298A819B810E946D1A0E94CE
:102E10003B27882309F08CCF0E94E71289CF8A8153
:102E20009B810E946D1A0E943B2782CF8A819B81E1
:102E30000E946D1A0E943B278A819B810E94C01AC2
:102E4000882309F475CF1E868E852E960FB6F894CA
:102E5000DEBF0FBECDBFCF91DF910895DF93CF933B
:102E6000CDB7DEB72C970FB6F894DEBF0FBECDBF3F
:102E7000998788877B876A871C82888599859B8349
:102E80008A830FB6F8940F92EA81FB81828D898341
:102E900089818823C1F089818150EA81FB81828FF9
:102EA000EA81FB818085882349F08A819B8108968D
:102EB0000E94CF29882311F00E94E7120F900FBEC5
:102EC00081E08C8763C08A859B85009721F40F90F1
:102ED0000FBE1C865BC08C81882331F4CE01059621
:102EE0000E94B52A81E08C830F900FBE0E942F278D
:102EF0000FB6F8940F92EA81FB81858D8F3F19F40C
:102F0000EA81FB81158EEA81FB81868D8F3F19F462
:102F1000EA81FB81168E0F900FBECE0105969E01B1
:102F2000265F3F4FB9010E94CE2A882309F58A8186
:102F30009B810E94C01A8823A1F08A819B814196BF
:102F40002A853B85B9010E947D298A819B810E9447
:102F50006D1A0E943B27882309F093CF0E94E71245
:102F600090CF8A819B810E946D1A0E943B2789CF56
:102F70008A819B810E946D1A0E943B278A819B81D6
:102F80000E94C01A882309F47CCF1C868C852C965D
:102F90000FB6F894DEBF0FBECDBFCF91DF9108957D
:102FA000DF93CF93CDB7DEB760970FB6F894DEBF4F
:102FB0000FBECDBF9B878A877D876C875F874E87D3
:102FC0001E828A859B859B838A830FB6F8940F9215
:102FD000EA81FB81828D89838981882331F1EA81AD
:102FE000FB81868197819D838C838A819B812C853F
:102FF0003D85B9010E94261AEA81FB818C819D8161
:1030000097838683EA81FB818189882349F08A81BD
:103010009B8141960E94CF29882311F00E94E712DC
:103020000F900FBE81E0888B63C08E859F850097CF
:1030300021F40F900FBE188A5BC08E81882331F473
:10304000CE0107960E94B52A81E08E830F900FBEB5
:103050000E942F270FB6F8940F92EA81FB81858D8D
:103060008F3F19F4EA81FB81158EEA81FB81868D01
:103070008F3F19F4EA81FB81168E0F900FBECE01AF
:1030800007969E01225F3F4FB9010E94CE2A8823F6
:1030900009F58A819B810E94C01A8823A1F08A8148
:1030A0009B8141962E853F85B9010E947D298A81A9
:1030B0009B810E946D1A0E943B27882309F085CFCF
:1030C0000E94E71282CF8A819B810E946D1A0E9422
:1030D0003B277BCF8A819B810E946D1A0E943B27F0
:1030E0008A819B810E94C01A882309F46ECF188AB6
:1030F000888960960FB6F894DEBF0FBECDBFCF9122
:10310000DF910895DF93CF93CDB7DEB72C970FB63D
:10311000F894DEBF0FBECDBF98878F837A8769870B
:103120005C874B878F8198859C838B831D82EB8185
:10313000FC81828D8A838A81882381F1EB81FC81E5
:10314000858D89838B819C8129853A85B9010E946F
:10315000261A8A818150EB81FC81828F89818F3F81
:10316000A9F4EB81FC8180858823A9F08B819C8167
:1031700008960E94CF29882371F08B859C85009743
:1031800051F0EB85FC8581E0808305C089818F5FEC
:10319000EB81FC81858F81E08E8301C01E828E8150
:1031A0002C960FB6F894DEBF0FBECDBFCF91DF9146
:1031B0000895DF93CF93CDB7DEB72A970FB6F89473
:1031C000DEBF0FBECDBF98878F837A8769878F81D7
:1031D00098859A8389831D82E981FA81828D88236B
:1031E000B1F0E981FA81868197819C838B83898103
:1031F0009A8129853A85B9010E94261AE981FA81C6
:103200008B819C819783868381E08E8301C01E829F
:103210008E812A960FB6F894DEBF0FBECDBFCF9138
:10322000DF910895DF93CF9300D00F92CDB7DEB733
:103230009B838A830FB6F8940F92EA81FB81828D7B
:1032400089830F900FBE89810F900F900F90CF91BF
:10325000DF910895DF93CF9300D000D00F92CDB7C8
:10326000DEB79D838C838C819D819A8389830FB681
:10327000F8940F92E981FA81938DE981FA81828D28
:10328000292F281B822F8B830F900FBE8B810F90CD
:103290000F900F900F900F90CF91DF910895DF93D3
:1032A000CF9300D000D00F92CDB7DEB79D838C8333
:1032B0008C819D819A838983E981FA81828D8B83B8
:1032C0008B810F900F900F900F900F90CF91DF9107
:1032D0000895DF93CF9300D000D0CDB7DEB79C83A5
:1032E0008B838B819C819A83898389819A810E94B7
:1032F000610F0F900F900F900F90CF91DF91089575
:10330000DF93CF93CDB7DEB727970FB6F894DEBF24
:103310000FBECDBF9C838B837E836D834F831A82C8
:10332000EB81FC81828D8983EB81FC81848D8823F4
:1033300009F47DC08F81882399F5EB81FC8162813E
:103340007381EB81FC81848D482F50E02D813E817B
:10335000CB01B9010E945D30EB81FC812281338178
:10336000EB81FC81848D882F90E0820F931FEB818D
:10337000FC8193838283EB81FC8122813381EB8109
:10338000FC81848195812817390708F450C0EB81AE
:10339000FC8180819181EB81FC819383828347C092
:1033A000EB81FC8166817781EB81FC81848D482FE4
:1033B00050E02D813E81CB01B9010E945D30EB814F
:1033C000FC8126813781EB81FC81848D882F90E000
:1033D000909581959F4F820F931FEB81FC8197837E
:1033E0008683EB81FC8126813781EB81FC818081A2
:1033F00091812817390790F4EB81FC812481358174
:10340000EB81FC81848D882F90E0909581959F4F72
:10341000820F931FEB81FC81978386838F8182309B
:1034200031F48981882319F08981815089838981C8
:103430008F5FEB81FC81828F8A8127960FB6F8948B
:10344000DEBF0FBECDBFCF91DF910895DF93CF9345
:1034500000D000D0CDB7DEB79A8389837C836B839D
:10346000E981FA81848D882389F1E981FA812681B5
:103470003781E981FA81848D882F90E0820F931F34
:10348000E981FA8197838683E981FA8126813781F0
:10349000E981FA81848195812817390740F0E98113
:1034A000FA8180819181E981FA8197838683E9811C
:1034B000FA8146815781E981FA81848D282F30E095
:1034C0008B819C81BA01A9010E945D300F900F9001
:1034D0000F900F90CF91DF910895DF93CF9300D09D
:1034E00000D0CDB7DEB79C838B830FB6F8940F92D4
:1034F000EB81FC81868D8A8311C0EB81FC818189FF
:10350000882379F08B819C8141960E94CF29882362
:1035100011F00E943B2B8A8181508A838A81181680
:1035200064F3EB81FC818FEF868F0F900FBE0FB697
:10353000F8940F92EB81FC81858D898311C0EB811A
:10354000FC818085882379F08B819C8108960E947C
:10355000CF29882311F00E943B2B898181508983D8
:103560008981181664F3EB81FC818FEF858F0F90B2
:103570000FBE0F900F900F900F90CF91DF91089595
:10358000DF93CF9300D00F92CDB7DEB79B838A83B2
:103590000FB6F8940F92EA81FB81828D882319F48B
:1035A00081E0898301C019820F900FBE89810F903D
:1035B0000F900F90CF91DF910895DF93CF9300D0BC
:1035C00000D00F92CDB7DEB79D838C838C819D8117
:1035D0009A838983E981FA81828D882319F481E0B5
:1035E0008B8301C01B828B810F900F900F900F90E7
:1035F0000F90CF91DF910895DF93CF9300D00F927A
:10360000CDB7DEB79B838A830FB6F8940F92EA8119
:10361000FB81928DEA81FB81838D981719F481E0FB
:10362000898301C019820F900FBE89810F900F907E
:103630000F90CF91DF910895DF93CF9300D000D00A
:103640000F92CDB7DEB79D838C838C819D819A8349
:103650008983E981FA81928DE981FA81838D9817B6
:1036600019F481E08B8301C01B828B810F900F9036
:103670000F900F900F90CF91DF9108950F93DF93EC
:10368000CF93CDB7DEB728970FB6F894DEBF0FBE45
:10369000CDBF9D838C837F836E83488788858130EF
:1036A00019F481E0898301C019828E819F8100977E
:1036B00021F481E090E09F838E838C819D8101962F
:1036C0009D838C838C819D810F960E940B0F9B8321
:1036D0008A838A819B81009789F06A817B818A81B4
:1036E0009B819C01215F3F4F4C815D81EE81FF8179
:1036F000CB01B9019F0109810E9496228A819B8199
:1037000028960FB6F894DEBF0FBECDBFCF91DF91E4
:103710000F910895DF93CF9300D000D0CDB7DEB7DF
:103720009C838B838B819C819A838983E981FA8135
:103730008685882F90E082709070009729F48981A7
:103740009A810E94610F08C089819A8160E070E0CF
:103750004FE050E00E9466300F900F900F900F9056
:10376000CF91DF9108950F93DF93CF9300D000D0D6
:103770000F92CDB7DEB79D838C838C819D819B8317
:103780008A8319820FB6F8940F92EA81FB818085B3
:1037900091850097F1F4EA81FB81828593850097FA
:1037A000C1F4EA81FB8124853585EA81FB8144816E
:1037B0005581EA81FB81A681B781EA81FB81E6859B
:1037C0008A819B81B9019D010E2F0E94962281E082
:1037D00089830F900FBE89810F900F900F900F90EB
:1037E0000F90CF91DF910F910895DF93CF93CDB7D5
:1037F000DEB727970FB6F894DEBF0FBECDBF9D830F
:103800008C837F836E838C819D819B838A838E8151
:103810009F81009721F481E090E09F838E83EA816D
:10382000FB81248135818E819F812817390748F0DB
:10383000EA81FB818E819F819783868381E08983E2
:1038400001C01982898127960FB6F894DEBF0FBE9A
:10385000CDBFCF91DF910895DF93CF9300D000D0FB
:1038600000D0CDB7DEB79E838D838D819E819C83F2
:103870008B83EB81FC8124813581EB81FC8180810C
:103880009181820F931F9A838983EB81FC8122812E
:10389000338189819A81821B930B9A8389838981E1
:1038A0009A8101979A838983EB81FC8124813581F8
:1038B00089819A818217930750F0EB81FC812481E2
:1038C000358189819A81821B930B9A8389838981AF
:1038D0009A8126960FB6F894DEBF0FBECDBFCF916A
:1038E000DF910895DF93CF9300D000D000D0CDB703
:1038F000DEB79E838D838D819E819C838B838B819C
:103900009C810E945C229A83898389819A81269670
:103910000FB6F894DEBF0FBECDBFCF91DF910895F3
:10392000EF92FF920F931F93DF93CF93CDB7DEB744
:1039300063970FB6F894DEBF0FBECDBF9D878C870F
:103940007F876E87598B488B3B8B2A8B8C859D8517
:1039500098878F831C821B82888999899A8389839F
:10396000EF81F8858685882F90E08170907088239C
:1039700029F089819A8102969A8389838A899B8911
:10398000009709F440C0CE0109960E94972A0FB60D
:10399000F8940F928F8198850E942C1C9C838B83B6
:1039A0002B813C8189819A812817390750F580E065
:1039B00090E00E94A72F0E94002CEF81F88593874A
:1039C00082870F900FBEEA89FB8960E070E080E09B
:1039D00090E020E030E040E050E000E010E07F01C7
:1039E0000E94B02CEF81F88513861286CE010996CD
:1039F0009E012E5E3F4FB9010E94CE2A882339F2E4
:103A000002C00F900FBE8B819C81009731F48F8193
:103A100098850E942C1C9C838B838F8198852E8592
:103A20003F8548895989EB81FC81A981BA81B90117
:103A30009F018D010E94D51D9E838D838D819E8166
:103A4000009739F18F8198850E945C229C01EF815B
:103A5000F8858681978128173907D8F00E942F278B
:103A6000EF81F88580859185009789F0EF81F88551
:103A70008085918540E050E060E070E020E000E06B
:103A800010E00E944C2DEF81F885118610860E946F
:103A90003B278D819E8163960FB6F894DEBF0FBEE3
:103AA000CDBFCF91DF911F910F91FF90EF900895BF
:103AB000EF92FF920F931F93DF93CF93CDB7DEB7B3
:103AC00061970FB6F894DEBF0FBECDBF9B878A8784
:103AD0007D876C875F874E87398B288B8A859B858E
:103AE000998788878E859F859B838A83E885F9855A
:103AF0008685882F90E081709070882329F08A81D4
:103B00009B8102969B838A83888599850E942C1CC1
:103B10009D838C83888599852C853D854E855F8521
:103B2000EC81FD81AA81BB81B9019F018D010E94B9
:103B3000D51D9F838E838E819F81009739F1888563
:103B400099850E945C229C01E885F9858681978190
:103B500028173907D8F01982E885F985808591857D
:103B60000097A1F0E885F98580859185E889F98934
:103B700040E050E060E070E020E000E010E07F0115
:103B80000E94292EE885F985118610868E819F81F5
:103B900061960FB6F894DEBF0FBECDBFCF91DF9117
:103BA0001F910F91FF90EF9008950F931F93DF9354
:103BB000CF93CDB7DEB761970FB6F894DEBF0FBED7
:103BC000CDBF9D838C837F836E83598748873B87D6
:103BD0002A871D870C878A859B85009711F41B8295
:103BE00038C0EC81FD818685882F90E081709070CF
:103BF0000097D1F481E08B8328853985398B288B18
:103C00008A859B859F878E872E853F8588899989A0
:103C10008217930720F4288939893F872E878E855C
:103C20009F859987888715C02A853B858C859D85CA
:103C30002817390768F081E08B839E01285F3F4F8A
:103C40008C819D81B90142E050E00E94222101C097
:103C50001B828B81882361F02E813F8148855985A5
:103C60008C819D81B9010E9422219A83898302C09F
:103C70001A82198289819A8161960FB6F894DEBF03
:103C80000FBECDBFCF91DF911F910F910895EF929D
:103C9000FF920F931F93DF93CF93CDB7DEB760975B
:103CA0000FB6F894DEBF0FBECDBF9A8789877C8799
:103CB0006B875E874D87388B2F8789859A85988794
:103CC0008F831E821D82EF81F8858685882F90E084
:103CD00081709070882329F082E090E09A83898334
:103CE00002C01A8219828F859889009709F43DC015
:103CF0000FB6F8940F928F8198850E945C229C8366
:103D00008B832B813C8189819A818217930750F0A4
:103D100080E090E00E94A72F0E94002CEF81F885A0
:103D2000918780870F900FBE2B813C8189819A817A
:103D30008217930700F1EF85F88960E070E080E07A
:103D400090E020E030E040E050E000E010E07F0153
:103D50000E94B02CEF81F885118610868F8198859E
:103D60000E945C229C838B8306C08F8198850E9471
:103D70005C229C838B832B813C8189819A81821771
:103D8000930780F58F8198852B853C854D855E85D1
:103D9000EB81FC81A981BA81B9019F018D010E944B
:103DA000CB1F9E838D838D819E810097D9F00E94C9
:103DB0002F27EF81F88582859385009789F0EF8121
:103DC000F8858285938540E050E060E070E020E077
:103DD00000E010E00E944C2DEF81F88513861286DA
:103DE0000E943B278D819E8160960FB6F894DEBFBE
:103DF0000FBECDBFCF91DF911F910F91FF90EF903C
:103E00000895DF93CF93CDB7DEB72C970FB6F89414
:103E1000DEBF0FBECDBF9C878B878B859C85988727
:103E20008F83EF81F8858685882F90E08170907070
:103E3000882361F18F8198850E945C229C838B830B
:103E40008B819C8183309105F0F0EF81F885808132
:103E500091819A8389839E01275F3F4F8F81988547
:103E6000EB81FC81B90142E050E09F010E94AF214B
:103E700089859A859E838D83EF81F88589819A81D2
:103E80009183808305C01E821D8202C01E821D8216
:103E90008D819E812C960FB6F894DEBF0FBECDBFEC
:103EA000CF91DF910895EF92FF920F931F93DF93CD
:103EB000CF93CDB7DEB761970FB6F894DEBF0FBED4
:103EC000CDBF9B878A877D876C875F874E87398BBD
:103ED000288B8A859B85998788871F821E82E88523
:103EE000F9858685882F90E081709070882329F06D
:103EF00082E090E09B838A8302C01B821A828885BD
:103F000099850E945C229D838C832C813D818A81CE
:103F10009B818217930780F5888599852C853D853F
:103F20004E855F85EC81FD81AA81BB81B9019F012E
:103F30008D010E94CB1F9F838E838E819F8100976E
:103F4000D9F01982E885F985828593850097A1F0DB
:103F5000E885F98582859385E889F98940E050E014
:103F600060E070E020E000E010E07F010E94292E78
:103F7000E885F985138612868E819F8161960FB63A
:103F8000F894DEBF0FBECDBFCF91DF911F910F918F
:103F9000FF90EF9008950F931F93DF93CF93CDB7CA
:103FA000DEB762970FB6F894DEBF0FBECDBF9A871B
:103FB00089877C876B875E874D87388B2F871A8B25
:103FC000098B89899A89009791F1E985FA85808121
:103FD00091819E838D83AE01495F5F4F89859A856C
:103FE00029893A89EF85F889BA01A9019F010E94C0
:103FF000AF218F8198859A8389832F853889898914
:104000009A89A901481B590BCA01988B8F8729816E
:104010003A818D859E858217930768F4E985FA8534
:104020008D819E81918380831A82198204C08D853F
:104030009E859A8389834B855C8589859A852981AC
:104040003A81EF85F889BA01A9019F010E94AF2149
:104050009C838B838B819C8162960FB6F894DEBF24
:104060000FBECDBFCF91DF911F910F910895DF93C8
:10407000CF93CDB7DEB727970FB6F894DEBF0FBE4C
:10408000CDBF9F838E838E819F819D838C83EC81A6
:10409000FD81808191819A838983EC81FD812281D8
:1040A000338189819A812817390719F481E08B833C
:1040B00001C01B828B8127960FB6F894DEBF0FBE1E
:1040C000CDBFCF91DF910895DF93CF93CDB7DEB70A
:1040D00027970FB6F894DEBF0FBECDBF9F838E83A8
:1040E0008E819F819A838983E981FA818685882FD1
:1040F00090E081709070882329F082E090E09C83AA
:104100008B8302C01C821B828E819F810E942C1C8B
:104110009C018B819C818217930718F081E08D832D
:1041200001C01D828D8127960FB6F894DEBF0FBEA9
:10413000CDBFCF91DF910895EF92FF920F931F9320
:10414000DF93CF93CDB7DEB728970FB6F894DEBFD5
:104150000FBECDBF9E838D8378876F838D819E81B7
:104160009C838B831982EB81FC81808591850097EC
:10417000B9F0EB81FC8180859185EF81F88540E085
:1041800050E060E070E020E000E010E07F010E947D
:10419000292EEB81FC811186108681E08A8301C083
:1041A0001A828A8128960FB6F894DEBF0FBECDBF63
:1041B000CF91DF911F910F91FF90EF900895EF92B3
:1041C000FF920F931F93DF93CF93CDB7DEB728975E
:1041D0000FB6F894DEBF0FBECDBF9E838D83788768
:1041E0006F838D819E819C838B831982EB81FC81FF
:1041F000828593850097B9F0EB81FC818285938558
:10420000EF81F88540E050E060E070E020E000E001
:1042100010E07F010E94292EEB81FC81138612861B
:1042200081E08A8301C01A828A8128960FB6F894A9
:10423000DEBF0FBECDBFCF91DF911F910F91FF90D9
:10424000EF900895DF93CF93CDB7DEB72E970FB6DB
:10425000F894DEBF0FBECDBF9E838D8378876F83BA
:104260005A874987ED81FE81828193819C838B836C
:10427000ED81FE81248135818B819C81A901481BC0
:10428000590BCA0129853A853E872D879C878B87E4
:104290004B855C858D859E858417950720F42D853B
:1042A0003E853C872B874B855C855A834983ED810E
:1042B000FE81248535858B819C81820F931F2F8100
:1042C000388549815A81B9010E945D3029853A8536
:1042D00089819A8182179307B0F4ED81FE8164850C
:1042E00075852F81388589819A81A901480F591FC9
:1042F00029853A8589819A81281B390BCB01BA011E
:10430000A9010E945D302B813C8189859A85820FAD
:10431000931F9C838B83ED81FE81248135818B816A
:104320009C818217930750F0ED81FE8124813581B5
:104330008B819C81821B930B9C838B83ED81FE81FF
:104340008B819C819383828389859A852E960FB673
:10435000F894DEBF0FBECDBFCF91DF910895DF93FC
:10436000CF93CDB7DEB766970FB6F894DEBF0FBE1A
:10437000CDBF98878F837A8769875C874B873E8715
:104380002D872D853E853A8B298B4B855C85588BF7
:104390004F878F85988929893A892817390720F40A
:1043A00049895A89588B4F878F8598899E838D8339
:1043B0008D819E81009709F474C0EF81F88580811A
:1043C00091819A838983EF81F88524813581898160
:1043D0009A81A901481B590BCA012D813E813E8B50
:1043E0002D8B9C8B8B8B4B895C898D899E89841747
:1043F000950720F42D893E893C8B2B8B4B895C895A
:104400005C834B83EF81F8852485358589819A818A
:10441000A901480F591F89859A852B813C81BA01D2
:10442000A9010E945D302D813E818B819C81821784
:104430009307B0F429853A858B819C81B901680F77
:10444000791FEF81F885448555852D813E818B81CB
:104450009C81281B390BCB01BA01A9010E945D3058
:1044600029813A818D819E81820F931F9A8389834E
:10447000EF81F8852481358189819A81821793079C
:1044800050F0EF81F8852481358189819A81821BE2
:10449000930B9A838983EF81F88589819A8191832F
:1044A00080838D819E8166960FB6F894DEBF0FBE25
:1044B000CDBFCF91DF910895DF93CF9300D000D08F
:1044C000CDB7DEB79C838B83EB81FC812481358162
:1044D000EB81FC8182819381820F931F9A83898370
:1044E000EB81FC812081318189819A81821B930B30
:1044F0009A838983EB81FC812481358189819A812A
:104500008217930750F0EB81FC81248135818981EA
:104510009A81821B930B9A83898389819A810F9058
:104520000F900F900F90CF91DF9108950F93DF932D
:10453000CF93CDB7DEB729970FB6F894DEBF0FBE85
:10454000CDBF9A8389837C836B835E834D83388759
:104550002F83098789819A8160E070E04FE050E005
:104560000E946630E981FA818B819C8195878487DE
:10457000E981FA818D819E8195838483E981FA8125
:104580008F81988597838683E981FA8189858687DB
:1045900029960FB6F894DEBF0FBECDBFCF91DF9145
:1045A0000F9108958F929F92AF92BF92CF92DF9218
:1045B000EF92FF920F931F93DF93CF93CDB7DEB7A8
:1045C00060970FB6F894DEBF0FBECDBF9F838E837A
:1045D000798768875B874A873D872C870E87F88AAB
:1045E000EF868A859B850E940B0F9A838983898138
:1045F0009A810097B1F086E290E00E940B0F9D83B4
:104600008C838C819D81009739F0EC81FD818981BB
:104610009A81908F878B07C089819A810E94610F50
:1046200002C01D821C828C819D810097E9F08A85E1
:104630009B859C0140E050E08E819F816885798553
:10464000EC85FD85AF85B889AC80BD808F01EE8497
:104650006D01882499240E944A238C819D810E94A7
:10466000062481E08B8302C08FEF8B838B81609661
:104670000FB6F894DEBF0FBECDBFCF91DF911F9173
:104680000F91FF90EF90DF90CF90BF90AF909F90F1
:104690008F9008958F929F92AF92BF92CF92DF92A8
:1046A000EF920F931F93DF93CF93CDB7DEB764974D
:1046B0000FB6F894DEBF0FBECDBF9D838C837F8382
:1046C0006E83288739874A875B871D870C87EE862C
:1046D000D88ACF86BA8AA98A9C8A8B8AE989FA897C
:1046E0002789308D888599850197820F931F9B8339
:1046F0008A838E819F81009751F1198221C089811F
:10470000482F50E08981282F30E08E819F81FC0165
:10471000E20FF31F208189899A89840F951FFC017C
:10472000799620838981282F30E08E819F81FC013A
:10473000E20FF31F8081882331F089818F5F8983A5
:1047400089818830E0F2E989FA8910A203C0E989F9
:10475000FA89118E8E85843010F083E08E87E98986
:10476000FA898E85868B89899A8902960E94B10F73
:1047700089899A890C960E94B10FE989FA898989F9
:104780009A89918780878E85282F30E084E090E099
:10479000821B930BE989FA8995878487E989FA89CD
:1047A00089899A89938B828BE989FA8911A212A24D
:1047B00013A214A2E989FA8915A28A819B812C810E
:1047C0003D814C855D85B9010E942811E989FA89EE
:1047D000918380838F859889009731F0EF85F889E0
:1047E00089899A899183808364960FB6F894DEBF95
:1047F0000FBECDBFCF91DF911F910F91EF90DF9052
:10480000CF90BF90AF909F908F900895DF93CF93FC
:1048100000D0CDB7DEB79A8389830FB6F8940F9294
:10482000809159068F5F809359068091560690912A
:104830005706009769F489819A819093570680936F
:104840005606809159068130B9F40E944F2B14C04E
:1048500080915D06882381F4E0915606F091570619
:104860009689E981FA818689891730F089819A8150
:104870009093570680935606809161068F5F8093D0
:104880006106E981FA81968980915C06891728F48E
:10489000E981FA81868980935C06E981FA818689BB
:1048A000282F30E0C901880F991F880F991F880FA2
:1048B000991F820F931FAC014959594F89819A81E1
:1048C0009C012E5F3F4FCA01B9010E94C10F0F909A
:1048D0000FBE80915D06882361F0E0915606F0914D
:1048E00057069689E981FA818689981710F40E9403
:1048F000E7120F900F90CF91DF910895DF93CF9340
:1049000000D000D000D0CDB7DEB79C838B830FB62C
:10491000F8940F928B819C81009739F48091560610
:10492000909157069E838D8304C08B819C819E83CA
:104930008D838D819E819A83898389819A81029654
:104940000E947110E981FA8184899589009729F084
:1049500089819A810C960E947110809161068F5F07
:1049600080936106209156063091570689819A817D
:104970008217930781F489819A819C012E5F3F4FB2
:104980008AEA96E0B9010E94C10F809158068F5FB4
:10499000809358060BC08091590681508093590628
:1049A00089819A810E94BF2B0E94D52B0F900FBE48
:1049B00080915D06882359F0209156063091570664
:1049C00089819A818217930711F40E94E712269633
:1049D0000FB6F894DEBF0FBECDBFCF91DF91089523
:1049E000DF93CF93CDB7DEB72A970FB6F894DEBF2B
:1049F0000FBECDBF98878F837A8769871B820E94FD
:104A00002F2780915A0690915B069A838983EF81C4
:104A1000F8852081318189859A85820F931F9E8335
:104A20008D83EF81F8852081318189819A81821778
:104A3000930798F4EF81F885208131818D819E81E3
:104A400082179307E0F42D813E8189819A81821734
:104A50009307A8F481E08B8312C0EF81F885208151
:104A600031818D819E818217930738F02D813E819F
:104A700089819A818217930710F481E08B83EF81FB
:104A8000F8858D819E81918380838B81882349F075
:104A90008D819E8129813A81821B930B60E00E9467
:104AA000E12F0E943B278C838C81882311F40E9484
:104AB000E7122A960FB6F894DEBF0FBECDBFCF9196
:104AC000DF910895DF93CF9300D00F92CDB7DEB77B
:104AD0009B838A8319828A819B81009751F00E946F
:104AE0002F278A819B8160E00E94E12F0E943B2753
:104AF00089838981882311F40E94E7120F900F9017
:104B00000F90CF91DF910895DF93CF9300D000D025
:104B100000D0CDB7DEB79C838B830FB6F8940F928D
:104B20008B819C81009739F48091560690915706AD
:104B30009E838D8304C08B819C819E838D838D8118
:104B40009E819A83898389819A8102960E9471103D
:104B5000E981FA8184899589009729F089819A8170
:104B60000C960E94711089819A819C012E5F3F4FA3
:104B700083EB96E0B9010E94C10FE981FA8185A11A
:104B8000813019F4E981FA8115A20F900FBE80914E
:104B90005D06882339F00FB6F8940F920E94D52B4A
:104BA0000F900FBE209156063091570689819A8149
:104BB00082179307A1F480915D06882319F00E9463
:104BC000E7120DC09091B30680915906981729F409
:104BD000109257061092560602C00E94102926967F
:104BE0000FB6F894DEBF0FBECDBFCF91DF91089511
:104BF000DF93CF9300D000D00F92CDB7DEB79D8367
:104C00008C831B828C819D819A838983E981FA81BF
:104C10008285938526E0833B920781F4E981FA81BE
:104C20008489958926E0813A920741F0E981FA81E9
:104C300084899589009711F481E08B838B810F9093
:104C40000F900F900F900F90CF91DF910895DF9309
:104C5000CF9300D000D0CDB7DEB79C838B838B8100
:104C60009C819A83898320915606309157068981C9
:104C70009A818217930709F447C089819A81009726
:104C800009F442C00FB6F8940F9289819A810E946C
:104C9000F8258823B9F189819A8102960E947110C2
:104CA000E981FA81968980915C06891728F4E98167
:104CB000FA81868980935C06E981FA818689282FAA
:104CC00030E0C901880F991F880F991F880F991F1D
:104CD000820F931FAC014959594F89819A819C01D8
:104CE0002E5F3F4FCA01B9010E94C10FE981FA81CD
:104CF0009689E0915606F09157068689981710F02C
:104D00000E94E7120F900FBE0F900F900F900F9020
:104D1000CF91DF910895DF93CF9300D000D000D0E2
:104D2000CDB7DEB79E838D831C828D819E819B8350
:104D30008A8319828A819B810E94F825882309F43D
:104D400046C0809166068823C1F5EA81FB81968979
:104D5000E0915606F09157068689981710F081E089
:104D60008C838A819B8102960E947110EA81FB816B
:104D7000968980915C06891728F4EA81FB818689EF
:104D800080935C06EA81FB818689282F30E0C90187
:104D9000880F991F880F991F880F991F820F931FE3
:104DA000AC014959594F8A819B819C012E5F3F4F2D
:104DB000CA01B9010E94C10F0AC08A819B819C016E
:104DC000245F3F4F81EA96E0B9010E94C10F8C81B8
:104DD00026960FB6F894DEBF0FBECDBFCF91DF9100
:104DE0000895EF92FF920F93DF93CF930F92CDB779
:104DF000DEB785E49BE22EE630E0E4E6F6E0B901BA
:104E000045E550E020E030E000E07F010E94D22242
:104E100089838981813081F4F8948FEF9FEF90939B
:104E200063068093620681E080935D0610925B06C4
:104E300010925A060E94AB120F90CF91DF910F9102
:104E4000FF90EF900895DF93CF93CDB7DEB7F8943E
:104E500010925D060E94E012CF91DF910895DF93DA
:104E6000CF93CDB7DEB7809166068F5F80936606DD
:104E7000CF91DF910895DF93CF9300D000D0CDB7CD
:104E8000DEB71C821B821A820FB6F8940F928091B3
:104E9000660681508093660680916606882309F035
:104EA00073C080915906882309F46EC045C0E09113
:104EB000A606F091A706868197819C838B838B81C0
:104EC0009C810C960E9471108B819C8102960E949D
:104ED0007110EB81FC81968980915C06891728F41A
:104EE000EB81FC81868980935C06EB81FC8186895D
:104EF000282F30E0C901880F991F880F991F880F4C
:104F0000991F820F931FAC014959594F8B819C8186
:104F10009C012E5F3F4FCA01B9010E94C10FEB8176
:104F2000FC819689E0915606F0915706868998177C
:104F300018F081E080935F068091A106882309F034
:104F4000B6CF8B819C81009711F00E94D52B809168
:104F50005E0689838981882379F00E942B28882323
:104F600019F081E080935F0689818150898389816E
:104F7000882399F710925E0680915F06882321F0BE
:104F800081E08A830E94E7120F900FBE8A810F9002
:104F90000F900F900F90CF91DF910895DF93CF93F3
:104FA00000D0CDB7DEB70FB6F8940F9280915A06B5
:104FB00090915B069A8389830F900FBE89819A81B5
:104FC0000F900F90CF91DF910895DF93CF9300D092
:104FD0000F92CDB7DEB7198280915A0690915B0689
:104FE0009B838A838A819B810F900F900F90CF9132
:104FF000DF910895DF93CF93CDB7DEB78091590647
:10500000CF91DF910895DF93CF9300D000D000D0EF
:10501000CDB7DEB79C838B838B819C81009739F45D
:1050200080915606909157069E838D8304C08B8194
:105030009C819E838D838D819E819A8389838981C2
:105040009A81499626960FB6F894DEBF0FBECDBF63
:10505000CF91DF910895DF93CF93CDB7DEB7299736
:105060000FB6F894DEBF0FBECDBF1D8280916606DD
:10507000882309F0C0C080915A0690915B06019682
:105080009C838B838B819C8190935B0680935A06D3
:105090008B819C810097D9F480919D0690919E060A
:1050A0009A83898380919F069091A00690939E0693
:1050B00080939D0689819A819093A00680939F0694
:1050C000809160068F5F809360060E94D52B2091AF
:1050D0006206309163068B819C818217930708F4E6
:1050E00071C0E0919D06F0919E068081882339F47D
:1050F0008FEF9FEF909363068093620663C0E09109
:105100009D06F0919E060580F681E02D86819781AF
:1051100099878887E885F985828193819F838E832B
:105120002B813C818E819F812817390738F48E812D
:105130009F81909363068093620644C08885998519
:1051400002960E947110E885F985848995890097F7
:1051500029F0888599850C960E947110E885F9855B
:10516000968980915C06891728F4E885F9858689F7
:1051700080935C06E885F9858689282F30E0C9018F
:10518000880F991F880F991F880F991F820F931FEF
:10519000AC014959594F888599859C012E5F3F4F35
:1051A000CA01B9010E94C10FE885F9859689E0918D
:1051B0005606F09157068689981708F492CF81E039
:1051C0008D838FCFE0915606F09157068689282F60
:1051D00030E0C901880F991F880F991F880F991F08
:1051E000820F931FFC01E959F94F8081823040F012
:1051F00081E08D8305C080915E068F5F80935E069F
:1052000080915F06882311F081E08D838D8129963E
:105210000FB6F894DEBF0FBECDBFCF91DF910895DA
:10522000DF93CF9300D00F92CDB7DEB780916606A3
:10523000882321F081E080935F0659C010925F06B9
:1052400080915C068B8303C08B8181508B838B8123
:10525000282F30E0C901880F991F880F991F880FE8
:10526000991F820F931FFC01E959F94F8081882310
:1052700059F38B81282F30E0C901880F991F880FBF
:10528000991F880F991F820F931F8959994F9A83ED
:105290008983E981FA810180F281E02D8281938105
:1052A000E981FA8192838183E981FA8121813281C6
:1052B00089819A8103962817390759F4E981FA817F
:1052C0000180F281E02D82819381E981FA819283CC
:1052D0008183E981FA810180F281E02D86819781C5
:1052E00090935706809356068B8180935C060F90AF
:1052F0000F900F90CF91DF910895DF93CF9300D05F
:1053000000D0CDB7DEB79A8389837C836B8380918D
:105310005606909157069C01245F3F4F89819A81E0
:10532000B9010E9405108B819C8161E00E94E12FF0
:105330000F900F900F900F90CF91DF910895DF9312
:10534000CF9300D000D000D0CDB7DEB79A83898349
:105350007C836B835E834D83E0915606F091570604
:105360008B819C8190689587848780915606909167
:1053700057069C01245F3F4F89819A81B9010E94A1
:10538000C10F8D819E8161E00E94E12F26960FB6AC
:10539000F894DEBF0FBECDBFCF91DF910895DF93AC
:1053A000CF9300D000D00F92CDB7DEB79D838C8312
:1053B000EC81FD810580F681E02D868197819B83BC
:1053C0008A838A819B810C960E9471108091660667
:1053D000882361F58A819B8102960E947110EA817F
:1053E000FB81968980915C06891728F4EA81FB810C
:1053F000868980935C06EA81FB818689282F30E0CC
:10540000C901880F991F880F991F880F991F820F54
:10541000931FAC014959594F8A819B819C012E5F92
:105420003F4FCA01B9010E94C10F0AC08A819B8106
:105430009C01245F3F4F81EA96E0B9010E94C10FB1
:10544000EA81FB819689E0915606F091570686899C
:10545000891730F481E0898381E080935F0601C081
:10546000198289810F900F900F900F900F90CF911C
:10547000DF910895DF93CF9300D000D000D0CDB757
:10548000DEB79C838B837E836D838D819E81906844
:10549000EB81FC8191838083EB81FC818681978104
:1054A0009A8389838B819C810E94711089819A8162
:1054B00002960E947110E981FA81968980915C06BA
:1054C000891728F4E981FA81868980935C06E9814D
:1054D000FA818689282F30E0C901880F991F880F2B
:1054E000991F880F991F820F931FAC014959594F7B
:1054F00089819A819C012E5F3F4FCA01B9010E94A8
:10550000C10FE981FA819689E0915606F09157061C
:105510008689891718F481E080935F0626960FB676
:10552000F894DEBF0FBECDBFCF91DF910895DF931A
:10553000CF9300D0CDB7DEB79A8389830FB6F894A6
:105540000F9280916006E981FA81808380915A06EA
:1055500090915B06E981FA81928381830F900FBE5F
:105560000F900F90CF91DF910895DF93CF9300D0EC
:10557000CDB7DEB79A83898380916006E981FA818D
:10558000808380915A0690915B06E981FA8192832B
:1055900081830F900F90CF91DF910895DF93CF9388
:1055A000CDB7DEB729970FB6F894DEBF0FBECDBFDB
:1055B0009F838E83798768870FB6F8940F928091C6
:1055C0005A0690915B069C838B83EE81FF8121813B
:1055D00032818B819C81821B930B9A838983E8851E
:1055E000F985808191812FEF8F3F920711F41D8201
:1055F00036C0EE81FF81908180916006981761F03E
:10560000EE81FF81218132818B819C8182179307FA
:1056100018F081E08D8323C0E885F98520813181F0
:1056200089819A8182179307A0F4E885F985208102
:10563000318189819A81A901481B590BCA01E885EA
:10564000F985918380838E819F810E94B52A1D8276
:1056500006C0E885F9851182108281E08D830F9064
:105660000FBE8D8129960FB6F894DEBF0FBECDBF59
:10567000CF91DF910895DF93CF93CDB7DEB781E06F
:1056800080935F06CF91DF910895DF93CF9300D091
:10569000CDB7DEB79A8389830E94902BFDCFDF932D
:1056A000CF930F92CDB7DEB7198213C08981282F0F
:1056B00030E0C901880F991F880F991F880F991F23
:1056C000820F931F8959994F0E94870F89818F5F9D
:1056D00089838981843050F38BE896E00E94870F9C
:1056E00084E996E00E94870F81EA96E00E94870F86
:1056F0008AEA96E00E94870F83EB96E00E94870F6C
:105700008BE896E090939E0680939D0684E996E050
:105710009093A00680939F060F90CF91DF910895FC
:10572000DF93CF9300D0CDB7DEB720C00FB6F8948B
:105730000F92E091AF06F091B006868197819A832F
:10574000898389819A8102960E94711080915906FD
:105750008150809359068091580681508093580655
:105760000F900FBE89819A810E94BF2B80915806AD
:105770008823E1F60F900F90CF91DF910895DF938A
:10578000CF9300D0CDB7DEB79A838983E981FA81C0
:105790008789908D0E94610F89819A810E94610F93
:1057A0000F900F90CF91DF910895DF93CF9300D0AA
:1057B000CDB7DEB7E0919D06F0919E0680818823EB
:1057C00039F48FEF9FEF909363068093620613C0C6
:1057D000E0919D06F0919E060580F681E02D868180
:1057E00097819A838983E981FA8182819381909359
:1057F0006306809362060F900F90CF91DF9108951A
:10580000DF93CF9300D0CDB7DEB78091560690914D
:1058100057069A83898389819A810F900F90CF913F
:10582000DF910895DF93CF9300D0CDB7DEB7E0913D
:105830005606F0915706848595859A838983A091B1
:105840005606B0915706E0915606F09157068689A4
:10585000282F30E084E090E0821B930B1D969C93F0
:105860008E931C9789819A810F900F90CF91DF9131
:105870000895DF93CF93CDB7DEB727970FB6F8948F
:10588000DEBF0FBECDBF8D837F836E830FB6F894CE
:105890000F92E0915606F091570681A192A1A3A123
:1058A000B4A10097A105B10589F4E0915606F091E5
:1058B000570681E085A38E819F81009739F08E8104
:1058C0009F8161E00E94E12F0E94E7120F900FBEBE
:1058D0000FB6F8940F92E0915606F091570681A109
:1058E00092A1A3A1B4A189839A83AB83BC8389814C
:1058F0009A81AB81BC810097A105B105D9F08D815A
:10590000882349F0E0915606F091570611A212A2A1
:1059100013A214A20FC0E0915606F0915706898198
:105920009A81AB81BC810197A109B10981A392A39E
:10593000A3A3B4A3E0915606F091570615A20F90C9
:105940000FBE89819A81AB81BC81BC01CD012796B4
:105950000FB6F894DEBF0FBECDBFCF91DF91089593
:10596000EF92FF920F931F93DF93CF93CDB7DEB7E4
:105970002D970FB6F894DEBF0FBECDBF6A837B8331
:105980008C839D832E833F83488759871B870A8793
:10599000FD86EC860FB6F8940F92E0915606F091D2
:1059A000570685A1823049F1E0915606F0915706DD
:1059B00021A132A143A154A18A819B81AC81BD81E7
:1059C00080959095A095B09582239323A423B52329
:1059D00081A392A3A3A3B4A3E0915606F091570626
:1059E00081E085A38C859D85009739F08C859D8508
:1059F00061E00E94E12F0E94E7120F900FBE0FB6E8
:105A0000F8940F928A859B85009771F0E091560675
:105A1000F091570681A192A1A3A1B4A1EA85FB85CB
:105A200080839183A283B383E0915606F091570659
:105A300085A1823011F019821AC0E0915606F091CA
:105A4000570621A132A143A154A18E819F81A8852F
:105A5000B98580959095A095B09582239323A42332
:105A6000B52381A392A3A3A3B4A381E08983E0918A
:105A70005606F091570615A20F900FBE89812D96FC
:105A80000FB6F894DEBF0FBECDBFCF91DF911F914F
:105A90000F91FF90EF9008950F931F93DF93CF9393
:105AA000CDB7DEB72F970FB6F894DEBF0FBECDBFD0
:105AB0009E838D834F83588769877A872B871D87BD
:105AC0000C8781E08A838D819E819C838B830FB6B6
:105AD000F8940F928C859D85009761F0EB81FC8195
