:100000000C942A000C9447000C9447000C94470071
:100010000C9447000C9447000C9447000C94470044
:100020000C9447000C9447000C9428060C94550639
:100030000C9447000C9447000C9447000C94470024
:100040000C9447000C9447000C9447000C94470014
:100050000C94470011241FBECFE5D8E0DEBFCDBF12
:1000600010E0A0E6B0E0EEE5F0E102C005900D92F0
:10007000A236B107D9F710E0A2E6B0E001C01D92A8
:10008000A137B107E1F70E9482060C942D080C9469
:100090000000DF93CF9300D000D000D0CDB7DEB703
:1000A0008B836C838B818695869586958A838B81DD
:1000B000877089838A81282F30E03E832D838D814C
:1000C0009E818130910509F443C02D813E8122300B
:1000D00031052CF48D819E81009771F0BCC02D817B
:1000E0003E812230310509F45FC08D819E818330CD
:1000F000910509F485C0AFC08C818130A1F4AAE3D9
:10010000B0E0EAE3F0E08081482F8981282F30E0D9
:1001100081E090E0022E02C0880F991F0A94E2F756
:10012000842B8C9398C0AAE3B0E0EAE3F0E08081EE
:10013000482F8981282F30E081E090E0022E02C014
:10014000880F991F0A94E2F7809584238C9383C0CB
:100150008C818130A1F4A7E3B0E0E7E3F0E0808197
:10016000482F8981282F30E081E090E0022E02C0E4
:10017000880F991F0A94E2F7842B8C936CC0A7E335
:10018000B0E0E7E3F0E08081482F8981282F30E05C
:1001900081E090E0022E02C0880F991F0A94E2F7D6
:1001A000809584238C9357C08C818130A1F4A4E383
:1001B000B0E0E4E3F0E08081482F8981282F30E02F
:1001C00081E090E0022E02C0880F991F0A94E2F7A6
:1001D000842B8C9340C0A4E3B0E0E4E3F0E08081A2
:1001E000482F8981282F30E081E090E0022E02C064
:1001F000880F991F0A94E2F7809584238C932BC073
:100200008C818130A1F4A1E3B0E0E1E3F0E08081F2
:10021000482F8981282F30E081E090E0022E02C033
:10022000880F991F0A94E2F7842B8C9314C0A1E3E2
:10023000B0E0E1E3F0E08081482F8981282F30E0B1
:1002400081E090E0022E02C0880F991F0A94E2F725
:10025000809584238C9326960FB6F894DEBF0FBE4C
:10026000CDBFCF91DF910895DF93CF9300D000D021
:1002700000D0CDB7DEB78B836C838B818695869556
:1002800086958A838B81877089838A81282F30E0C5
:100290003E832D838D819E818130910509F443C079
:1002A0002D813E81223031052CF48D819E81009775
:1002B00071F0BCC02D813E812230310509F45FC050
:1002C0008D819E818330910509F485C0AFC08C81FA
:1002D0008130A1F4ABE3B0E0EBE3F0E08081482FA4
:1002E0008981282F30E081E090E0022E02C0880F43
:1002F000991F0A94E2F7842B8C9398C0ABE3B0E08B
:10030000EBE3F0E08081482F8981282F30E081E005
:1003100090E0022E02C0880F991F0A94E2F78095A0
:1003200084238C9383C08C818130A1F4A8E3B0E056
:10033000E8E3F0E08081482F8981282F30E081E0D8
:1003400090E0022E02C0880F991F0A94E2F7842BD6
:100350008C936CC0A8E3B0E0E8E3F0E08081482F24
:100360008981282F30E081E090E0022E02C0880FC2
:10037000991F0A94E2F7809584238C9357C08C814F
:100380008130A1F4A5E3B0E0E5E3F0E08081482FFF
:100390008981282F30E081E090E0022E02C0880F92
:1003A000991F0A94E2F7842B8C9340C0A5E3B0E038
:1003B000E5E3F0E08081482F8981282F30E081E05B
:1003C00090E0022E02C0880F991F0A94E2F78095F0
:1003D00084238C932BC08C818130A1F4A2E3B0E004
:1003E000E2E3F0E08081482F8981282F30E081E02E
:1003F00090E0022E02C0880F991F0A94E2F7842B26
:100400008C9314C0A2E3B0E0E2E3F0E08081482FD7
:100410008981282F30E081E090E0022E02C0880F11
:10042000991F0A94E2F7809584238C9326960FB641
:10043000F894DEBF0FBECDBFCF91DF910895DF935B
:10044000CF9300D000D000D0CDB7DEB78C83198217
:100450008C81803218F082E089836FC08C81869510
:10046000869586958B838C8187708A838B81282FD4
:1004700030E03E832D834D815E814130510541F155
:100480008D819E818230910534F42D813E8121152C
:10049000310561F052C04D815E814230510551F10C
:1004A0008D819E8183309105B9F147C0E9E3F0E089
:1004B0008081282F30E08A81882F90E0A90102C036
:1004C000559547958A95E2F7CA018170898335C0B1
:1004D000E6E3F0E08081282F30E08A81882F90E0E9
:1004E000A90102C0559547958A95E2F7CA01817026
:1004F000898323C0E3E3F0E08081282F30E08A8104
:10050000882F90E0A90102C0559547958A95E2F79A
:10051000CA018170898311C0E0E3F0E08081282F57
:1005200030E08A81882F90E0A90102C05595479557
:100530008A95E2F7CA0181708983898126960FB670
:10054000F894DEBF0FBECDBFCF91DF910895DF934A
:10055000CF9300D00F92CDB7DEB789838981282F42
:1005600030E03B832A838A819B8184309105C9F1E5
:100570002A813B812530310584F48A819B81823038
:10058000910529F12A813B81233031052CF58A819F
:100590009B8181309105B1F03CC02A813B8126309E
:1005A000310549F18A819B8186309105FCF02A81D1
:1005B0003B812730310521F18A819B81883091056B
:1005C00021F127C080E161E00E94490022C081E161
:1005D00061E00E9449001DC082E161E00E94490083
:1005E00018C083E161E00E94490013C084E161E02A
:1005F0000E9449000EC085E161E00E94490009C0E7
:1006000086E161E00E94490004C087E161E00E9448
:1006100049000F900F900F90CF91DF910895DF93D5
:10062000CF9300D00F92CDB7DEB789838981282F71
:1006300030E03B832A838A819B8184309105C9F114
:100640002A813B812530310584F48A819B81823067
:10065000910529F12A813B81233031052CF58A81CE
:100660009B8181309105B1F03CC02A813B812630CD
:10067000310549F18A819B8186309105FCF02A8100
:100680003B812730310521F18A819B81883091059A
:1006900021F127C080E161E00E94340122C081E1A4
:1006A00061E00E9434011DC082E161E00E943401DA
:1006B00018C083E161E00E94340113C084E161E06D
:1006C0000E9434010EC085E161E00E94340109C03E
:1006D00086E161E00E94340104C087E161E00E948C
:1006E00034010F900F900F90CF91DF910895DF9319
:1006F000CF9300D00F92CDB7DEB789838981282FA1
:1007000030E03B832A838A819B8184309105C9F143
:100710002A813B812530310584F48A819B81823096
:10072000910529F12A813B81233031052CF58A81FD
:100730009B8181309105B1F03CC02A813B812630FC
:10074000310549F18A819B8186309105FCF02A812F
:100750003B812730310521F18A819B8188309105C9
:1007600021F127C080E160E00E94340122C081E1D4
:1007700060E00E9434011DC082E160E00E9434010B
:1007800018C083E160E00E94340113C084E160E09E
:100790000E9434010EC085E160E00E94340109C06E
:1007A00086E160E00E94340104C087E160E00E94BD
:1007B00034010F900F900F90CF91DF910895DF9348
:1007C000CF9300D00F92CDB7DEB789838981282FD0
:1007D00030E03B832A838A819B818830910509F42C
:1007E000A0C02A813B81293031055CF58A819B813B
:1007F0008430910509F471C02A813B81253031058F
:100800009CF48A819B818230910509F454C02A812D
:100810003B81233031050CF057C08A819B818130A8
:10082000910509F43FC0CDC02A813B8126303105B6
:1008300009F465C08A819B81873091050CF068C0FE
:1008400055C02A813B812C30310509F48EC08A8144
:100850009B818D3091056CF42A813B812A303105D2
:1008600009F471C08A819B818B3091050CF074C0B2
:1008700061C02A813B812E30310509F488C08A810C
:100880009B818E3091050CF479C02A813B812F30F9
:10089000310509F485C08A819B818031910509F475
:1008A00088C08FC080E060E00E94490080E061E085
:1008B0000E94340186C081E160E00E94490081E12C
:1008C00061E00E9434017DC082E160E00E94490045
:1008D00082E161E00E94340174C083E160E00E9423
:1008E000490083E161E00E9434016BC084E160E073
:1008F0000E94490084E161E00E94340162C085E108
:1009000060E00E94490085E161E00E94340159C025
:1009100086E160E00E94490086E161E00E943401C6
:1009200050C087E160E00E94490087E161E00E94D9
:10093000340147C088E160E00E94490088E161E03D
:100940000E9434013EC089E160E00E94490089E1D3
:1009500061E00E94340135C08AE160E00E944900F4
:100960008AE161E00E9434012CC08BE160E00E94CA
:1009700049008BE161E00E94340123C08CE160E01A
:100980000E9449008CE161E00E9434011AC08DE1AF
:1009900060E00E9449008DE161E00E94340111C0D5
:1009A0008EE160E00E9449008EE161E00E94340126
:1009B00008C08FE160E00E9449008FE161E00E9481
:1009C00034010F900F900F90CF91DF910895DF9336
:1009D000CF9300D000D0CDB7DEB78A838A81282F8D
:1009E00030E03C832B838B819C818830910509F416
:1009F00084C02B813C81293031055CF58B819C8141
:100A00008430910509F465C02B813C812530310586
:100A10009CF48B819C818230910509F450C02B811C
:100A20003C81233031050CF04FC08B819C8181309B
:100A3000910509F43FC08DC02B813C8126303105E2
:100A400009F451C08B819C81873091050CF050C016
:100A500045C02B813C812C30310509F462C08B816B
:100A60009C818D3091056CF42B813C812A303105BD
:100A700009F44DC08B819C818B3091050CF04CC0EA
:100A800041C02B813C812E30310509F454C08B814B
:100A90009C818E3091050CF449C02B813C812F3014
:100AA000310509F44DC08B819C818031910509F499
:100AB0004CC04FC080E00E941F0289834AC081E180
:100AC0000E941F02898345C082E10E941F02898320
:100AD00040C083E10E941F0289833BC084E10E94E1
:100AE0001F02898336C085E10E941F02898331C0BD
:100AF00086E10E941F0289832CC087E10E941F02A9
:100B0000898327C088E10E941F02898322C089E16E
:100B10000E941F0289831DC08AE10E941F028983EF
:100B200018C08BE10E941F02898313C08CE10E94D0
:100B30001F0289830EC08DE10E941F02898309C0B4
:100B40008EE10E941F02898304C08FE10E941F0270
:100B5000898389810F900F900F900F90CF91DF9133
:100B60000895DF93CF93CDB7DEB7E3E5F0E0808162
:100B70008F7B8083E3E5F0E08081877F8083E3E5FE
:100B8000F0E080818F7C8083E3E5F0E08081887FE6
:100B900081608083EFE5F0E0808180688083E9E513
:100BA000F0E0808181608083E9E5F0E080818D7FE5
:100BB0008083CF91DF910895DF93CF93CDB7DEB7D8
:100BC000E3E5F0E08081887F8083CF91DF91089515
:100BD000DF93CF930F92CDB7DEB78983E2E5F0E0E4
:100BE000898180830F90CF91DF910895DF93CF9318
:100BF0000F92CDB7DEB78983ECE5F0E08981808381
:100C00000F90CF91DF910895DF93CF9300D0CDB7B0
:100C1000DEB79A83898389819A8190936A00809351
:100C200069000F900F90CF91DF910895DF93CF93DC
:100C300000D0CDB7DEB79A83898389819A8190935A
:100C40006C0080936B000F900F90CF91DF9108950F
:100C50001F920F920FB60F9211242F933F934F9331
:100C60005F936F937F938F939F93AF93BF93EF9314
:100C7000FF93DF93CF93CDB7DEB7E0916900F0919A
:100C80006A000995CF91DF91FF91EF91BF91AF91EC
:100C90009F918F917F916F915F914F913F912F9194
:100CA0000F900FBE0F901F9018951F920F920FB6C6
:100CB0000F9211242F933F934F935F936F937F93E2
:100CC0008F939F93AF93BF93EF93FF93DF93CF9354
:100CD000CDB7DEB7E0916B00F0916C000995CF9134
:100CE000DF91FF91EF91BF91AF919F918F917F9194
:100CF0006F915F914F913F912F910F900FBE0F9089
:100D00001F901895DF93CF93CDB7DEB764970FB6DA
:100D1000F894DEBF0FBECDBF19821A821B821C82DF
:100D200084EF91E0A0E0B0E08D839E83AF83B8872D
:100D30008DED96E09A8789871B861C861D861E8608
:100D400082E390E0A0E0B0E08F87988BA98BBA8B0C
:100D50008EE597E09C8B8B8BCE01019690936E0075
:100D600080936D00CE010B969093700080936F007E
:100D700081E00E94A70282E00E94A70283E00E9415
:100D8000A70284E00E94A70285E00E94A70286E0F5
:100D90000E94A70287E00E94A70288E00E94A702A3
:100DA00081E00E94DF0389EF97E00E94160680EC45
:100DB0000E94E8050E94B105FFCFDF93CF9300D0DA
:100DC000CDB7DEB780916700282F30E03A832983C2
:100DD00089819A8183309105A9F129813A81243052
:100DE00031057CF489819A818130910519F129813D
:100DF0003A812230310514F589819A810097B1F04A
:100E000035C029813A812530310521F189819A81C6
:100E100085309105DCF029813A8126303105F1F0E9
:100E200089819A8187309105E9F020C081E00E9494
:100E30000F0334C082E00E940F0330C083E00E94A1
:100E40000F032CC084E00E940F0328C085E00E949D
:100E50000F0324C086E00E940F0320C087E00E9499
:100E60000F031CC088E00E940F0318C081E00E949D
:100E7000770382E00E94770383E00E94770384E097
:100E80000E94770385E00E94770386E00E94770343
:100E900087E00E94770388E00E94770380916700D3
:100EA0008F5F8093670080916700893011F4109202
:100EB00067000F900F90CF91DF9108950F931F93CC
:100EC000DF93CF93CDB7DEB780916800082F10E095
:100ED00081E00E94E704F801E05AFF4F808380918F
:100EE00068008F5F8093680080916800823081F491
:100EF0001092680080916000882341F48091610025
:100F0000882321F481E08093660002C0109266007D
:100F1000CF91DF911F910F910895DF93CF930F929F
:100F2000CDB7DEB719825DC08981882F90E0880F28
:100F3000991FFC01E359FF4F0190F081E02D808162
:100F40009181A281B3810097A105B10589F58981BD
:100F5000882F90E0880F991FFC01E359FF4F019003
:100F6000F081E02D0084F185E02D09958981882F9D
:100F700090E0880F991FFC01E359FF4F20813181D8
:100F80008981882F90E0880F991FFC01E359FF4F5A
:100F90000190F081E02D84819581A681B781019730
:100FA000A109B109F90180839183A283B38316C09B
:100FB0008981882F90E0880F991FFC01E359FF4F2A
:100FC0000190F081E02D80819181A281B381019710
:100FD000A109B10980839183A283B38389818F5F43
:100FE00089838981823008F49FCF0F90CF91DF9160
:100FF0000895DF93CF93CDB7DEB7809162009091D3
:101000006300A0916400B09165000196A11DB11D1F
:101010008093620090936300A0936400B093650096
:101020008091620090916300A0916400B09165008E
:1010300080329105A105B10569F410926200109209
:101040006300109264001092650080EC0E94E80535
:0E1050000E948D07CF91DF910895F894FFCF95
:02105E0001018E
:00000001FF
